:020000040800F2
:1000000000500020E9160008C9150008CB150008AB
:10001000CD150008CF150008D1150008000000001C
:10002000000000000000000000000000D3150008E0
:10003000D515000800000000D7150008D9150008E4
:100040003117000831170008311700083117000870
:100050003117000831170008311700083117000860
:1000600031170008E1150008EB150008F515000828
:100070003117000831170008311700083117000840
:100080003117000831170008311700083117000830
:10009000311700083117000831170008051600084D
:1000A0003117000831170008311700083117000810
:1000B0003117000831170008191600083117000819
:1000C00031170008311700083117000831170008F0
:1000D00031170008311700083117000831170008E0
:1000E0002916000831170008311700080000000029
:1000F0000000000000000000000000000000000000
:0C01000000000000000000005FF808F1A3
:10010C0010B5054C237833B9044B13B10448AFF345
:10011C0000800123237010BD440400200000000067
:10012C00E842000808B5034B1BB103490348AFF381
:10013C00008008BD0000000048040020E8420008D0
:10014C00844641EA000313F0030349D1403A23D318
:10015C000B6803604B6843608B688360CB68C3603B
:10016C000B6903614B6943618B698361CB69C36123
:10017C000B6A03624B6A43628B6A8362CB6AC3620B
:10018C000B6B03634B6B43638B6B8363CB6BC363F3
:10019C0040304031403ADBD230320BD30B68036035
:1001AC004B6843608B688360CB68C3601030103140
:1001BC00103AF3D20C3205D351F8043B40F8043B0F
:1001CC00043AF9D2043208D0D2071CBF11F8013B13
:1001DC0000F8013B01D30B8803806046704700BFD9
:1001EC00082A13D38B07B1D010F00303AED0C3F1A0
:1001FC000403D21ADB071CBF11F8013B00F8013BCA
:10020C00A4D331F8023B20F8023B9FE7043AD9D340
:10021C00013A11F8013B00F8013BF9D20B7803705D
:10022C004B7843708B7883706046704700B585B00F
:10023C0000230193029303932248234A02604FF454
:10024C0080728260037303754FF46022C261436055
:10025C000423036101F0E6FD28BB01230193029303
:10026C000523039301A9174801F0BCFBF0B9022345
:10027C000193029301A9134801F0B4FBC8B90323FD
:10028C000193029301A90F4801F0ACFBA0B9042320
:10029C00019302930DEB03010A4801F0A3FB70B923
:1002AC0005B05DF804FB00F0D5FBD6E700F0D2FBFF
:1002BC00DDE700F0CFFBE2E700F0CCFBE7E700F076
:1002CC00C9FBEDE7600400200024014010B586B0A6
:1002DC000023029303930493059302681E4B9A42E6
:1002EC0001D006B010BD044603F56C439A6942F484
:1002FC0000729A619A6902F400720092009A9A69EB
:10030C0042F004029A619B6903F004030193019B80
:10031C001E2302930323039302A9104802F01CF836
:10032C000F48104B03600023436083608022C2603F
:10033C004FF4807202614FF480624261202282612C
:10034C00C36101F0F5FE18B9054B23625C62C8E786
:10035C0000F080FBF8E700BF0024014000080140DA
:10036C00900400200800024000B583B00A4B5A6983
:10037C0042F001025A615B6903F001030193019B96
:10038C00002202210B2001F063FE0B2001F098FEED
:10039C0003B05DF804FB00BF0010024070B588B0DC
:1003AC0000240494059406940794424B9A6942F0F5
:1003BC0010029A619A6902F010020092009A9A69EE
:1003CC0042F020029A619A6902F020020192019A8D
:1003DC009A6942F004029A619A6902F0040202924C
:1003EC00029A9A6942F008029A619B6903F0080329
:1003FC000393039B304D224648F20301284602F03A
:10040C00C4F801224FF48041284602F0BEF84CF2A9
:10041C00030304930126059606940323079304A96A
:10042C00284601F099FF4FF48063049305940696D7
:10043C0004A9284601F090FF4FF4004304931F4E8B
:10044C000596069404A91E4801F086FF0823049320
:10045C001C4B0593069404A9284601F07DFF4FF42C
:10046C00987304930596069404A9284601F074FF2A
:10047C0022462146092001F0EBFD092001F020FE67
:10048C00224621460A2001F0E3FD0A2001F018FE65
:10049C0022462146172001F0DBFD172001F010FE4B
:1004AC0022462146282001F0D3FD282001F008FE29
:1004BC0008B070BD00100240000C0140000021107B
:1004CC00000801400000111008B50B480B4B0360ED
:1004DC000B4B436000238360C3604FF48042026186
:1004EC0043618361C361036202F008FA00B908BD7D
:1004FC0000F0B0FAFBE700BFD40400200054004029
:10050C00A086010010B586B00023029303930493D8
:10051C0005930268114B9A4201D006B010BD104CE5
:10052C00A36943F00803A361A36903F008030093D4
:10053C00009BC0230293122303930323059302A968
:10054C00084801F009FFE36943F40013E361E36930
:10055C0003F400130193019BDFE700BF005400403C
:10056C0000100240000C014038B5A94B1B78012B40
:10057C0000D038BD044620280ED0102C10D0B4F575
:10058C00807F11D0B4F5004F6BD0A14B00221A70B4
:10059C00A04803F06FFBECE79F4B05221A70ECE7C9
:1005AC009D4B04221A70EAE79C4B1B78012BE9D077
:1005BC0000F06EFE0125994B1D70994B1D70994AE8
:1005CC002946284600F0ACFE974A2946022000F046
:1005DC00A7FE964A2946032000F0A2FE944A29461B
:1005EC00042000F09DFE00F09BFB924B1D70924B83
:1005FC0004221A70914B1B78AB4216D0904B1B788F
:10060C00012B19D08F4B1B78012B1CD08E4B1B78D8
:10061C00012B1FD08D4B1B78012BB3D17E4B382275
:10062C001A708A4B00221A70ACE77B4B19221A7095
:10063C00824B00221A70A5E7774B20221A70804B50
:10064C0000221A709EE7744B2C221A707D4B0022EC
:10065C001A7097E7704B34221A707B4B00221A7079
:10066C0090E76E4B1B78012B26D0022B00F0B68046
:10067C00032B00F03781042B00F06281052B84D111
:10068C00734B1B78032B00F08481042B7FF47DAF1C
:10069C006C4B1B78002B00F09A81012B7FF475AF0B
:1006AC005D4B2C221A706B4A0121022000F038FE9F
:1006BC00644B00221A7068E7654B1B78013B032BD7
:1006CC003FF663AFDFE803F00221466A00F0E0FD7D
:1006DC000225524B1D700124514B1C705E4A214661
:1006EC00204600F01DFE5D4A2146284600F018FE0B
:1006FC005B4A2146032000F013FE4E4B1D704E4BFF
:10070C0003221A7000F01AFB3FE700F0C1FD03252D
:10071C00424B1D700124424B1C70524A214620460C
:10072C0000F0FEFD504A2146022000F0F9FD4F4A30
:10073C002146284600F0F4FD4D4A2146042000F0E5
:10074C00EFFD3C4B02221A703B4B04221A7000F056
:10075C00F5FA1AE700F09CFD0425304B1D700124BE
:10076C002F4B1C70434A2146204600F0D9FD424ACB
:10077C002146022000F0D4FD404A2146032000F01F
:10078C00CFFD3F4A2146284600F0CAFD294B0322E3
:10079C001A70294B1D7000F0D1FAF6E600F078FDC6
:1007AC001E4B05221A7001241D4B1C70354A214624
:1007BC00204600F0B5FD344A2146032000F0B0FD80
:1007CC00324A2146042000F0ABFD1A4B03221A706A
:1007DC00194B04221A7000F0B1FAD6E61C4B1B78A8
:1007EC00022B57D0032B7FF4D0AE184B1B78002B69
:1007FC006DD0012B7FF4C9AE074B38221A70134B06
:10080C0000221A70224A0121042000F089FDBCE666
:10081C0001000020440700202B05002002000020CE
:10082C002E05002000430008104300081843000860
:10083C002043000803000020000000202F050020AA
:10084C00290500202C0500202D050020280500205E
:10085C002A05002064440008304300083C4300088B
:10086C0044430008504300085843000868430008FC
:10087C007043000878430008844300089443000840
:10088C00A0430008B0430008BC430008C84300085C
:10089C00E0430008544B1B7873B1012B7FF475AE09
:1008AC00524B34221A70504B00221A70504A0121BC
:1008BC00042000F035FD68E64C4B35221A700121FE
:1008CC00494B19704B4A042000F02AFD5DE6474B5A
:1008DC0039221A700121484B1970484A042000F043
:1008EC001FFD52E6464B1B78032B21D0042B23D043
:1008FC00022B7FF44AAE434B1B7873B1012B7FF470
:10090C0044AE3A4B0C221A703E4B00221A703E4AEF
:10091C000121084600F004FD37E6344B0D221A7015
:10092C000120384B1870394A014600F0F9FC2CE6CE
:10093C002E4B11221A7028E62C4B10221A7024E62A
:10094C002F4B1B78032B14D0042B7FF41EAE304B93
:10095C001B7893B1012B7FF418AE244B19221A701B
:10096C002C4A0121022000F0DBFC294B00221A70DA
:10097C000BE61E4B15221A7007E61C4B18221A7038
:10098C00254A0121022000F0CBFC214B01221A70D8
:10099C00FBE5224B1B7873B1012B7FF4F6AD134BA7
:1009AC0020221A701E4A0121022000F0B9FC1B4BB8
:1009BC0000221A70E9E50D4B21221A70194A012107
:1009CC00022000F0ADFC154B01221A70DDE5074B3F
:1009DC002D221A70144A0121022000F0A1FC134BA5
:1009EC0001221A70D1E500BF2D0500202B05002037
:1009FC00E0430008D443000828050020EC4300081D
:100A0C002A0500203005002008440008F84300089F
:100A1C002F05002028440008184400082905002050
:100A2C004444000838440008584400082C050020B1
:100A3C0008B5034B01221A70024803F006F908BDF1
:100A4C000100002044070020014B1954704700BFDF
:100A5C003405002072B6FEE700B595B028220021BF
:100A6C000DEB020003F04AFB00230593069307935A
:100A7C0008930993019302930393049301220A921E
:100A8C004FF480330B930E920222119212934FF477
:100A9C00E01313930AA802F0D7F8C8B90F230593F3
:100AAC0002210691002307934FF480620892099368
:100ABC0005A802F0FBFA68B9022301934FF4004336
:100ACC00039301A802F0CEFB30B915B05DF804FB1E
:100ADC00FFF7C0FFFFF7BEFFFFF7BCFF10B582B0FA
:100AEC0000F048FEFFF7B8FFFFF758FCFFF73CFC9F
:100AFC0000F0F0FCFFF79AFBFFF7E6FC00F096FD28
:100B0C00474C204601F08EF900F02AF900F086FCE3
:100B1C00204601F00BFA142000F050FE00F0C0F952
:100B2C0000F0E8F9204601F045F83E4A012108465C
:100B3C0000F0F6FB3C4A0121022000F0F1FB3B4A9D
:100B4C000121032000F0ECFB394A0121042000F0C4
:100B5C00E7FB00F0E5F801224FF48041354801F045
:100B6C0014FD3FE004226946204601F097F844E06A
:100B7C0002AB03EB440333F8081C090A2046FFF7C9
:100B8C0063FF0134E4B2032CF2D92B482B4B1B78B6
:100B9C00C37700F0E7F9202831D0142000F00EFEC6
:100BAC00274B1B78F3B9274B1B78DBB9264B1B78EB
:100BBC00C3B9264B1B78ABB9BDF8042040F6B8334B
:100BCC009A4220D8BDF80430B3F5967F0AD200F0D3
:100BDC0043F81F4A1368591E1160002BF9D11346B4
:100BEC001C4A1A600E4C0821204600F0FBFD2046E2
:100BFC0000F09AFF10F4007FB4D10024C3E70F4B30
:100C0C0000221A70C9E700F059F8114A1368591EEE
:100C1C001160002BF9D113460E4A1A60D2E700BFBF
:100C2C00600400200043000810430008184300082B
:100C3C0020430008000C0140340500202B05002047
:100C4C002F0500202C0500202D0500202805002054
:100C5C0004000020B6ED0B0010B500F0C3F9134BE7
:100C6C001878134B1B7898420FD2421E02EB0212DB
:100C7C00104B1A44012100F053FB0C4B1878013037
:100C8C00C0B2187000F064FB10BD5A1E02EB0212C9
:100C9C0008490A440121184600F042FB064C207812
:100CAC0000F056FB2278014B1A70EDE72A05002064
:100CBC0000000020540500200300002010B500F0B7
:100CCC0091F9134B1878134B1B7898420FD9421E8D
:100CDC0002EB0212104B1A44012100F021FB0C4BC9
:100CEC0018780138C0B2187000F032FB10BD5A1ED3
:100CFC0002EB021208490A440121184600F010FBCD
:100D0C00064C207800F024FB2278014B1A70EDE79A
:100D1C002A050020030000205405002000000020BC
:100D2C0010B50124034B1C70204600F011FB024B44
:100D3C001C7010BD2E0500202A05002010B5054B97
:100D4C0001221A70044C207800F002FB2278034B2D
:100D5C001A7010BD2E050020030000202A0500206B
:100D6C0010B5094802F02CFC084C00220121204649
:100D7C0001F00BFC01220221204601F006FC0A20A6
:100D8C0000F01CFD10BD00BFEC060020000C014063
:100D9C0000B587B08DF80F001023009301230DF1DF
:100DAC0017020DF10F01044802F041FD9DF81700E8
:100DBC0007B05DF804FB00BFEC06002070B50446DC
:100DCC000D460A4E00220221304601F0DEFB204681
:100DDC00FFF7DEFF04462846FFF7DAFF0122022167
:100DEC00304601F0D2FB204670BD00BF000C014024
:100DFC0038B50446094D00220221284601F0C5FBF6
:100E0C002046FFF7C5FFFF20FFF7C2FF0446012273
:100E1C000221284601F0B9FB204638BD000C0140E8
:100E2C00F8B504460D4616460B4F002202213846F3
:100E3C0001F0ABFB2046FFF7ABFF04461023324614
:100E4C002946064802F017FC01220221384601F01F
:100E5C009CFB2046F8BD00BF000C0140EC060020B6
:100E6C00F8B504460D4616460B4F002202213846B3
:100E7C0001F08BFB2046FFF78BFF04461023324614
:100E8C002946064802F0F5FD01220221384601F000
:100E9C007CFB2046F8BD00BF000C0140EC06002096
:100EAC0000B585B0124B93E8030002908DF80C103E
:100EBC00052202A93020FFF7B3FF05226946102056
:100ECC00FFF7CEFF0023042B09D803F110026A446C
:100EDC0012F8102CA52A02D10133DBB2F3E7052B53
:100EEC0003D1002005B05DF804FB0120FAE700BF38
:100EFC007444000838B5194C00220121204601F039
:100F0C0044FB174D052229463020FFF789FF0522A7
:100F1C0029462A20FFF784FF01212120FFF74EFFED
:100F2C0001212220FFF74AFF1A212420FFF746FF58
:100F3C0056212520FFF742FF0F212620FFF73EFF09
:100F4C000E212020FFF73AFF20213120FFF736FF3A
:100F5C0001221146204601F018FB38BD000C01405F
:100F6C007C44000838B504461D4D0022012128465A
:100F7C0001F00BFB20222146A020FFF751FF01229C
:100F8C001146284601F001FB4FF48061144801F032
:100F9C00F5FA0028F8D10720FFF72AFF044601468E
:100FAC002720FFF70BFF14F0100F04D114F0200FC3
:100FBC000DD1FF2038BDFF21E120FFF7FFFE0122FC
:100FCC004FF40041064801F0E0FA1020F2E700224D
:100FDC004FF40041024801F0D8FA2020EAE700BFA4
:100FEC00000C014008B51E4B1B78012B00D008BD2E
:100FFC001C4B1B78013B042BF9D8DFE803F0030CE6
:10100C00151E2700442218491848FFF799F8144B6D
:10101C0000221A70EBE7442215491448FFF790F8A8
:10102C000F4B00221A70E2E7442212490F48FFF7D7
:10103C0087F80B4B00221A70D9E744220E490B4853
:10104C00FFF77EF8064B00221A70D0E744220B49BA
:10105C000648FFF775F8024B00221A70C7E700BF6D
:10106C002E050020020000209805002054050020C9
:10107C00DC0500202006002064060020A8060020C5
:10108C0010B50B4C01224021204601F07EFA0122C2
:10109C008021204601F079FA00224021204601F0FF
:1010AC0074FA00228021204601F06FFA10BD00BFB7
:1010BC00000C014000B587B08DF817006423029333
:1010CC00012301930DF117020092002278210348AD
:1010DC0001F0F2FC07B05DF804FB00BFD404002063
:1010EC0000B587B08DF81700642302930123019398
:1010FC000DF11702009240227821034801F0DCFC2C
:10110C0007B05DF804FB00BFD4040020F8B5064618
:10111C000D46514B1F78012F18D0012F2DD00024D4
:10112C0035E0731E295D03EB03134C4A1344195528
:10113C000134284603F034F8A042F2D8731E03EBB6
:10114C000313464A1344FF221A55E6E70024F0E73E
:10115C00731E295D03EB0313404A134419550134E4
:10116C00284603F01DF8A042F2D8731E03EB0313BC
:10117C003A4A1344FF221A55D1E70024F0E7731EB4
:10118C00295D03EB0313354A1344195501342846E2
:10119C0003F006F8A0422FD97B1E042BF6D801A22F
:1011AC0052F823F08B110008C5110008D511000866
:1011BC00E5110008F5110008731E295D03EB0313FC
:1011CC00274A13441955E1E7731E295D03EB0313FA
:1011DC00244A13441955D9E7731E295D03EB0313F5
:1011EC00214A13441955D1E7731E295D03EB0313F0
:1011FC001E4A13441955C9E7013F042F0BD8DFE8E9
:10120C0007F0030B131B2300013E06EB0616134BD2
:10121C001E44FF233355F8BD013E06EB0616104B5A
:10122C001E44FF233355F6E7013E06EB06160D4B25
:10123C001E44FF233355EEE7013E06EB06160A4B20
:10124C001E44FF233355E6E7013E06EB0616074B1B
:10125C001E44FF233355DEE70200002098050020D2
:10126C00DC0500202006002064060020A8060020D3
:10127C0010B50C4640F0B000FFF71CFF200940F001
:10128C001000FFF717FF04F00F00FFF713FF10BD5E
:10129C0038B5002509E00020FFF722FF0134E4B245
:1012AC0014F0800FF7D00135EDB2072D05D80021D1
:1012BC002846FFF7DDFF0024F2E738BDF8B51546E8
:1012CC00461E7600F6B24F1EFF00FFB2394630467E
:1012DC00FFF7CEFF002409E0A5F120030F4A02EB33
:1012EC000313185DFFF7FCFE0134E4B2072CF3D9AD
:1012FC00701C3946C0B2FFF7BBFF00240BE0A5F110
:10130C00200304F10802054901EB0313985CFFF775
:10131C00E7FE0134E4B2072CF1D9F8BD844400088F
:10132C00F8B506460F461546002406E0E119C9B289
:10133C003046FFF7C3FF0134E4B22A5D531EDBB223
:10134C00FD2BF3D929463046FFF7E0FEF8BD00002F
:10135C002DE9F04184B00646FFF744FE002536E047
:10136C000F2B08D803F110026A44FF2102F8101C5D
:10137C000133DBB2F4E7771E7F00FFB24FEAC508FA
:10138C005FFA88F841463846FFF772FF002408E000
:10139C0004F110036B4413F8100CFFF7A1FE013499
:1013AC00E4B2072CF4D9781C4146C0B2FFF760FFB9
:1013BC00002408E004F118036B4413F8100CFFF739
:1013CC008FFE0134E4B2072CF4D90135EDB2731E53
:1013DC0003EB03130E4A13445B5DFF2B13D0002B5E
:1013EC00BED000220F2AC6D8A3F12001094800EB79
:1013FC000111895C02F110006844C94300F8101C0B
:10140C000132D2B2EEE7044B1E7004B0BDE8F0819D
:10141C0054050020844400082A05002008B54FF428
:10142C00967000F0CBF9002204E00133B3F57A7F1B
:10143C00FBD30132B2F57A7F01D20023F6E7FFF736
:10144C001FFEAE20FFF736FED520FFF733FE8020BF
:10145C00FFF730FEA820FFF72DFE3F20FFF72AFEF6
:10146C00D320FFF727FE0020FFF724FE4020FFF7D4
:10147C0021FEA120FFF71EFEC820FFF71BFEDA207D
:10148C00FFF718FE1220FFF715FE8120FFF712FE62
:10149C00CF20FFF70FFED920FFF70CFEF120FFF74E
:1014AC0009FEDB20FFF706FE3020FFF703FEA42029
:1014BC00FFF700FEA620FFF7FDFD8D20FFF7FAFDDC
:1014CC001420FFF7F7FDAF20FFF7F4FDFFF7E0FE68
:1014DC0008BD000008B50E480E4B03604FF4827334
:1014EC00436000238360C360036143614FF4007267
:1014FC0082612022C2610362436283620A23C36257
:10150C0002F05EF800B908BDFFF7A4FAFBE700BFD4
:10151C00EC0600200030014010B586B00023029389
:10152C000393049305930268164B9A4201D006B0BC
:10153C0010BD03F560439A6942F480529A619A692E
:10154C0002F480520092009A9A6942F004029A6165
:10155C009B6903F004030193019BA02302930223D4
:10156C00039303230593084C02A9204600F0F4FED4
:10157C004023029300230393049302A9204600F016
:10158C00EBFED4E7003001400008014082B00A4B6A
:10159C009A6942F001029A619A6902F00102009282
:1015AC00009ADA6942F08052DA61DB6903F0805309
:1015BC000193019B02B0704700100240FEE7FEE76A
:1015CC00FEE7FEE7FEE770477047704708B500F08E
:1015DC00E3F808BD08B5082000F0DEFF08BD08B52B
:1015EC00102000F0D9FF08BD08B5024800F012FE2B
:1015FC0008BD00BF9004002008B5202000F0CCFFEF
:10160C004FF4807000F0C8FF08BD000008B5024818
:10161C0002F068FB08BD00BF4407002008B54FF47A
:10162C00004000F0B9FF08BD7047000000B587B05E
:10163C00002302930393049305930093019315489D
:10164C00154A026040F2E7324260836041F61F4265
:10165C00C2600361836102F03DFC90B94FF480538A
:10166C00029302A90B4802F06DFC68B900230093A9
:10167C0001936946074802F0E5FC40B907B05DF8F4
:10168C0004FBFFF7E7F9E9E7FFF7E4F9EEE7FFF70B
:10169C00E1F9F3E7440700200008004002680E4B14
:1016AC009A4200D0704700B583B003F50233DA6973
:1016BC0042F00402DA61DB6903F004030193019B3D
:1016CC00002203211E2000F0C3FC1E2000F0F8FCB9
:1016DC0003B05DF804FB00BF00080040FFF7A4FF57
:1016EC000B480C490C4A002302E0D458C450043374
:1016FC00C4188C42F9D3094A094C002301E0136049
:10170C000432A242FBD302F0D5FCFFF7E7F9704795
:10171C000000002044040020C44A000844040020B7
:10172C0094070020FEE7000010B504460E4B187815
:10173C004FF47A73B3FBF0F30C4A1068B0FBF3F080
:10174C0000F0CCFC68B90F2C01D901200AE0002272
:10175C0021464FF0FF3000F07BFC054B1C60002055
:10176C0000E0012010BD00BF0C000020080000208C
:10177C001000002008B5074A136843F010031360EB
:10178C00032000F053FC0220FFF7CEFFFFF7FEFE14
:10179C00002008BD00200240034A1168034B1B784F
:1017AC000B441360704700BF8C0700200C00002016
:1017BC00014B1868704700BF8C07002038B50446F1
:1017CC00FFF7F6FF0546B4F1FF3F02D0044B1B7840
:1017DC001C44FFF7EDFF401BA042FAD338BD00BFFD
:1017EC000C000020F0B583B005460C460023019395
:1017FC00FFF7DEFF2B689A6812F4807F23D107462F
:10180C005A6812F4807F03D1DB6A13F4700F29D06D
:10181C00504B1E68022001F0B1FDB6FBF0F62B68B0
:10182C0019694D4A114236D1D96802F15C42114214
:10183C0031D11969494A114240D1DA68484B1A42F0
:10184C003ED0292041E0AB6A43F02003AB62002379
:10185C0085F82430012003B0F0BD2B681B6813F011
:10186C00020F0FD02B681B6813F0020F4FD1B4F18D
:10187C00FF3FF7D0002CF0D0FFF79AFFC31BA34219
:10188C00F0D9EAE7AB6A43F00403AB62002385F8B6
:10189C0024300320DFE71969304A114204D1D9689A
:1018AC0002F16E4211420DD019692E4A0A405AB902
:1018BC00DA682C4B13405BB1FC2006E0292004E0D5
:1018CC00142002E0542000E0FC2000FB06F607E0A8
:1018DC005420FAE7019BB34210D3019B01330193CF
:1018EC00019BB34213D2B4F1FF3FF6D0002CF1D0E0
:1018FC00FFF75EFFC01BA042EFD9EBE7AB6A43F0EA
:10190C000403AB62002385F824300320A3E72B6883
:10191C006FF012021A60AB6A43F40073AB622B686F
:10192C009B6803F46023B3F5602F01D0002092E78D
:10193C00287B60B9AB6A23F48073AB62AB6A13F497
:10194C00805F88D1AB6A43F00103AB6283E7002070
:10195C0081E700BF080000202449922492244912F8
:10196C009224490049922400704708B5436A9A6A48
:10197C0012F0500F1ED19A6A42F400729A621A68E1
:10198C00926802F46022B2F5602F03D01846FFF77C
:10199C00EBFF08BD1A7B002AF8D19A6A22F48072F8
:1019AC009A629A6A12F4805FF0D19A6A42F001024C
:1019BC009A62EBE71B6A1B6B9847EAE7704708B51E
:1019CC00406AFFF7FBFF08BD704708B5406A836AA1
:1019DC0043F040038362C36A43F00403C362FFF71E
:1019EC00F3FF08BD30B482B00022019290F824209D
:1019FC00012A00F091800346012280F824204A68D5
:101A0C00062A2DD80468606B02EB8202053A4FF06F
:101A1C001F0C0CFA02FC20EA0C000D6805FA02F20D
:101A2C00024362630A68092A3AD91C68E06802EB2F
:101A3C0042021E3A4FF0070C0CFA02FC20EA0C0092
:101A4C008D6805FA02F20243E2600A68103A012A34
:101A5C0036D90020002283F8242002B030BC704715
:101A6C000C2A0ED80568286B02EB8202233A1F243D
:101A7C00944020EA04000C6804FA02F202432A6340
:101A8C00D0E70568E86A02EB8202413A1F249440D1
:101A9C0020EA04000C6804FA02F20243EA62C1E78D
:101AAC001C68206902EB42024FF0070C0CFA02FC96
:101ABC0020EA0C008D6805FA02F202432261C4E7A9
:101ACC001A681648824205D09A6A42F020029A623D
:101ADC000120BFE7906810F4000F1BD1906840F410
:101AEC00000090600A68102A01D00020B2E70C4A6E
:101AFC0012680C49A1FB0212920C02EB82025200FA
:101B0C00019202E0019A013A0192019A002AF9D15C
:101B1C0000209FE700209DE702209EE70024014063
:101B2C000800002083DE1B43806A704730B583B009
:101B3C000023019303689A6812F0010F33D1044615
:101B4C009A6842F001029A60184B1B68184AA2FB73
:101B5C0003239B0C019302E0019B013B0193019B2E
:101B6C00002BF9D1FFF724FE054623689B6813F080
:101B7C00010F16D1FFF71CFE431B022BF5D923686E
:101B8C009B6813F0010FF0D1A36A43F01003A3621A
:101B9C00E36A43F00103E362002384F8243001205C
:101BAC0002E0002000E0002003B030BD080000205F
:101BBC0083DE1B4390F82430012B68D010B504460B
:101BCC00012380F82430FFF7B1FF00285BD1A36A12
:101BDC0023F4407323F0010343F48073A36223685E
:101BEC002C4A934227D0A26A22F48012A2625A682D
:101BFC0012F4806F05D0A26A22F4405242F4805253
:101C0C00A262A26A12F4805F2BD0E26A22F0060272
:101C1C00E262002284F824206FF002021A6023682A
:101C2C009A6802F46022B2F5602F1DD09A6842F4D3
:101C3C0080129A602AE0A2F58062526812F4702F2A
:101C4C00D1D0A26A42F48012A262134A526812F4F2
:101C5C00806FD6D0A26A22F4405242F48052A26223
:101C6C00CFE70022E262D4E70A4A934204D09A6892
:101C7C0042F4A0029A6009E0A2F58062526812F464
:101C8C00702FD3D1F3E7002384F8243010BD022049
:101C9C00704700BF0028014000240140F8B50446FD
:101CAC000D46164601684448814259D0434B99422F
:101CBC0056D094F82430012B7CD0012384F82430A6
:101CCC002046FFF733FF074600286ED1A16A21F4A6
:101CDC00706121F0010141F48071A1622268374BDF
:101CEC009A4244D0A36A23F48013A362536813F47A
:101CFC00806F05D0A36A23F4405343F48053A3624E
:101D0C00A36A13F4805F48D0E36A23F00603E3620E
:101D1C00002384F82430236A294A9A62236A294AC8
:101D2C00DA62236A284A1A6323686FF002021A6087
:101D3C002268936843F480739360216833462A4683
:101D4C004C31206A00F02AFA23689A6802F4602267
:101D5C00B2F5602F24D09A6842F480129A6027E082
:101D6C00154B5B6813F4702FA3D0012720E0A3F56B
:101D7C0080635B6813F4702FB4D0A36A43F48013B0
:101D8C00A3620D4B5B6813F4806FB9D0A36A23F484
:101D9C00405343F48053A362B2E70023E362B7E7F6
:101DAC009A6842F4A0029A6002E0002384F824307E
:101DBC003846F8BD0227FBE700240140002801400B
:101DCC0077190008CB190008D719000838B5036833
:101DDC009A6812F0010F01D1002038BD04469A68B0
:101DEC0022F001029A60FFF7E3FC054623689B682A
:101DFC0013F0010F13D0FFF7DBFC431B022BF5D9BB
:101E0C0023689B6813F0010FF0D0A36A43F0100312
:101E1C00A362E36A43F00103E3620120DDE70020E3
:101E2C00DBE7000000287BD070B50446836A002BEA
:101E3C004DD02046FFF7CAFFA36A13F0100369D1F7
:101E4C00002867D1A26A22F4885222F0020242F0E2
:101E5C000202A2626268E1690A43217B42EA410202
:101E6C00A568B5F5807F02D0012D36D01D46267DA4
:101E7C00012E35D02668716821F4694129437160BF
:101E8C002568AE68274931401143A960A168B1F5B6
:101E9C00807F01D0012902D12369013B1B052568F4
:101EAC00E96A21F470010B43EB62236899681E4BBD
:101EBC000B409A4225D0A36A23F0120343F010037F
:101ECC00A362E36A43F00103E362012027E0C362EB
:101EDC0080F82430FEF7FAF9ABE74FF48075C6E7CB
:101EEC0031B9A169013945EA413141F40065C1E7D5
:101EFC00A16A41F02001A162E16A41F00101E162B5
:101F0C00B8E70023E362A36A23F0030343F0010361
:101F1C00A36204E0A36A43F01003A362012070BD26
:101F2C0001207047FDF7E1FFFE0E1FFF70B582B078
:101F3C000023019390F82430012B72D00446012326
:101F4C0080F82430FFF742FF2046FFF7EFFD0546EF
:101F5C0028B1002384F82430284602B070BDA36A4F
:101F6C0023F4885323F0020343F00203A3622E4BA5
:101F7C001E68022001F002FAB6FBF0F6760001961C
:101F8C0002E0019B013B0193019B002BF9D12268DC
:101F9C00936843F008039360FFF70AFC0646236836
:101FAC009A6812F0080F14D0FFF702FC801B0A2865
:101FBC00F5D923689B6813F0080FF0D0A36A23F0BF
:101FCC00120343F01003A362002384F8243001258C
:101FDC00C2E79A6842F004029A60FFF7E9FB0646F2
:101FEC0023689B6813F0040F14D0FFF7E1FB801BF0
:101FFC000A28F5D923689B6813F0040FF0D0A36A64
:10200C0023F0120343F01003A362002384F824305E
:10201C000125A1E7A36A23F0030343F00103A362A4
:10202C0097E7022598E700BF08000020074AD3680D
:10203C0023F4E0631B041B0C000200F4E060034378
:10204C0043F0BF6343F40033D360704700ED00E00E
:10205C0000B5194BDB68C3F30223C3F1070CBCF1C9
:10206C00040F28BF4FF0040C03F1040EBEF1060F51
:10207C0018D9033B4FF0FF3E0EFA0CFC21EA0C0181
:10208C0099400EFA03F322EA0303194300280BDBF1
:10209C000901C9B200F1604000F5614080F80013FD
:1020AC005DF804FB0023E5E700F00F000901C9B25D
:1020BC00024B1954F4E700BF00ED00E014ED00E012
:1020CC00002807DB00F01F02400901239340024A5D
:1020DC0042F82030704700BF00E100E00138B0F159
:1020EC00807F0BD24FF0E0235861054AF02182F833
:1020FC0023100020986107221A6170470120704755
:10210C0000ED00E030B40124056CAC40C56B6C6094
:10211C00046863604368102B05D0036899600368FA
:10212C00DA6030BC704703689A600368D960F8E7DE
:10213C0060B310B402460168154B0B441548A0FB64
:10214C0003031B099B001364134BD363022382F814
:10215C002130086820F47F5020F0300053689468D8
:10216C002343D46823431469234354692343946958
:10217C002343D469234303430B6000209063012362
:10218C0082F8213082F8200010BC70470120704783
:10219C00F8FFFDBFCDCCCCCC0000024038B50446D6
:1021AC0090F82000012832D0012084F8200094F807
:1021BC002100C0B2012804D0002384F82030022072
:1021CC0038BD022084F821000020A063256828680F
:1021DC0020F0010028602046FFF794FFE36A5BB112
:1021EC002268136843F00E0313602268136843F0EF
:1021FC00010313600020E3E72268136823F0040353
:10220C0013602268136843F00A031360EDE70220A1
:10221C00D6E7000038B5C36B1A6804682568016CF2
:10222C0004238B40134235D015F0040F32D02368B1
:10223C0013F0200F03D1236823F0040323600368F9
:10224C00434A934214D01432934218D0143293421E
:10225C0017D01432934217D01432934217D0143241
:10226C00934202D04FF0806203E04FF4800200E012
:10227C000422384B5A60C36A03B1984738BD4022D8
:10228C00F7E74FF48062F4E74FF48042F1E74FF444
:10229C008022EEE702238B4013423CD015F0020F54
:1022AC0039D0236813F0200F06D1236823F00A03DA
:1022BC002360012380F821300368254A934214D00F
:1022CC00143293421CD0143293421BD014329342DA
:1022DC001BD0143293421BD01432934202D04FF0D5
:1022EC00007203E04FF4001200E00222194B5A6016
:1022FC00002380F82030836A002BBFD09847BDE7BD
:10230C002022F3E74FF40072F0E74FF40052EDE7B0
:10231C004FF40032EAE7082303FA01F11142ADD081
:10232C0015F0080FAAD0236823F00E032360026C6B
:10233C00C16B012303FA02F24A60836380F82130F7
:10234C00002380F82030036B002B97D0984795E73B
:10235C00080002400000024070B582B00024A44680
:10236C00A6E0804DAA4210D007D97F4DAA420CD0CE
:10237C0005F58035AA4208D013E0A5F58015AA42D0
:10238C0003D005F57025AA4207D18A68002A58D0D7
:10239C00012A51D04361082403E0A5F58015AA4217
:1023AC00F3D0BEF1FF0F4ED80646BEF1FF0F4CD84E
:1023BC004FEA8C0233680F25954023EA050304FA93
:1023CC0002F2134333604B6813F0805F6ED0674B9F
:1023DC009A6942F001029A619B6903F0010301932F
:1023EC00019B4FEA9C02951C614B53F825600CF045
:1023FC0003039D000F23AB4026EA03065D4B984276
:10240C0029D003F58063984200F08E8003F5806339
:10241C00984200F08B8003F58063984219D0042316
:10242C001AE0CC68BDE7CC680434BAE7CC68083451
:10243C00B7E7CC680C34B4E703610824B1E7002497
:10244C00AFE70424ADE7061DAFE7ACF1080292003C
:10245C00B0E7032300E00023AB4033430232444D8A
:10246C0045F822304B6813F4801F61D0424A9368C0
:10247C0043EA0E0393604B6813F4001F5ED03E4A90
:10248C00D36843EA0E03D3604B6813F4003F5BD070
:10249C00394A536843EA0E0353604B6813F4803F88
:1024AC0058D0354A136843EA0E0313600CF1010C43
:1024BC000A6832FA0CF353D0012303FA0CF302EA44
:1024CC00030E33EA0202F1D14A68122A3FF649AFF1
:1024DC00122A3FF666AF01A555F822F097230008A3
:1024EC002F240008392400084B240008AF230008CF
:1024FC00AF230008AF230008AF230008AF23000868
:10250C00AF230008AF230008AF230008AF23000857
:10251C00AF230008AF230008AF230008AF23000847
:10252C00332400083F240008012395E7022393E796
:10253C00114A936823EA0E0393609CE70E4AD36812
:10254C0023EA0E03D3609FE70B4A536823EA0E037A
:10255C005360A2E7084A136823EA0E031360A5E749
:10256C0002B070BD000022100000311000100240BB
:10257C00000001400008014000040140836819423A
:10258C0001D001207047002070470AB101617047EB
:10259C00090401617047000008B5054B5B690342F3
:1025AC0000D108BD024B5861FDF7DEFFF9E700BF13
:1025BC000004014003685A6912F4806F01D10020B5
:1025CC0070476FF480625A6100230363202280F805
:1025DC003D2080F83E30026C42F00402026480F828
:1025EC003C30012070472DE9F04106460C46174659
:1025FC0098463BE0FFF7DCF8069BC01A404502D832
:10260C00B8F1000F32D1012D18D033689B6924EA40
:10261C0003039BB2B3FA83F35B099F4226D10023D9
:10262C003363202286F83D2086F83E30326C42F02F
:10263C002002326486F83C30012027E033685B6965
:10264C0024EA03039BB2B3FA83F35B09E5E733682F
:10265C005B6924EA030C1FFA8CFCBCFA8CFC4FEA75
:10266C005C1C674511D1B8F1FF3FC3D1C4F30745DA
:10267C00012DECD033689B6924EA030C1FFA8CFC07
:10268C00BCFA8CFC4FEA5C1CEBE70020BDE8F08147
:10269C002DE9F84305460E469046994653E01A68D4
:1026AC0042F400721A602B686FF480625A61002346
:1026BC002B63202285F83D2085F83E302A6C42F0B1
:1026CC0004022A6485F83C3001204AE0FFF770F8D8
:1026DC00A0EB0900404502D8B8F1000F33D1012F0F
:1026EC0017D02B689B6926EA03039BB2003B18BFEB
:1026FC00012343B300232B63202285F83D2085F86A
:10270C003E302A6C42F020022A6485F83C300120CD
:10271C0027E02B685B6926EA03039BB2003B18BFDA
:10272C000123E6E72B689C6926EA0404A4B2003C6A
:10273C0018BF0124A4B12B685A6912F4806FAED172
:10274C00B8F1FF3FC2D1C6F30747012FEAD12B687E
:10275C005C6926EA0404A4B2003C18BF0124E9E732
:10276C000020BDE8F88370B504460D461646236874
:10277C005B6913F0800F21D12046FFF71BFFF8B9DE
:10278C00B5F1FF3FF3D0FFF713F8801BA84201D837
:10279C00002DECD123685B6913F0800FE7D1002387
:1027AC002363202284F83D2084F83E30226C42F0D2
:1027BC002002226484F83C30012000E0002070BD2F
:1027CC000120FCE72DE9F04385B004460D46914607
:1027DC001F46DDF830800D9E0368196841F4807146
:1027EC0019600096434600224FF00111FFF7FBFEE3
:1027FC0060B9236805F0FE051D6133464246264943
:10280C002046FFF745FF68B1012008E023681B68EC
:10281C0013F4807F02D04FF400732364032005B0BF
:10282C00BDE8F0830023039323685A6903929B69E4
:10283C000393039B324641462046FFF794FF30B981
:10284C00012F0FD123685FFA89F61E61E7E7236C2D
:10285C00042B01D00120E2E72268136843F40073D3
:10286C001360F7E723684FEA19221A613246414692
:10287C002046FFF778FF20B923685FFA89F61E61BE
:10288C00CDE7236C042B01D00120C8E72268136824
:10289C0043F400731360F7E70200010070B50446BF
:1028AC000D46164623685B6913F0040F21D12046B0
:1028BC00FFF780FEF8B9B5F1FF3FF3D0FEF778FFD4
:1028CC00801BA84201D8002DECD123685B6913F062
:1028DC00040FE7D100232363202284F83D2084F8E1
:1028EC003E30226C42F02002226484F83C300120FD
:1028FC0000E0002070BD0120FCE70000002800F083
:10290C00CC8070B5044690F83D30002B77D0242352
:10291C0084F83D302268136823F0010313602268A9
:10292C00136843F4004313602268136823F40043D4
:10293C00136000F077FC62685A4B9A4264D85A4B89
:10294C0098428CBF00230123002B40F0A8805749EC
:10295C00A1FB00318B0C25686A6822F03F0242EA29
:10296C0091426A6021680A6A22F03F0266684D4D06
:10297C00AE424FD8013313430B622168CA6922F46B
:10298C004F4222F0FF026668464B9E424CD8431ED3
:10299C007600B3FBF6F3013340F6FC70034278D0BB
:1029AC00C3F30B031343CB6121680B6823F0C00303
:1029BC00E269206A024313430B6021688B6823F49D
:1029CC00034323F0FF032269E068024313438B6047
:1029DC002168CB6823F0FF036269A06902431343AB
:1029EC00CB602268136843F001031360002020645D
:1029FC00202384F83D30206384F83E0070BD80F8BD
:102A0C003C30FDF77FFD82E7294B98428CBF0023B9
:102A1C00012399E74FF4967505FB03F3254DA5FBB0
:102A2C0003539B090133A6E7A368BBB9451E06EB0C
:102A3C00460CB5FBFCF50135C5F30B05B5FA85F570
:102A4C006D0945BBC3B9013806EB4603B0FBF3F384
:102A5C000133C3F30B0343F40043A3E7451E06EB1A
:102A6C00860C0CEB8C0CB5FBFCF50135C5F30B059A
:102A7C00B5FA85F56D09E4E7013806EB860303EB3F
:102A8C008303B0FBF3F30133C3F30B0343F4404371
:102A9C0088E7042386E7012384E70120704701209F
:102AAC00ACE700BFA08601007F841E0083DE1B43C1
:102ABC00FF083D00D34D62102DE9F04383B004466E
:102ACC000F46904699460C9EFEF772FE054694F80A
:102ADC003D00C0B2202803D0022003B0BDE8F08333
:102AEC000095192301224B492046FFF77CFD002855
:102AFC0040F0898094F83C30012B00F08680012353
:102B0C0084F83C3023681A6812F0010F03D11A685C
:102B1C0042F001021A602268136823F40063136008
:102B2C00212384F83D30402384F83E300023236475
:102B3C000A9B6362BDF82C306385638D2385364B0D
:102B4C00E362019500964B46424639462046FFF714
:102B5C0039FE00285BD1238D002B35D02A46314617
:102B6C002046FFF700FE20BB626A236812781A61C8
:102B7C00626A531C6362218D013989B22185638D90
:102B8C009BB2013B9BB263852368586910F0040F1C
:102B9C00E1D00029DFD052781A61636A0133636295
:102BAC00238D013B2385638D9BB2013B9BB26385D7
:102BBC00D1E7236C042B01D001208EE72268136827
:102BCC0043F400731360F7E72A4631462046FFF7BB
:102BDC0065FE50B1236C042B01D001207DE72268E7
:102BEC00136843F400731360F7E72268136843F427
:102BFC0000731360202384F83D30002384F83E30AA
:102C0C0084F83C3069E7022067E7022065E7012081
:102C1C0063E700BF020010000000FFFF82B0084B0A
:102C2C001B68084AA2FB03235B0A00FB03F3019316
:102C3C0000BF019B5A1E0192002BF9D102B07047C4
:102C4C0008000020D34D6210002800F0F18170B50F
:102C5C0082B00446036813F0010F2CD0994B5B68CB
:102C6C0003F00C03042B1DD0964B5B6803F00C0394
:102C7C00082B12D06368B3F5803F41D0002B55D19F
:102C8C0003F1804303F504331A6822F480321A608E
:102C9C001A6822F480221A6037E08A4B5B6813F4BE
:102CAC00803FE7D0874B1B6813F4003F03D0636869
:102CBC00002B00F0BF81236813F0020F75D0814BFD
:102CCC005B6813F00C0F5FD07E4B5B6803F00C035A
:102CDC00082B54D02369002B00F08A807A4B0122F8
:102CEC001A60FEF765FD0546764B1B6813F0020F64
:102CFC0075D1FEF75DFD401B0228F5D903209EE13E
:102D0C00704A136843F480331360636843B3FEF76F
:102D1C004FFD05466B4B1B6813F4003FCBD1FEF700
:102D2C0047FD401B6428F5D9032088E1B3F5A02F9B
:102D3C0009D0644B1A6822F480321A601A6822F4A3
:102D4C0080221A60E1E703F18043A3F53C331A6853
:102D5C0042F480221A601A6842F480321A60D4E776
:102D6C00FEF726FD0546574B1B6813F4003FA2D017
:102D7C00FEF71EFD401B6428F5D903205FE1514B83
:102D8C005B6813F4803FA5D14E4B1B6813F0020F08
:102D9C0003D02369012B40F04F814A4A136823F07A
:102DAC00F803616943EAC1031360236813F0080F49
:102DBC0033D0A369002B5CD0434B0122C3F8802491
:102DCC00FEF7F6FC05463F4B5B6A13F0020F21D170
:102DDC00FEF7EEFC401B0228F5D903202FE1394AFF
:102DEC00136823F0F803616943EAC1031360DCE75D
:102DFC00354B00221A60FEF7DBFC0546314B1B6895
:102E0C0013F0020FD1D0FEF7D3FC401B0228F5D9EA
:102E1C00032014E10120FFF701FF236813F0040FD6
:102E2C0000F09680274BDB6913F0805F34D1254B83
:102E3C00DA6942F08052DA61DB6903F08053019366
:102E4C00019B0125214B1B6813F4807F26D0E3687E
:102E5C00012B3DD0002B53D103F1804303F50433F8
:102E6C001A6A22F001021A621A6A22F004021A6229
:102E7C0033E0154B0022C3F88024FEF799FC05467D
:102E8C00104B5B6A13F0020FC7D0FEF791FC401B8E
:102E9C000228F5D90320D2E00025D3E70B4A1368AA
:102EAC0043F480731360FEF783FC0646074B1B68E4
:102EBC0013F4807FCBD1FEF77BFC801B6428F5D903
:102ECC000320BCE0001002400000424200700040B1
:102EDC005F4A136A43F001031362E36833B3FEF7EE
:102EEC0067FC06465A4B1B6A13F0020F2FD1FEF7F4
:102EFC005FFC801B41F288339842F3D903209EE09B
:102F0C00052B09D0524B1A6A22F001021A621A6A76
:102F1C0022F004021A62E0E74D4B1A6A42F00402F6
:102F2C001A621A6A42F001021A62D6E7FEF740FCF6
:102F3C000646474B1B6A13F0020F08D0FEF738FC0D
:102F4C00801B41F288339842F3D9032077E0E5B92E
:102F5C00E369002B72D03E4A526802F00C02082A38
:102F6C0056D0022B17D03B4B00221A66FEF720FCE2
:102F7C000446374B1B6813F0007F47D0FEF718FC54
:102F8C00001B0228F5D9032059E0314AD36923F0FC
:102F9C008053D361DCE72F4B00221A66FEF708FC46
:102FAC0005462B4B1B6813F0007F06D0FEF700FC88
:102FBC00401B0228F5D9032041E0236AB3F5803F7A
:102FCC001AD023494B6823F47413226A606A0243B3
:102FDC0013434B601F4B01221A66FEF7E9FB0446B4
:102FEC001B4B1B6813F0007F0ED1FEF7E1FB001B9F
:102FFC000228F5D9032022E0154A536823F4003344
:10300C00A1680B435360DCE7002018E0002016E0B9
:10301C00012B16D00E4B5B6803F48031226A91426F
:10302C0011D103F47013626A93420ED1002006E0B2
:10303C0001207047012002E0012000E0002002B0D6
:10304C0070BD0120FBE70120F9E70120F7E700BF85
:10305C0000100240000042420F4B5B6803F00C0270
:10306C00082A01D00D487047C3F383420C49885C91
:10307C0013F4803F0BD0084B5B68C3F34043094A01
:10308C00D35C064A02FB00F0B0FBF3F07047064B32
:10309C0003FB00F0704700BF0010024000127A00E2
:1030AC008C4A00089C4A000800093D00002800F0EA
:1030BC00A08070B50D460446524B1B6803F0070305
:1030CC008B420BD24F4A136823F007030B43136058
:1030DC00136803F007038B4240F08D80236813F0D4
:1030EC00020F17D013F0040F04D0474A536843F46F
:1030FC00E0635360236813F0080F04D0424A53680E
:10310C0043F460535360404A536823F0F003A168C2
:10311C000B435360236813F0010F31D06368012B0C
:10312C0020D0022B25D0384A126812F0020F64D03E
:10313C0035494A6822F0030213434B60FEF738FB13
:10314C000646314B5B6803F00C036268B3EB820FED
:10315C0016D0FEF72DFB801B41F288339842F0D934
:10316C00032045E0284A126812F4003FE0D1012008
:10317C003EE0254A126812F0007FD9D1012037E0D9
:10318C00204B1B6803F00703AB420AD91D4A136896
:10319C0023F007032B431360136803F00703AB42C0
:1031AC002DD1236813F0040F06D0174A536823F46B
:1031BC00E063E1680B435360236813F0080F07D0FA
:1031CC00114A536823F46053216943EAC1035360E5
:1031DC00FFF742FF0C4B5B68C3F303130B4AD35C42
:1031EC00D8400B4B18600B4B1868FEF79DFA00206B
:1031FC0070BD012070470120FAE70120F8E701209B
:10320C00F6E700BF0020024000100240744A00089C
:10321C000800002010000020014B1868704700BF08
:10322C000800002008B5FFF7F7FF044B5B68C3F3F9
:10323C000223034AD35CD84008BD00BF00100240F3
:10324C00844A000808B5FFF7E7FF044B5B68C3F33B
:10325C00C223034AD35CD84008BD00BF0010024013
:10326C00844A000870B582B00446036813F0010F5D
:10327C0036D03F4BDB6913F0805F49D13C4BDA69A8
:10328C0042F08052DA61DB6903F080530193019BB9
:10329C000125384B1B6813F4807F3BD0344B1B6AE1
:1032AC0013F4407313D0626802F440729A420ED049
:1032BC002F4A136A23F440702F490126C1F8406449
:1032CC000026C1F84064106213F0010F36D1284A71
:1032DC00136A23F4407361680B431362002D3ED1D3
:1032EC00236813F0020F06D0214A536823F440439D
:1032FC00A1680B435360236813F0100F34D01C4AA1
:10330C00536823F48003E1680B43536000202CE0E6
:10331C000025BEE7174A136843F480731360FEF769
:10332C0047FA0646134B1B6813F4807FB6D1FEF7A1
:10333C003FFA801B6428F5D9032016E0FEF738FA13
:10334C0006460B4B1B6A13F0020FC0D1FEF730FA86
:10335C00801B41F288339842F3D9032005E0D369EE
:10336C0023F08053D361BBE7002002B070BD00BFD7
:10337C0000100240007000400000424208B50228D4
:10338C004ED0102803D0012828D0002008BD2B4B8C
:10339C005A68186810F08070F8D0C2F3834328493B
:1033AC00C85C12F4803F15D0244B5B68C3F34043D8
:1033BC00244AD25C244BB3FBF2F303FB00F01F4B0B
:1033CC005B6813F4800FE1D14000204BA3FB00306D
:1033DC004008DBE71E4B03FB00F0F0E7174B1B6AC2
:1033EC0040F202321A40B2F5817F24D003F44073CC
:1033FC00B3F5007F04D0B3F5407F09D00020C5E7BA
:10340C000E4A526A12F0020FF5D049F64040BDE761
:10341C000A4B186810F40030B8D04FF22440B5E7CE
:10342C00FFF710FF054B5B68C3F3813301335B007F
:10343C00B0FBF3F0AAE74FF40040A7E700100240FE
:10344C00A04A0008B04A000800127A00ABAAAAAA47
:10345C0000093D002DE9F04782B005468846174625
:10346C001E46FEF7A5F90A9B1B1A03EB0609FEF78D
:10347C009FF982462B4B1B68C3F3CB3309FB03F339
:10348C0001932B689C6838EA04030CBF4FF0010CC5
:10349C004FF0000CBC4540D0B6F1FF3FF1D0FEF729
:1034AC0087F9A0EB0A0048450AD2B9F1000F07D002
:1034BC00019A02B14A46019B013B01939146E0E718
:1034CC002A68536823F0E00353606B68B3F5827F7E
:1034DC000BD0AB6AB3F5005F14D0012385F85130E3
:1034EC00002385F85030032018E0AB68B3F5004F8B
:1034FC0002D0B3F5806FECD12A68136823F0400337
:10350C001360E6E72A68136823F4005313602A68F3
:10351C00136843F400531360DFE7002002B0BDE8EA
:10352C00F08700BF0800002010B582B004460B469F
:10353C00009200228021FFF78DFF08B902B010BD68
:10354C00636D43F0200363650320F7E710B582B089
:10355C0004460B464168B1F5827F10D06168B1F525
:10356C00827F03D1A168B1F5806F15D00092002243
:10357C0080212046FFF76EFFE0B902B010BD8168D4
:10358C00B1F5004F02D0B1F5806FE7D1206801682A
:10359C0021F040010160E1E7009200220121204668
:1035AC00FFF758FF0028E8D0636D43F020036365F4
:1035BC000320E2E7636D43F0200363650320DCE73F
:1035CC00002856D010B50446436A33B94368B3F5A6
:1035DC00827F05D00023C36102E0002303614361B5
:1035EC000023A36294F85130002B3CD0022384F8C2
:1035FC0051302268136823F040031360636803F4AE
:10360C008273A26802F404421343E26802F400627B
:10361C001343226902F002021343626902F00102B1
:10362C001343A26902F400721343E26902F03802F8
:10363C001343226A02F080021343A26A02F400527E
:10364C00216813430B60638B226803F004035360FF
:10365C002268D36923F40063D361002060650123E1
:10366C0084F8513010BD84F850302046FDF754FFDB
:10367C00BCE7012070472DE9F04383B01D4690F85C
:10368C005030012B00F0D18004468846914601232E
:10369C0080F85030FEF78CF8074694F85160F6B27B
:1036AC00012E40F0BA80B8F1000F00F0B780B9F1EC
:1036BC00000F00F0B380032384F8513000236365BE
:1036CC00C4F83080A4F83490A4F83690A363A38790
:1036DC00E38763642364A368B3F5004F1ED02368AB
:1036EC001A6812F0400F03D11A6842F040021A60B7
:1036FC00E368B3F5006F1CD0636813B1B9F1010F27
:10370C0055D1226B236812781A73236B0133236310
:10371C00E38E9BB2013B9BB2E38648E022681368C0
:10372C0023F0400313602268136843F48043136052
:10373C00D5E7636813B1B9F1010F15D1226B23687A
:10374C001288DA60236B02332363E38E9BB2013B56
:10375C009BB2E38608E0FEF72BF8C01BA84202D30D
:10376C00B5F1FF3F15D1A5B1E38E9BB2002B3CD038
:10377C0023689A6812F0020FEDD0226B1288DA607F
:10378C00236B02332363E38E9BB2013B9BB2E38634
:10379C00EAE7012384F8513003263FE0FEF708F8EE
:1037AC00C01BA84202D3B5F1FF3F19D1C5B1E38EBE
:1037BC009BB2D3B123689A6812F0020FEED0226B41
:1037CC0012781A73236B01332363B4F836C01FFAD3
:1037DC008CFC0CF1FF3C1FFA8CFCA4F836C0E6E71D
:1037EC00012384F85130032618E03A462946204636
:1037FC00FFF79AFE08B120236365A36833B90193E0
:10380C002368DA6801929B680193019B636D2BB965
:10381C00012384F85130002600E00226002384F8AE
:10382C005030304603B0BDE8F0830226F9E72DE9AD
:10383C00F04383B01F460A9D90F85030012B00F0E6
:10384C001681044688469146012380F85030FDF7D6
:10385C00AFFF064694F85130DBB26268012B0AD0F8
:10386C00B2F5827F40F0F080A268002A40F0F3802D
:10387C00042B40F0F280B8F1000F00F0F080B9F1A9
:10388C00000F00F0EE80002F00F0ED8094F8513026
:10389C00DBB2042B02D0052384F85130002363657E
:1038AC00C4F83890E787A787C4F83080E786A786E6
:1038BC002364636423681A6812F0400F03D11A68FA
:1038CC0042F040021A60E368B3F5006F11D06368F0
:1038DC000BB1012F0BD1226B236812781A73236B57
:1038EC0001332363E38E9BB2013B9BB2E38601273A
:1038FC006EE063680BB1012F0BD1226B2368128829
:10390C00DA60236B02332363E38E9BB2013B9BB2E1
:10391C00E38601271BE023689A6812F0010F0ED092
:10392C00E28F92B25AB1DA68A36B1A80A36B02339E
:10393C00A363E38F9BB2013B9BB2E3870127FDF7A7
:10394C0037FF801BA84202D3B5F1FF3F1ED1E38E97
:10395C009BB21BB9E38F9BB2002B5CD023689A6897
:10396C0012F0020FD7D0E28E92B2002AD3D0002FE1
:10397C00D1D0226B1288DA60236B02332363E38E7F
:10398C009BB2013B9BB2E3860027C4E7012384F87A
:10399C005130032059E023689A6812F0010F0ED0C1
:1039AC00E28F92B25AB1DA68A36B1A70A36B01332F
:1039BC00A363E38F9BB2013B9BB2E3870127FDF727
:1039CC00F7FE831BAB4202D3B5F1FF3F1ED1EDB125
:1039DC00E38E9BB213B9E38F9BB2E3B123689A6871
:1039EC0012F0020FD7D0E28E92B2002AD3D0002F61
:1039FC00D1D0226B12781A73236B01332363E38EBD
:103A0C009BB2013B9BB2E3860027C4E7012384F8F9
:103A1C005130032019E0324629462046FFF784FD39
:103A2C0070B9A36833B901932368DA6801929B6873
:103A3C000193019B636DC3B9012384F8513004E0F9
:103A4C0020236365012000E00220002384F850301D
:103A5C0003B0BDE8F0830220F7E70220F5E7012070
:103A6C00F3E70120F1E70120EFE70120EDE7022069
:103A7C00EEE72DE9F04383B0044690F85160F6B2BE
:103A8C00012E40F0AB80884691461D464368B3F545
:103A9C00827F32D094F85030012B00F0A7800123A4
:103AAC0084F85030FDF784FE0746B8F1000F00F0A3
:103ABC009680B9F1000F00F09280042384F8513005
:103ACC0000236365C4F83880A4F83C90A4F83E90B9
:103ADC002363A386E38623646364A368B3F5004F72
:103AEC0018D023681A6812F0400F03D11A6842F0FC
:103AFC0040021A60E3680BB343E08368002BC9D122
:103B0C00042380F85130009513460A46FFF78FFEC8
:103B1C00064667E02268136823F0400313602268AE
:103B2C00136823F480431360DBE7FDF741FEC01BF1
:103B3C00A84202D3B5F1FF3F15D1A5B1E38F9BB2DB
:103B4C00002B3CD023689A6812F0010FEDD0A26BC9
:103B5C001B7B1370A36B0133A363E38F9BB2013BFD
:103B6C009BB2E387EAE7012384F85130032636E061
:103B7C00FDF71EFEC01BA84202D3B5F1FF3F19D1C1
:103B8C00C5B1E38F9BB2D3B123689A6812F0010FD1
:103B9C00EED0DA68A36B1A80A36B0233A363B4F87C
:103BAC003EC01FFA8CFC0CF1FF3C1FFA8CFCA4F8F5
:103BBC003EC0E6E7012384F8513003260FE03A4675
:103BCC0029462046FFF7C2FC08B120236365636DCC
:103BDC002BB9012384F85130002600E00226002383
:103BEC0084F85030304603B0BDE8F0830226F9E784
:103BFC0010B4036A046A24F001040462846924F09A
:103C0C00F00C4CEA021223F00A030B4382610362AC
:103C1C0010BC704710B4036A046A24F010040462E8
:103C2C00846924F4704C4CEA023223F0A00343EA7A
:103C3C0001138261036210BC7047836823F0700328
:103C4C000B4343F00703836070470368196A41F222
:103C5C001112114208D1196A40F24442114203D1A7
:103C6C001A6822F001021A60012380F83D3000200E
:103C7C007047000090F83D30DBB2012B27D10223B6
:103C8C0080F83D300268D36843F00103D3600368C9
:103C9C00114A934210D0B3F1804F0DD0A2F594325B
:103CAC00934209D002F58062934205D01A6842F023
:103CBC0001021A60002070479A6802F00702062A77
:103CCC0007D01A6842F001021A60002070470120E8
:103CDC0070470020704700BF002C014070477047B0
:103CEC007047704710B5044603681A6912F0020F4A
:103CFC0011D0DA6812F0020F0DD06FF002021A61C7
:103D0C000123037703689B6913F0030F70D0FFF74F
:103D1C00E6FF0023237723681A6912F0040F12D0F0
:103D2C00DA6812F0040F0ED06FF004021A6102234D
:103D3C00237723689B6913F4407F5FD02046FFF7FD
:103D4C00CEFF0023237723681A6912F0080F12D0D4
:103D5C00DA6812F0080F0ED06FF008021A61042313
:103D6C0023772368DB6913F0030F4ED02046FFF74F
:103D7C00B6FF0023237723681A6912F0100F12D0B4
:103D8C00DA6812F0100F0ED06FF010021A610823CF
:103D9C0023772368DB6913F4407F3DD02046FFF77F
:103DAC009EFF0023237723681A6912F0010F03D0BA
:103DBC00DA6812F0010F36D123681A6912F0800FFD
:103DCC0003D0DA6812F0800F34D123681A6912F02C
:103DDC00400F03D0DA6812F0400F32D123681A6911
:103DEC0012F0200F03D0DA6812F0200F30D110BD82
:103DFC00FFF774FF2046FFF773FF8AE72046FFF7B3
:103E0C006DFF2046FFF76CFF9BE72046FFF766FF30
:103E1C002046FFF765FFACE72046FFF75FFF204623
:103E2C00FFF75EFFBDE76FF001021A612046FCF759
:103E3C00FFFDC1E76FF080021A61204600F039F9EE
:103E4C00C3E76FF040021A612046FFF74AFFC5E74F
:103E5C006FF020021A61204600F02AF9C7E7000033
:103E6C0003681B4A90420AD0B0F1804F07D0A2F5EC
:103E7C009432904203D002F58062904203D123F039
:103E8C0070034A681343124A90420AD0B0F1804F33
:103E9C0007D0A2F59432904203D002F58062904292
:103EAC0003D123F44073CA68134323F080034A6997
:103EBC00134303608B68C3620B688362044B9842A4
:103ECC0002D00123436170470B690363F9E700BF1C
:103EDC00002C014040B310B5044690F83D30F3B1CE
:103EEC00022384F83D30214651F8040BFFF7B8FF4C
:103EFC00012384F8463084F83E3084F83F3084F84F
:103F0C00403084F8413084F8423084F8433084F8EF
:103F1C00443084F8453084F83D30002010BD80F8E2
:103F2C003C30FDF7BBFBDBE70120704710B4846825
:103F3C0024F47F4C42EA03220A4342EA0C028260D8
:103F4C0010BC704790F83C30012B78D010B504466B
:103F5C00012380F83C30022380F83D3002689368DE
:103F6C0023F47F4323F0770393600B68602B4CD0D2
:103F7C0029D8402B54D00CD9502B22D1CA6849686F
:103F8C000068FFF735FE50212068FFF756FE002031
:103F9C0005E0202B0DD009D9302B0AD001200123AC
:103FAC0084F83D30002384F83C3010BD0BB1102B4D
:103FBC0005D119462068FFF740FE0020EFE70120ED
:103FCC00EDE70120EBE7B3F5805F34D0B3F5005F8C
:103FDC000CD1CB684A6889680068FFF7A7FF226894
:103FEC00936843F4804393600020D8E7702B24D16E
:103FFC00CB684A6889680068FFF798FF2268936865
:10400C0043F0770393600020C9E7CA6849680068E9
:10401C00FFF700FE60212068FFF70FFE0020BEE7CF
:10402C00CA6849680068FFF7E3FD40212068FFF784
:10403C0004FE0020B3E70020B1E70120AFE7022027
:10404C007047000090F83C30012B2CD010B40123A9
:10405C0080F83C30022380F83D3003685A689C6835
:10406C0022F0700C0A6842EA0C025A6003680F4A8C
:10407C0093420AD0B3F1804F07D0A2F59432934209
:10408C0003D002F58062934204D124F080044A6884
:10409C0014439C60012380F83D30002380F83C30B1
:1040AC00184610BC70470220704700BF002C01401E
:1040BC007047704770B50D4E0D4D761BB61006D07F
:1040CC00002455F8043B01349847A642F9D1094E17
:1040DC00094D00F003F9761BB61006D0002455F8F4
:1040EC00043B01349847A642F9D170BDB84A000888
:1040FC00B84A0008C04A0008B84A0008830730B51F
:10410C0048D0541E002A3FD00346CAB201E0013CFD
:10411C003AD303F8012B9D07F9D1032C2DD9CDB23D
:10412C0045EA05250F2C45EA054536D9A4F11002C0
:10413C0022F00F0C03F1200EE6444FEA121C03F19F
:10414C00100242E9045542E9025510327245F8D189
:10415C000CF1010214F00C0F03EB021204F00F0C23
:10416C0013D0ACF1040323F003030433134442F8DB
:10417C00045B9342FBD10CF003042CB1CAB21C4477
:10418C0003F8012B9C42FBD130BD64461346002C36
:10419C00F4D1F9E703461446BFE71A46A446E0E714
:1041AC0020F0030110F00300C0F1000051F8043BB3
:1041BC0000F1040C4FEACC0C6FF000021CBF22FA89
:1041CC000CF213434FF0010C4CEA0C2C4CEA0C4C47
:1041DC00A3EB0C0222EA030212EACC1204BF51F840
:1041EC00043B0430F4D0C2F1000102EA0102B2FA3D
:1041FC0082F2C2F11F0200EBD2007047024B13B1E6
:10420C00024800F005B87047000000002942000881
:10421C00002301461A46184600F01AB838B5084B68
:10422C00084D5B1B9C1007D0043B1D44013C55F80A
:10423C0004399847002CF9D1BDE8384000F054B847
:10424C00C44A0008C04A0008704700BF704700BF4E
:10425C002DE9F047DFF87CA00646DAF80000984616
:10426C000F469146FFF7F0FF1B4B1B68D3F84841F4
:10427C0024B365681F2D26DC5EB96B1C0235DAF899
:10428C000000636044F82570FFF7E0FF0020BDE8F4
:10429C00F087012304EB8501C1F88890D4F88821BC
:1042AC00AB401A43022EC4F88821C1F80881E4D12E
:1042BC00D4F88C211343C4F88C31DEE703F5A674D3
:1042CC00C3F84841D5E7DAF80000FFF7BFFF4FF01D
:1042DC00FF30DCE740040020B44A0008F8B500BF0A
:1042EC00F8BC08BC9E467047F8B500BFF8BC08BCCB
:0442FC009E46704723
:10430000526F6C6C657226426F6F73740000000010
:104310005472616E7300000053686F6C7665000024
:1043200043616D65726126506C6174666F726D00D9
:104330002A526F6C6C65722A00000000557026448A
:104340006F776E00426F6F73745F4D6F646500002E
:104350002A5472616E732A005374617274206F72F2
:104360002053746F70000000556E466F6C6400003F
:10437000466F6C64000000002A53686F6C76652AF3
:10438000000000004D616E75616C2A4E6F6E652AEB
:10439000000000004175746F204F6E6365000000DF
:1043A0004D616E75616C205377697463680000001D
:1043B0002A43616D6572612A0000000044657465DE
:1043C0006374204D6F646500506C6174666F726D2C
:1043D00000000000436F6E74726F6C6C696E670052
:1043E000202020202020202020202000426F6F73DA
:1043F00074696E67000000002A5472616E732A525D
:10440000756E6E696E6700002A5472616E732A20A1
:1044100020202020202000004D616E75616C2A4F05
:104420004E2A2020202000004D616E75616C2A4FBD
:1044300046462A2000000000446574656374696E76
:104440006700000020202020202020202020202085
:104450002020202000000000506C6174666F726D97
:10446000696E67002020202020202020202020208E
:1044700020200000A5A5A5A5A5000000023AB1B125
:10448000010000000000000000000000000000002B
:1044900000000000000000F80000000000000033F1
:1044A0003000000000100C06100C06000000000098
:1044B0000000000040C07840C0784000043F040481
:1044C0003F040400007088FC08300000001820FF42
:1044D000211E0000F008F000E018000000211C037D
:1044E0001E211E0000F00888700000001E212324F9
:1044F0001927211010160E00000000000000000017
:1045000000000000000000E01804020000000007A6
:104510001820400000020418E000000000402018AD
:1045200007000000404080F0804040000202010F80
:1045300001020200000000F0000000000101011F64
:1045400001010100000000000000000080B07000C8
:104550000000000000000000000000000001010158
:1045600001010101000000000000000000303000E7
:1045700000000000000000008060180400601806C1
:104580000100000000E010080810E000000F1020FB
:1045900020100F00001010F8000000000020203F45
:1045A00020200000007008080888700000302824CF
:1045B0002221300000300888884830000018202070
:1045C00020110E000000C02010F800000007042495
:1045D000243F240000F808888808080000192120DA
:1045E00020110E0000E0108888180000000F112034
:1045F00020110E0000380808C83808000000003FED
:10460000000000000070880808887000001C22214B
:1046100021221C0000E010080810E00000003122F8
:1046200022110F00000000C0C00000000000003098
:1046300030000000000000800000000000008060EA
:10464000000000000000804020100800000102046B
:104650000810200040404040404040000404040452
:10466000040404000008102040800000002010080E
:1046700004020100007048080808F0000000003043
:1046800036010000C030C828E810E00007182724D1
:1046900023140B000000C038E0000000203C23027F
:1046A0000227382008F8888888700000203F2020E2
:1046B00020110E00C0300808080838000718202014
:1046C0002010080008F808080810E000203F20200B
:1046D00020100F0008F88888E8081000203F2020EC
:1046E0002320180008F88888E8081000203F2000E0
:1046F00003000000C0300808083800000718202018
:10470000221E020008F808000008F808203F2101D6
:1047100001213F20000808F8080800000020203F81
:104720002020000000000808F8080800C0808080F1
:104730007F00000008F888C028180800203F2001EA
:104740002638200008F8080000000000203F202044
:104750002020300008F8F800F8F80800203F003F5B
:10476000003F200008F830C00008F808203F200073
:1047700007183F00E01008080810E0000F10202084
:1047800020100F0008F808080808F000203F210159
:1047900001010000E01008080810E0000F182424B0
:1047A00038504F0008F8888888887000203F200023
:1047B000030C3020007088080808380000382021D9
:1047C00021221C00180808F8080818000000203FE3
:1047D0002000000008F808000008F808001F20204A
:1047E00020201F000878880000C83808000007381B
:1047F0000E010000F80800F80008F800033C07006C
:10480000073C0300081868808068180820302C03D3
:10481000032C30200838C800C83808000000203FAA
:104820002000000010080808C83808002038262199
:1048300020201800000000FE020202000000007F9D
:1048400040404000000C30C00000000000000001AB
:104850000638C00000020202FE0000000040404096
:104860007F000000000004020202040000000000BB
:104870000000000000000000000000008080808038
:104880008080808000020204000000000000000020
:1048900000000000000080808080000000192422B9
:1048A00022223F2008F8008080000000003F1120F5
:1048B00020110E000000008080800000000E1120FA
:1048C00020201100000000808088F800000E1120D8
:1048D00020103F200000808080800000001F2222E6
:1048E00022221300008080F0888888180020203F52
:1048F000202000000000808080808000006B949465
:104900009493600008F8008080800000203F210020
:1049100000203F2000809898000000000020203FE9
:1049200020200000000000809898000000C08080D7
:10493000807F000008F8000080808000203F240273
:104940002D302000000808F8000000000020203F63
:10495000202000008080808080808000203F200018
:104960003F20003F8080008080800000203F2100A9
:1049700000203F200000808080800000001F202059
:1049800020201F00808000808000000080FFA12088
:1049900020110E000000008080808000000E112099
:1049A00020A0FF80808080008080800020203F2128
:1049B00020000100000080808080800000332424DB
:1049C00024241900008080E0808000000000001F87
:1049D000202000008080000000808000001F202038
:1049E00020103F20808080000080808000010E30F9
:1049F0000806010080800080008080800F300C035A
:104A00000C300F0000808000808080000020312E5C
:104A10000E312000808080000080808080818E7038
:104A20001806010000808080808080000021302CEA
:104A30002221300000000000807C02020000000003
:104A4000003F404000000000FF00000000000000A8
:104A5000FF0000000002027C800000000040403F98
:104A60000000000000060101020204040000000032
:104A7000000000000000000000000000010203042C
:104A800006070809000000000102030402030405F0
:104A9000060708090A0B0C0D0E0F1010010200008A
:104AA00002030405060708090A0B0C0D0E0F10106F
:084AB0000102000018000020C3
:084AB800094200083101000869
:044AC0000D010008DC
:104AC40004010101B6ED0B000024F4000100000014
:104AD400100000000000000000000000040300209B
:104AE4006C030020D403002000000000000000003C
:104AF40000000000000000000000000000000000B2
:104B040000000000000000000000000000000000A1
:104B14000000000000000000000000000000000091
:104B24000000000000000000000000000000000081
:104B34000000000000000000000000000000000071
:104B44000000000000000000000000000000000061
:104B54000000000000000000000000000000000051
:104B64000000000000000000000000000000000041
:104B74000000000000000000000000000000000031
:104B840001000000000000000E33CDAB34126DE6CE
:104B9400ECDE05000B000000000000000000000037
:104BA4000000000000000000000000000000000001
:104BB40000000000000000000000000000000000F1
:104BC40000000000000000000000000000000000E1
:104BD40000000000000000000000000000000000D1
:044F040090070020F2
:04000005080016E9F0
:00000001FF
