:020000040800F2
:100000000050002055200008C5190008C719000835
:10001000C9190008CB190008CD190008000000001C
:10002000000000000000000000000000CF190008E0
:10003000D119000800000000D3190008D5190008E4
:100040009D2000089D2000089D2000089D2000089C
:100050009D2000089D2000089D2000089D2000088C
:100060009D2000089D2000089D2000089D2000087C
:100070009D2000089D2000089D2000089D2000086C
:100080009D2000089D2000089D2000089D2000085C
:100090009D2000089D2000089D2000089D2000084C
:1000A0009D2000089D2000089D2000089D2000083C
:1000B0009D2000089D2000089D2000089D2000082C
:1000C0009D2000089D2000089D2000089D2000081C
:1000D0009D2000089D200008DD1900089D200008D3
:1000E0009D2000089D2000089D20000800000000C1
:1000F0000000000000000000000000000000000000
:0C01000000000000000000005FF808F1A3
:1001100010B5054C237833B9044B13B10448AFF341
:1001200000800123237010BDC409002000000000DE
:10013000B086000808B5034B1BB103490348AFF371
:10014000008008BD00000000C8090020B08600083B
:100150004FF0FF0C1CEAD0521EBF1CEAD15392EAAA
:100160000C0F93EA0C0F6FD01A4480EA010C400286
:1001700018BF5FEA41211ED04FF0006343EA5010E0
:1001800043EA5111A0FB01310CF00040B1F5000F22
:100190003EBF490041EAD3715B0040EA010062F1D1
:1001A0007F02FD2A1DD8B3F1004F40EBC25008BFBB
:1001B00020F00100704790F0000F0CF0004C08BFD9
:1001C00049024CEA502040EA51207F3AC2BFD2F1A6
:1001D000FF0340EAC250704740F400004FF00003B4
:1001E000013A5DDC12F1190FDCBF00F000407047EE
:1001F000C2F10002410021FA02F1C2F1200200FA2C
:1002000002FC5FEA310040F1000053EA4C0308BFF2
:1002100020EADC70704792F0000F00F0004C02BF43
:10022000400010F4000F013AF9D040EA0C0093F0BE
:10023000000F01F0004C02BF490011F4000F013B18
:10024000F9D041EA0C018FE70CEAD15392EA0C0F86
:1002500018BF93EA0C0F0AD030F0004C18BF31F0F1
:10026000004CD8D180EA010000F00040704790F0C7
:10027000000F17BF90F0004F084691F0000F91F06B
:10028000004F14D092EA0C0F01D142020FD193EA31
:100290000C0F03D14B0218BF084608D180EA0100B9
:1002A00000F0004040F0FE4040F40000704740F095
:1002B000FE4040F4400070474FF0FF0C1CEAD05263
:1002C0001EBF1CEAD15392EA0C0F93EA0C0F69D0BF
:1002D000A2EB030280EA010C49024FEA402037D02A
:1002E0004FF0805343EA111143EA10130CF0004021
:1002F0008B4238BF5B0042F17D024FF4000C8B4211
:1003000024BF5B1A40EA0C00B3EB510F24BFA3EBF0
:10031000510340EA5C00B3EB910F24BFA3EB9103C0
:1003200040EA9C00B3EBD10F24BFA3EBD10340EA1A
:10033000DC001B0118BF5FEA1C1CE0D1FD2A3FF660
:1003400050AF8B4240EBC25008BF20F00100704715
:100350000CF0004C4CEA50207F32C2BFD2F1FF03B8
:1003600040EAC250704740F400004FF00003013AE9
:1003700037E792F0000F00F0004C02BF400010F48D
:10038000000F013AF9D040EA0C0093F0000F01F0A1
:10039000004C02BF490011F4000F013BF9D041EAC3
:1003A0000C0195E70CEAD15392EA0C0F08D14202F6
:1003B0007FF47DAF93EA0C0F7FF470AF084676E7C9
:1003C00093EA0C0F04D14B023FF44CAF08466EE7A2
:1003D00030F0004C18BF31F0004CCAD130F0004270
:1003E0007FF45CAF31F000437FF43CAF5FE700BFC8
:1003F0004FEA4002B2F1FE4F0FD34FF09E03B3EB32
:1004000012620DD94FEA002343F0004310F0004F71
:1004100023FA02F018BF404270474FF000007047C7
:1004200012F1610F01D1420205D110F0004008BF66
:100430006FF0004070474FF000007047844641EA7B
:10044000000313F0030349D1403A23D30B68036040
:100450004B6843608B688360CB68C3600B69036142
:100460004B6943618B698361CB69C3610B6A03622A
:100470004B6A43628B6A8362CB6AC3620B6B036312
:100480004B6B43638B6B8363CB6BC36340304031F7
:10049000403ADBD230320BD30B6803604B684360C9
:1004A0008B688360CB68C36010301031103AF3D290
:1004B0000C3205D351F8043B40F8043B043AF9D21E
:1004C000043208D0D2071CBF11F8013B00F8013BF1
:1004D00001D30B8803806046704700BF082A13D3FE
:1004E0008B07B1D010F00303AED0C3F10403D21ACE
:1004F000DB071CBF11F8013B00F8013BA4D331F826
:10050000023B20F8023B9FE7043AD9D3013A11F8A5
:10051000013B00F8013BF9D20B7803704B78437034
:100520008B7883706046704781F0004102E000BF25
:1005300083F0004330B54FEA41044FEA430594EAA3
:10054000050F08BF90EA020F1FBF54EA000C55EADE
:10055000020C7FEA645C7FEA655C00F0E2804FEAAF
:100560005454D4EB5555B8BF6D420CDD2C4480EA91
:10057000020281EA030382EA000083EA010180EAC1
:10058000020281EA0303362D88BF30BD11F0004F0F
:100590004FEA01314FF4801C4CEA113102D0404245
:1005A00061EB410113F0004F4FEA03334CEA133380
:1005B00002D0524263EB430394EA050F00F0A78098
:1005C000A4F10104D5F1200E0DDB02FA0EFC22FA93
:1005D00005F2801841F1000103FA0EF2801843FA87
:1005E00005F359410EE0A5F120050EF1200E012A78
:1005F00003FA0EFC28BF4CF0020C43FA05F3C018B6
:1006000051EBE37101F0004507D54FF0000EDCF12E
:10061000000C7EEB00006EEB0101B1F5801F1BD3D7
:10062000B1F5001F0CD349085FEA30004FEA3C0CDB
:1006300004F101044FEA445212F5800F80F09A80D1
:10064000BCF1004F08BF5FEA500C50F1000041EBD5
:10065000045141EA050130BD5FEA4C0C404141EBD9
:100660000101013C28BFB1F5801FE9D291F0000FD4
:1006700004BF01460020B1FA81F308BF2033A3F183
:100680000B03B3F120020CDA0C3208DD02F1140C7A
:10069000C2F10C0201FA0CF021FA02F10CE002F1B5
:1006A0001402D8BFC2F1200C01FA02F120FA0CFCAE
:1006B000DCBF41EA0C019040E41AA2BF01EB0451F7
:1006C000294330BD6FEA04041F3C1CDA0C340EDCF5
:1006D00004F11404C4F1200220FA04F001FA02F338
:1006E00040EA030021FA04F345EA030130BDC4F1F6
:1006F0000C04C4F1200220FA02F001FA04F340EAEB
:100700000300294630BD21FA04F0294630BD94F09B
:10071000000F83F4801306BF81F480110134013D82
:100720004EE77FEA645C18BF7FEA655C29D094EAF3
:10073000050F08BF90EA020F05D054EA000C04BF71
:100740001946104630BD91EA030F1EBF002100205C
:1007500030BD5FEA545C05D14000494128BF41F0FB
:10076000004130BD14F580043CBF01F5801130BD5F
:1007700001F0004545F0FE4141F470014FF00000EA
:1007800030BD7FEA645C1ABF194610467FEA655C9B
:100790001CBF0B46024650EA013406BF52EA03353D
:1007A00091EA030F41F4002130BD00BF90F0000F2B
:1007B00004BF0021704730B54FF4806404F1320467
:1007C0004FF000054FF0000150E700BF90F0000F20
:1007D00004BF0021704730B54FF4806404F1320447
:1007E00010F0004548BF40424FF000013EE700BF17
:1007F00042004FEAE2014FEA31014FEA02701FBFA7
:1008000012F07F4393F07F4F81F06051704732F0D8
:100810007F4208BF704793F07F4F04BF41F400212F
:10082000704730B54FF4607401F0004521F000418D
:100830001CE700BF50EA010208BF704730B54FF017
:1008400000050AE050EA010208BF704730B511F018
:10085000004502D5404261EB41014FF4806404F150
:1008600032045FEA915C3FF4D8AE4FF003025FEAD6
:10087000DC0C18BF03325FEADC0C18BF033202EB5A
:10088000DC02C2F1200300FA03FC20FA02F001FAB4
:1008900003FE40EA0E0021FA02F11444BDE600BF57
:1008A00070B54FF0FF0C4CF4E06C1CEA11541DBF06
:1008B0001CEA135594EA0C0F95EA0C0F00F0DEF8D1
:1008C0002C4481EA030621EA4C5123EA4C5350EAB6
:1008D000013518BF52EA033541F4801143F4801307
:1008E00038D0A0FB02CE4FF00005E1FB02E506F098
:1008F0000042E0FB03E54FF00006E1FB03569CF0ED
:10090000000F18BF4EF0010EA4F1FF04B6F5007FF2
:1009100064F5407404D25FEA4E0E6D4146EB060664
:1009200042EAC62141EA55514FEAC52040EA5E50ED
:100930004FEACE2EB4F1FD0C88BFBCF5E06F1ED897
:10094000BEF1004F08BF5FEA500E50F1000041EBCE
:10095000045170BD06F0004646EA010140EA02007B
:1009600081EA0301B4EB5C04C2BFD4EB0C0541EA9D
:10097000045170BD41F480114FF0000E013C00F3B2
:10098000AB8014F1360FDEBF002001F0004170BDD6
:10099000C4F10004203C35DA0C341BDC04F11404EF
:1009A000C4F1200500FA05F320FA04F001FA05F27B
:1009B00040EA020001F0004221F0004110EBD37048
:1009C00021FA04F642EB06015EEA430E08BF20EA74
:1009D000D37070BDC4F10C04C4F1200500FA04F317
:1009E00020FA05F001FA04F240EA020001F00041A9
:1009F00010EBD37041F100015EEA430E08BF20EA1C
:100A0000D37070BDC4F1200500FA05F24EEA020E63
:100A100020FA04F301FA05F243EA020321FA04F092
:100A200001F0004121FA04F220EA020000EBD37049
:100A30005EEA430E08BF20EAD37070BD94F0000F49
:100A40000FD101F00046400041EB010111F4801F7D
:100A500008BF013CF7D041EA060195F0000F18BF2E
:100A6000704703F00046520043EB030313F4801F6A
:100A700008BF013DF7D043EA0603704794EA0C0F24
:100A80000CEA135518BF95EA0C0F0CD050EA41063A
:100A900018BF52EA4306D1D181EA030101F00041B7
:100AA0004FF0000070BD50EA410606BF10461946DF
:100AB00052EA430619D094EA0C0F02D150EA0136EB
:100AC00013D195EA0C0F05D152EA03361CBF10462C
:100AD00019460AD181EA030101F0004141F0FE41CB
:100AE00041F470014FF0000070BD41F0FE4141F44F
:100AF000780170BD70B54FF0FF0C4CF4E06C1CEA4F
:100B000011541DBF1CEA135594EA0C0F95EA0C0F03
:100B100000F0A7F8A4EB050481EA030E52EA0335BE
:100B20004FEA013100F088804FEA03334FF08055DF
:100B300045EA131343EA12634FEA022245EA11150C
:100B400045EA10654FEA00260EF000419D4208BFBD
:100B5000964244F1FD0404F5407402D25B084FEA6A
:100B60003202B61A65EB03055B084FEA32024FF416
:100B700080104FF4002CB6EB020E75EB030E22BF73
:100B8000B61A754640EA0C005B084FEA3202B6EB33
:100B9000020E75EB030E22BFB61A754640EA5C00E2
:100BA0005B084FEA3202B6EB020E75EB030E22BF72
:100BB000B61A754640EA9C005B084FEA3202B6EB73
:100BC000020E75EB030E22BFB61A754640EADC0032
:100BD00055EA060E18D04FEA051545EA16754FEA94
:100BE00006164FEAC30343EA52734FEAC2025FEAB2
:100BF0001C1CC0D111F4801F0BD141EA00014FF041
:100C000000004FF0004CB6E711F4801F04BF014311
:100C10000020B4F1FD0C88BFBCF5E06F3FF6AFAE2D
:100C2000B5EB030C04BFB6EB020C5FEA500C50F1BD
:100C3000000041EB045170BD0EF0004E4EEA113140
:100C400014EB5C04C2BFD4EB0C0541EA045170BD47
:100C500041F480114FF0000E013C90E645EA060E8B
:100C60008DE60CEA135594EA0C0F08BF95EA0C0FB9
:100C70003FF43BAF94EA0C0F0AD150EA01347FF401
:100C800034AF95EA0C0F7FF425AF104619462CE7D8
:100C900095EA0C0F06D152EA03353FF4FDAE10463B
:100CA000194622E750EA410618BF52EA43067FF48C
:100CB000C5AE50EA41047FF40DAF52EA43057FF41C
:100CC000EBAE12E74FF0FF3C06E000BF4FF0010C27
:100CD00002E000BF4FF0010C4DF804CD4FEA410C8B
:100CE0007FEA6C5C4FEA430C18BF7FEA6C5C1BD058
:100CF00001B050EA410C0CBF52EA430C91EA030FD9
:100D000002BF90EA020F0020704710F1000F91EA35
:100D1000030F58BF994208BF90422CBFD8176FEA03
:100D2000E37040F0010070474FEA410C7FEA6C5CD1
:100D300002D150EA013C07D14FEA430C7FEA6C5CD8
:100D4000D6D152EA033CD3D05DF8040B704700BF04
:100D50008446104662468C461946634600E000BF52
:100D600001B5FFF7B7FF002848BF10F1000F01BD24
:100D70004DF808EDFFF7F4FF0CBF012000205DF8EF
:100D800008FB00BF4DF808EDFFF7EAFF34BF012074
:100D900000205DF808FB00BF4DF808EDFFF7E0FF0D
:100DA00094BF012000205DF808FB00BF4DF808ED5E
:100DB000FFF7CEFF94BF012000205DF808FB00BFC5
:100DC0004DF808EDFFF7C4FF34BF012000205DF8A7
:100DD00008FB00BF4FEA410C7FEA6C5C02D150EA8D
:100DE000013C0AD14FEA430C7FEA6C5C02D152EA23
:100DF000033C02D14FF0000070474FF001007047F4
:100E00004A0011D212F5001211D20DD56FF4787389
:100E1000B3EB62520ED44FEAC12343F0004343EADE
:100E2000505323FA02F070474FF00000704750EA29
:100E3000013002D14FF0FF3070474FF00000704793
:100E40004FEA4102B2F1E04324BFB3F5001CDCF1EC
:100E5000FE5C0DD901F0004C4FEAC0024CEA507024
:100E6000B2F1004F40EB830008BF20F00100704753
:100E700011F0804F21D113F13872BCBF01F0004056
:100E8000704741F480114FEA5252C2F11802C2F188
:100E9000200C10FA0CF320FA02F018BF40F0010009
:100EA0004FEAC1234FEAD32303FA0CFC40EA0C00BB
:100EB00023FA02F34FEA4303CCE77FEA625307D1F8
:100EC00050EA01331EBF4FF0FE4040F4400070472F
:100ED00001F0004040F0FE4040F40000704700BFC9
:100EE0004FF0FF3C06E000BF4FF0010C02E000BFF6
:100EF0004FF0010C4DF804CD4FEA40024FEA410398
:100F00007FEA226C18BF7FEA236C11D001B052EA4D
:100F1000530C18BF90EA010F58BFB2EB030088BF13
:100F2000C81738BF6FEAE17018BF40F00100704782
:100F30007FEA226C02D15FEA402C05D17FEA236C64
:100F4000E4D15FEA412CE1D05DF8040B704700BFAB
:100F5000844608466146FFE70FB5FFF7C9FF002842
:100F600048BF10F1000F0FBD4DF808EDFFF7F4FF7B
:100F70000CBF012000205DF808FB00BF4DF808ED14
:100F8000FFF7EAFF34BF012000205DF808FB00BF37
:100F90004DF808EDFFF7E0FF94BF012000205DF859
:100FA00008FB00BF4DF808EDFFF7D2FF94BF01200A
:100FB00000205DF808FB00BF4DF808EDFFF7C8FF03
:100FC00034BF012000205DF808FB00BF4FEA40025B
:100FD0004FEA41037FEA226C02D15FEA402C08D13C
:100FE0007FEA236C02D15FEA412C02D14FF000006E
:100FF00070474FF00100704753B94AB9002908BF44
:1010000000281CBF4FF0FF314FF0FF3000F0AEB9A9
:10101000ADF1080C6DE904CE00F03EF8DDF804E017
:10102000DDE9022304B0704738B505460C460022BE
:10103000002328462146FFF7A5FE28B92846214669
:10104000BDE8384000F00AB8284604F1004100F03D
:1010500005F8404261EB410138BD00BFD0B5002228
:101060000B4B06460F46FFF71BFCFFF7C9FE044675
:10107000FFF79CFB0022074BFFF712FC02460B46D2
:1010800030463946FFF754FAFFF7BAFE2146D0BD85
:101090000000F03D0000F0412DE9F047089E0D46AC
:1010A00004468846002B4DD18A42944668D9B2FA4C
:1010B00082F252B101FA02F3C2F1200120FA01F1E9
:1010C0000CFA02FC41EA030894404FEA1C41B8FBC9
:1010D000F1F71FFA8CFE01FB178807FB0EF0230CBB
:1010E00043EA084398420AD91CEB030307F1FF3592
:1010F00080F01E81984240F21B81023F63441B1A1C
:10110000B3FBF1F001FB103300FB0EFEA4B244EA86
:101110000344A6450AD91CEB040400F1FF3380F018
:101120000981A64540F20681644402380021A4EBFF
:101130000E0440EA07401EB10023D440C6E9004334
:10114000BDE8F0878B4208D9002E00F0EE80002128
:10115000C6E900050846BDE8F087B3FA83F1002927
:101160004AD1AB4202D3824200F2FC80841A65EB82
:10117000030301209846002EE2D0C6E90048DFE7CD
:1011800002B9FFDEB2FA82F2002A40F09180A1EBB0
:101190000C0001214FEA1C471FFA8CFEB0FBF7F34D
:1011A00007FB1300250C45EA00450EFB03F0A8429F
:1011B00008D91CEB050503F1FF3802D2A84200F262
:1011C000CE8043462D1AB5FBF7F007FB10550EFBFA
:1011D00000FEA4B244EA0544A64508D91CEB040469
:1011E00000F1FF3502D2A64500F2B6802846A4EBF6
:1011F0000E0440EA03409EE7C1F120078B4022FA2B
:1012000007FC4CEA030C25FA07FA4FEA1C49BAFB23
:10121000F9F820FA07F309FB18AA8D401FFA8CFE93
:101220001D4300FA01F308FB0EF02C0C44EA0A44BB
:10123000A04202FA01F20BD91CEB040408F1FF3AB8
:1012400080F08880A04240F28580A8F102086444C2
:10125000241AB4FBF9F009FB104400FB0EFEADB2FA
:1012600045EA0444A64508D91CEB040400F1FF3507
:101270006CD2A6456AD90238644440EA0840A0FB13
:101280000295A4EB0E04AC42C846AE4656D353D0EA
:10129000002E69D0B3EB080264EB0E0422FA01F3CE
:1012A00004FA07F71F43CC40C6E90074002147E762
:1012B0000CFA02FCC2F1200125FA01F34FEA1C47A7
:1012C00020FA01F195400D43B3FBF7F107FB113311
:1012D0001FFA8CFE280C40EA034001FB0EF3834208
:1012E00004FA02F408D91CEB000001F1FF382FD2F8
:1012F00083422DD902396044C01AB0FBF7F307FBD3
:101300001300ADB245EA004503FB0EF0A84208D930
:101310001CEB050503F1FF3816D2A84214D9023B95
:101320006544281A43EA014138E73146304607E769
:101330002F46E4E61846F9E64B45A9D2B9EB020878
:1013400065EB0C0E0138A3E74346EAE7284694E72D
:101350004146D1E7D0467BE76444023847E7023B89
:1013600065442FE7084606E73146E9E6704700BFC7
:1013700010F0010F04D0054B1B687022DA63704730
:10138000024B1B68DC22DA63704700BFC80A0020EA
:1013900010F0010F02D0024B00221A70704700BFFC
:1013A0000100002010B5044600F0FC03102B22D0F1
:1013B000202B23D0412C24D0402C31D0452C3ED0A2
:1013C000442C4FD02C2C60D0252C69D0242C00F03C
:1013D0008480312C00F09E80302C00F0A080392CCD
:1013E00000F0A280382C00F0A380212C57D1524B62
:1013F00001221A7053E0FFF7BBFFDBE7FFF7C8FFDE
:10140000D8E74E4B1B78012BD6D04D4B1B684D2295
:101410009A63642000F08EFE484B01221A703EE071
:10142000464B1B78002BC9D0454B1B68E9229A63B9
:10143000642000F07FFE414B00221A702FE0414BE8
:101440001B78002BBCD0404B1B68E2229A633C4BBC
:101450001B6842221A64642000F06CFE394B0022A3
:101460001A701CE0374B1B78012BABD0364B1B6836
:1014700032229A63324B1B68FA221A64642000F00D
:1014800059FE304B01221A7009E02D4B1B68C62211
:101490009A632D4A1268E221916342221A6410BDB8
:1014A0002A4B1B78082B14D9294B1B78322B09D8CF
:1014B0003223274A1370244A12685363234B0022B5
:1014C0001A70ECE7591E224A11701F4A12685363C2
:1014D000F4E701331D4A1370E1E71C4B1B78082B1E
:1014E00014D91B4B1B78F92B09D9FA23184A13700E
:1014F000154A12685363154B00221A70CFE7591C26
:10150000134A1170104A12685363F4E701330F4A0B
:101510001370C4E70A4B1B684D229A63BFE7084B60
:101520001B68C6229A63BAE70A4B01221A70B6E713
:10153000084B00221A70B2E701000020E1090020E8
:10154000C80A0020E3090020100B0020E209002057
:1015500000000020E009002030B40378457845EA17
:1015600003258378C47844EA03240379417941EA66
:1015700003218279C37943EA0223094A1278012AB6
:1015800007D0084A126855639463D163136430BC72
:1015900070474FF6E85319464FF614741D46F0E7AE
:1015A000E0090020380A002030B589B000240494F6
:1015B0000594069407941C4B9A6942F010029A61B4
:1015C0009A6902F010020092009A9A6942F0200291
:1015D0009A619A6902F020020192019A9A6942F096
:1015E00004029A619A6902F004020292029A9A69CC
:1015F00042F008029A619B6903F008030393039B7E
:101600000A4D22462021284600F096FF202304930D
:101610000123059306940223079304A9284600F0AA
:1016200079FE09B030BD00BF001002400008014043
:1016300008B502682C4B9A4205D001222B492C4850
:1016400002F071F808BD2B4B1B78C3B92A4B1B78ED
:10165000022BF2D1294B1B78082BEED8234A1178A4
:10166000274AD1540133DBB2244A1370082BE4D942
:10167000214B01221A70214B00221A70DDE7012B49
:10168000DBD11A4B1B78402B0FD01E4A1278012A4F
:10169000D3D1A3F10902D2B2012A11D91A490A7889
:1016A0001A48835401320A70C7E7194A1278012A8E
:1016B000EBD0144B01221A70134B00221A70BCE7B6
:1016C0000A2B05D0092BB8D10A4B00221A70B4E7B7
:1016D0000D4A117800230D4843540A490B701370CA
:1016E0000B4B01221A70A8E700440040300A00208A
:1016F000580B002001000020020000202F0A0020CB
:10170000200A00201D0A0020310A0020E8090020DC
:10171000E409002072B6FEE700B591B0282200214E
:1017200006A802F03DF8002301930293039304936B
:101730000593012206924FF4803307930A92022206
:101740000D920E934FF4E0130F9306A800F010FFD4
:1017500080B90F23019302210291002303934FF4D8
:1017600080620492059301A801F034F920B911B008
:101770005DF804FBFFF7CEFFFFF7CCFFF0B583B0B9
:1017800000F0B4FCFFF7C8FFFFF70EFF00F076FA99
:1017900000F0EAFA00F044FB00F0A0FB00F0FCFBD4
:1017A0003F4B1A46013B002AFBD13E4C204601F03C
:1017B00041FD00F08FF83C4B1B684FF416725A63E2
:1017C0004FF44D729A634FF42F72DA6391261E64C0
:1017D000364B1B6864255D63C6229A63344A1268DF
:1017E000322151637021D963E221916342221A644C
:1017F000142000F09FFCB2238DF8073001222D4900
:10180000204601F090FF01E0012B1ED02A4B1B78EF
:10181000002BF9D1294B02221A70FF2301220DF16E
:101820000701204801F036FD244B1B78022BFBD02A
:10183000234C207A234B1870FFF7B4FD2046FFF7A6
:101840008BFE032000F076FCE0E71F4B1B78012B9A
:10185000DCD169461D4802F093FF04460021009840
:10186000013002F08DFF074619492046FEF724FD9E
:10187000FEF7BEFD044616493846FEF71DFDFEF78D
:10188000B7FD2544ADB20644B6B2074B1B681E64D3
:10189000064B1B685D630C4B00221A70B6E700BF55
:1018A000B06D5F00580B0020800A0020C80A00209D
:1018B000100B0020300A0020010000200200002050
:1018C000200A00201C0A0020E4090020E909002069
:1018D0006666663FF8B5284F384601F015FA274E80
:1018E000304601F011FA264D284601F00DFA254C3C
:1018F000204601F009FA0021384601F0E1FA0421FE
:10190000384601F0DDFA0821384601F0D9FA0C21F9
:10191000384601F0D5FA0021304601F0D1FA042111
:10192000304601F0CDFA0821304601F0C9FA0C2109
:10193000304601F0C5FA0021284601F0C1FA042121
:10194000284601F0BDFA0821284601F0B9FA0C2119
:10195000284601F0B5FA0021204601F0B1FA042131
:10196000204601F0ADFA0821204601F0A9FA0C2129
:10197000204601F0A5FAF8BD380A0020800A0020B0
:10198000C80A0020100B002000B583B00C4B9A69E8
:1019900042F001029A619A6902F001020092009AF3
:1019A000DA6942F08052DA61DB6903F08053019317
:1019B000019B052000F0D2FB03B05DF804FB00BFE3
:1019C00000100240FEE7FEE7FEE7FEE7FEE7704795
:1019D0007047704708B500F09BFB08BD08B502488A
:1019E00001F042FD08BD00BF580B002001207047E8
:1019F00008B501F0ABFE162303604FF0FF3008BDC1
:101A000008B54FF0FF31FFF7F3FFFEE770B50C4666
:101A10001646002506E0AFF30080214601F8010BD1
:101A200001350C46B542F6DB304670BD70B50C464C
:101A30001646002504E014F8010BAFF300800135D1
:101A4000B542F8DB304670BD4FF0FF3070474FF4C1
:101A500000534B6000207047012070470020704702
:101A600010B503460C4A0D490D48006840B10C48BA
:101A700000680344521A934206D8094A136010BD05
:101A80000748084C0460F2E701F060FE0C23036095
:101A90004FF0FF30F3E700BF0050002000040000CB
:101AA000340A0020F00B00207047000084B0036867
:101AB0001C4A934213D0B3F1804F1CD01A4A934270
:101AC00025D01A4A934214D1194BDA6942F0040224
:101AD000DA61DB6903F004030393039B09E0144B11
:101AE0009A6942F400629A619B6903F4006300936F
:101AF000009B04B0704703F50433DA6942F0010239
:101B0000DA61DB6903F001030193019BF1E7084B04
:101B1000DA6942F00202DA61DB6903F00203029340
:101B2000029BE6E7002C0140000400400008004052
:101B30000010024010B58AB0002306930793089363
:101B400009930368464A93420AD0B3F1804F1CD0F0
:101B5000444A934249D0444A93426BD00AB010BDE4
:101B6000424B9A6942F004029A619B6903F00403B4
:101B70000093009B4FF4706306930223079309932D
:101B800006A93B4800F0C6FBE8E703F504339A6971
:101B900042F004029A619A6902F004020192019AE9
:101BA0009A6942F008029A619B6903F00803029364
:101BB000029B0323069302240794099406A92C4848
:101BC00000F0A8FB4FF4406306930794099406A91C
:101BD000284800F09FFB284A536823F4407343F0E1
:101BE000E06343F400735360B8E7204B9A6942F016
:101BF00004029A619A6902F004020392039A9A69B4
:101C000042F008029A619B6903F008030493049B65
:101C1000C023069302240794099406A9144800F0EF
:101C200079FB032306930794099406A9114800F051
:101C300071FB93E70D4B9A6942F008029A619B6928
:101C400003F008030593059B4FF47073069302237A
:101C50000793099306A9074800F05CFB7EE700BFE5
:101C6000002C014000040040000800400010024029
:101C700000080140000C01400000014010B592B086
:101C800000241094119409940A940B940C940D94CC
:101C90000E940F942022214601A801F081FD3048C6
:101CA000304B0360446084604FF6FF73C36004618F
:101CB0004461846101F028F800283CD1002310938E
:101CC000119310A9264801F069F9002836D1602344
:101CD000099300220A920B920C920D920E920F928F
:101CE00009A91F4801F06EF858BB042209A91C4835
:101CF00001F068F840BB082209A9194801F062F810
:101D000028BB0C2209A9164801F05CF810BB00237F
:101D1000019302930393049305934FF400520692A8
:101D2000089301A90E4801F06FF9B0B90C48FFF70C
:101D300001FF12B010BDFFF7EDFCBFE7FFF7EAFCB3
:101D4000C5E7FFF7E7FCD0E7FFF7E4FCD3E7FFF7D1
:101D5000E1FCD6E7FFF7DEFCD9E7FFF7DBFCE5E7C0
:101D6000380A0020002C014000B58BB000230893F6
:101D700009930193029303930493059306930793A6
:101D800026484FF08042026040F2CF2242608360DA
:101D900040F2CF72C2600361836100F0B5FF58BBAF
:101DA00000230893099308A91C4801F0F7F830BBF9
:101DB00060230193002202920392059201A9174821
:101DC00001F000F8F0B904220DEB0201134800F015
:101DD000F9FFD0B9082201A9104800F0F3FFB8B903
:101DE0000C2201A90D4800F0EDFFA0B90B48FFF748
:101DF000A1FE0BB05DF804FBFFF78CFCD0E7FFF70A
:101E000089FCD5E7FFF786FCDDE7FFF783FCE1E718
:101E1000FFF780FCE4E7FFF77DFCE7E7800A00209E
:101E200000B58BB0002308930993019302930393A9
:101E300004930593069307932648274A026040F2CD
:101E4000CF224260836040F2CF72C260036183613F
:101E500000F05AFF58BB00230893099308A91D48B6
:101E600001F09CF830BB60230193002202920392A0
:101E7000059201A9174800F0A5FFF0B904220DEB67
:101E80000201144800F09EFFD0B9082201A91148B0
:101E900000F098FFB8B90C2201A90E4800F092FF9B
:101EA000A0B90C48FFF746FE0BB05DF804FBFFF746
:101EB00031FCD0E7FFF72EFCD5E7FFF72BFCDDE781
:101EC000FFF728FCE1E7FFF725FCE4E7FFF722FC3A
:101ED000E7E700BFC80A00200004004000B58BB04F
:101EE00000230893099301930293039304930593AA
:101EF000069307932648274A026040F2CF224260A9
:101F0000836040F2CF72C2600361836100F0FCFE27
:101F100058BB00230893099308A91D4801F03EF817
:101F200030BB60230193002202920392059201A923
:101F3000174800F047FFF0B904220DEB02011448E6
:101F400000F040FFD0B9082201A9114800F03AFF83
:101F5000B8B90C2201A90E4800F034FFA0B90C4812
:101F6000FFF7E8FD0BB05DF804FBFFF7D3FBD0E70C
:101F7000FFF7D0FBD5E7FFF7CDFBDDE7FFF7CAFBA7
:101F8000E1E7FFF7C7FBE4E7FFF7C4FBE7E700BFC4
:101F9000100B00200008004008B50A480A4B0360F7
:101FA0004FF4E133436000238360C36003610C227C
:101FB00042618361C36101F03DF900B908BDFFF7DB
:101FC000A9FBFBE7580B00200044004030B587B068
:101FD0000023029303930493059302681B4B9A42D8
:101FE00001D007B030BD03F5E633DA6942F40032C0
:101FF000DA61DA6902F400320092009A9A6942F0DA
:1020000004029A619B6903F004030193019B04237A
:10201000029302230393032305930D4D02A928463F
:1020200000F078F9082302930024039404940DEB44
:102030000301284600F06EF922462146262000F0D2
:102040009FF8262000F0D4F8CBE700BF0044004002
:1020500000080140FFF728FD0B480C490C4A0023FB
:1020600002E0D458C4500433C4188C42F9D3094A4E
:10207000094C002301E013600432A242FBD301F0BB
:102080006BFBFFF77BFB704700000020C4090020BA
:10209000348C0008C4090020EC0B0020FEE700008F
:1020A00010B504460E4B18784FF47A73B3FBF0F377
:1020B0000C4A1068B0FBF3F000F0A8F868B90F2CD8
:1020C00001D901200AE0002221464FF0FF3000F044
:1020D00057F8054B1C60002000E0012010BD00BF38
:1020E00008000020040000200C00002008B5074A6A
:1020F000136843F010031360032000F02FF8022050
:10210000FFF7CEFFFFF740FC002008BD0020024093
:10211000034A1168034B1B780B441360704700BFE0
:10212000A00B002008000020014B1868704700BF7A
:10213000A00B002038B50446FFF7F6FF0546B4F1C2
:10214000FF3F02D0044B1B781C44FFF7EDFF401B00
:10215000A042FAD338BD00BF08000020074AD36868
:1021600023F4E0631B041B0C000200F4E060034353
:1021700043F0BF6343F40033D360704700ED00E0E9
:1021800000B5194BDB68C3F30223C3F1070CBCF1A4
:10219000040F28BF4FF0040C03F1040EBEF1060F2C
:1021A00018D9033B4FF0FF3E0EFA0CFC21EA0C015C
:1021B00099400EFA03F322EA0303194300280BDBCC
:1021C0000901C9B200F1604000F5614080F80013D8
:1021D0005DF804FB0023E5E700F00F000901C9B238
:1021E000024B1954F4E700BF00ED00E014ED00E0ED
:1021F000002807DB00F01F02400901239340024A38
:1022000042F82030704700BF00E100E00138B0F133
:10221000807F0BD24FF0E0235861054AF02182F80D
:1022200023100020986107221A617047012070472F
:1022300000ED00E090F82130DBB2022B06D0042341
:102240008363002380F82030012070470268136800
:1022500023F00E0313600268136823F00103136078
:10226000036CC16B012202FA03F34B6080F821205A
:10227000002380F8203018467047000008B590F819
:102280002130DBB2022B03D004238363012008BD7D
:102290000268136823F00E0313600268136823F0CA
:1022A000010313600368194A934214D01432934215
:1022B0001FD0143293421ED0143293421ED01432D7
:1022C00093421ED01432934202D04FF0807203E04A
:1022D0004FF4801200E001220D4B5A60012380F878
:1022E0002130002380F82030436B6BB198470020E9
:1022F000CDE71022F0E74FF48072EDE74FF4805203
:10230000EAE74FF48032E7E70020C0E70800024028
:102310000000024070B582B00024A446A6E0804DC3
:10232000AA4210D007D97F4DAA420CD005F58035BE
:10233000AA4208D013E0A5F58015AA4203D005F5FE
:102340007025AA4207D18A68002A58D0012A51D0A4
:102350004361082403E0A5F58015AA42F3D0BEF13D
:10236000FF0F4ED80646BEF1FF0F4CD84FEA8C0245
:1023700033680F25954023EA050304FA02F213435C
:1023800033604B6813F0805F6ED0674B9A6942F000
:1023900001029A619B6903F001030193019B4FEADB
:1023A0009C02951C614B53F825600CF003039D00C3
:1023B0000F23AB4026EA03065D4B984229D003F574
:1023C0008063984200F08E8003F58063984200F0AD
:1023D0008B8003F58063984219D004231AE0CC68FF
:1023E000BDE7CC680434BAE7CC680834B7E7CC68FA
:1023F0000C34B4E703610824B1E70024AFE70424F8
:10240000ADE7061DAFE7ACF108029200B0E7032389
:1024100000E00023AB4033430232444D45F8223004
:102420004B6813F4801F61D0424A936843EA0E035D
:1024300093604B6813F4001F5ED03E4AD36843EAB2
:102440000E03D3604B6813F4003F5BD0394A5368E6
:1024500043EA0E0353604B6813F4803F58D0354A6B
:10246000136843EA0E0313600CF1010C0A6832FA98
:102470000CF353D0012303FA0CF302EA030E33EA00
:102480000202F1D14A68122A3FF649AF122A3FF6FA
:1024900066AF01A555F822F047230008DF230008A6
:1024A000E9230008FB2300085F2300085F230008DE
:1024B0005F2300085F2300085F2300085F230008F4
:1024C0005F2300085F2300085F2300085F230008E4
:1024D0005F2300085F2300085F230008E323000850
:1024E000EF230008012395E7022393E7114A93683D
:1024F00023EA0E0393609CE70E4AD36823EA0E0397
:10250000D3609FE70B4A536823EA0E035360A2E7A8
:10251000084A136823EA0E031360A5E702B070BDF2
:1025200000002210000031100010024000000140A5
:1025300000080140000401400AB10161704709042C
:102540000161704782B0084B1B68084AA2FB032355
:102550005B0A00FB03F3019300BF019B5A1E01922B
:10256000002BF9D102B0704704000020D34D621057
:10257000002800F0F18170B582B00446036813F0C2
:10258000010F2CD0994B5B6803F00C03042B1DD07A
:10259000964B5B6803F00C03082B12D06368B3F50D
:1025A000803F41D0002B55D103F1804303F5043324
:1025B0001A6822F480321A601A6822F480221A60A3
:1025C00037E08A4B5B6813F4803FE7D0874B1B688A
:1025D00013F4003F03D06368002B00F0BF81236831
:1025E00013F0020F75D0814B5B6813F00C0F5FD0B6
:1025F0007E4B5B6803F00C03082B54D02369002B3F
:1026000000F08A807A4B01221A60FFF78DFD0546A3
:10261000764B1B6813F0020F75D1FFF785FD401B49
:102620000228F5D903209EE1704A136843F48033F1
:102630001360636843B3FFF777FD05466B4B1B6878
:1026400013F4003FCBD1FFF76FFD401B6428F5D991
:10265000032088E1B3F5A02F09D0644B1A6822F457
:1026600080321A601A6822F480221A60E1E703F1CE
:102670008043A3F53C331A6842F480221A601A683A
:1026800042F480321A60D4E7FFF74EFD0546574BFF
:102690001B6813F4003FA2D0FFF746FD401B6428DF
:1026A000F5D903205FE1514B5B6813F4803FA5D15E
:1026B0004E4B1B6813F0020F03D02369012B40F02F
:1026C0004F814A4A136823F0F803616943EAC10362
:1026D0001360236813F0080F33D0A369002B5CD07C
:1026E000434B0122C3F88024FFF71EFD05463F4BF4
:1026F0005B6A13F0020F21D1FFF716FD401B022881
:10270000F5D903202FE1394A136823F0F8036169F2
:1027100043EAC1031360DCE7354B00221A60FFF780
:1027200003FD0546314B1B6813F0020FD1D0FFF7B4
:10273000FBFC401B0228F5D9032014E10120FFF720
:1027400001FF236813F0040F00F09680274BDB692C
:1027500013F0805F34D1254BDA6942F08052DA61A0
:10276000DB6903F080530193019B0125214B1B681A
:1027700013F4807F26D0E368012B3DD0002B53D18A
:1027800003F1804303F504331A6A22F001021A624E
:102790001A6A22F004021A6233E0154B0022C3F8D1
:1027A0008024FFF7C1FC0546104B5B6A13F0020F53
:1027B000C7D0FFF7B9FC401B0228F5D90320D2E0AF
:1027C0000025D3E70B4A136843F480731360FFF7C7
:1027D000ABFC0646074B1B6813F4807FCBD1FFF799
:1027E000A3FC801B6428F5D90320BCE00010024044
:1027F00000004242007000405F4A136A43F0010348
:102800001362E36833B3FFF78FFC06465A4B1B6A2B
:1028100013F0020F2FD1FFF787FC801B41F28833A2
:102820009842F3D903209EE0052B09D0524B1A6A37
:1028300022F001021A621A6A22F004021A62E0E728
:102840004D4B1A6A42F004021A621A6A42F00102FF
:102850001A62D6E7FFF768FC0646474B1B6A13F07F
:10286000020F08D0FFF760FC801B41F288339842CA
:10287000F3D9032077E0E5B9E369002B72D03E4A33
:10288000526802F00C02082A56D0022B17D03B4B9C
:1028900000221A66FFF748FC0446374B1B6813F00A
:1028A000007F47D0FFF740FC001B0228F5D903202A
:1028B00059E0314AD36923F08053D361DCE72F4BD1
:1028C00000221A66FFF730FC05462B4B1B6813F0FD
:1028D000007F06D0FFF728FC401B0228F5D9032013
:1028E00041E0236AB3F5803F1AD023494B6823F4B3
:1028F0007413226A606A024313434B601F4B012228
:102900001A66FFF711FC04461B4B1B6813F0007F8F
:102910000ED1FFF709FC001B0228F5D9032022E0A5
:10292000154A536823F40033A1680B435360DCE776
:10293000002018E0002016E0012B16D00E4B5B683B
:1029400003F48031226A914211D103F47013626A58
:1029500093420ED1002006E001207047012002E0E2
:10296000012000E0002002B070BD0120FBE7012043
:10297000F9E70120F7E700BF0010024000004242E3
:102980000F4B5B6803F00C02082A01D00D4870471A
:10299000C3F383420C49885C13F4803F0BD0084B8F
:1029A0005B68C3F34043094AD35C064A02FB00F06C
:1029B000B0FBF3F07047064B03FB00F0704700BF1D
:1029C0000010024000127A00E0860008F08600083D
:1029D00000093D00002800F0A08070B50D460446B7
:1029E000524B1B6803F007038B420BD24F4A13680C
:1029F00023F007030B431360136803F007038B42B4
:102A000040F08D80236813F0020F17D013F0040FED
:102A100004D0474A536843F4E0635360236813F0DB
:102A2000080F04D0424A536843F460535360404A4D
:102A3000536823F0F003A1680B435360236813F03D
:102A4000010F31D06368012B20D0022B25D0384AEA
:102A5000126812F0020F64D035494A6822F003026E
:102A600013434B60FFF760FB0646314B5B6803F096
:102A70000C036268B3EB820F16D0FFF755FB801B87
:102A800041F288339842F0D9032045E0284A126881
:102A900012F4003FE0D101203EE0254A126812F016
:102AA000007FD9D1012037E0204B1B6803F00703DA
:102AB000AB420AD91D4A136823F007032B43136066
:102AC000136803F00703AB422DD1236813F0040F02
:102AD00006D0174A536823F4E063E1680B43536060
:102AE000236813F0080F07D0114A536823F460538A
:102AF000216943EAC1035360FFF742FF0C4B5B6857
:102B0000C3F303130B4AD35CD8400B4B18600B4B39
:102B10001868FFF7C5FA002070BD0120704701203A
:102B2000FAE70120F8E70120F6E700BF00200240A5
:102B300000100240C8860008040000200C0000209D
:102B4000014B1868704700BF0400002008B5FFF76C
:102B5000F7FF044B5B68C3F30223034AD35CD840FE
:102B600008BD00BF00100240D886000808B5FFF776
:102B7000E7FF044B5B68C3F3C223034AD35CD8402E
:102B800008BD00BF00100240D886000870B4036A78
:102B9000026A22F0010202624668826922F0730230
:102BA0000C6844EA020523F002028B6813430D4CC3
:102BB000A04209D00B4CA0420DD0466085614A6806
:102BC0004263036270BC704723F00803CA68134372
:102BD00023F00403EEE726F440764A6932438E6917
:102BE0001643EAE7002C014030B4036A026A22F47B
:102BF000807202624568C26922F073020C68224347
:102C000023F400738C6843EA04230F4CA04209D0DC
:102C10000D4CA0420ED04560C2614A68C263036297
:102C200030BC704723F40063CC6843EA042323F4E8
:102C30008063EDE725F440554C6945EA04158C693D
:102C400045EA0415E7E700BF002C014030B4036AF1
:102C5000026A22F4805202624468C26922F4E642A7
:102C60000D6842EA052223F400538D6843EA0533D8
:102C7000074DA84206D04460C2614A6802640362FC
:102C800030BC704724F480444D6944EA8514F2E76F
:102C9000002C014003681B4A90420AD0B0F1804FDB
:102CA00007D0A2F59432904203D002F580629042A0
:102CB00003D123F070034A681343124A90420AD0AA
:102CC000B0F1804F07D0A2F59432904203D002F5C4
:102CD0008062904203D123F44073CA68134323F007
:102CE00080034A69134303608B68C3620B68836285
:102CF000044B984202D00123436170470B69036380
:102D0000F9E700BF002C014040B310B5044690F82D
:102D10003D30F3B1022384F83D30214651F8040BD5
:102D2000FFF7B8FF012384F8463084F83E3084F87A
:102D30003F3084F8403084F8413084F8423084F8E1
:102D4000433084F8443084F8453084F83D30002026
:102D500010BD80F83C30FEF7A9FEDBE7012070478C
:102D600030B4036A026A22F0100202624468826987
:102D700022F4E6420D6842EA052223F020038D6822
:102D800043EA05130E4DA84209D00D4DA8420ED0BE
:102D9000446082614A688263036230BC704723F0FA
:102DA0008003CD6843EA051323F04003EDE724F4E4
:102DB00040644D6944EA85048D6944EA8504E7E787
:102DC000002C014038B590F83C30012B66D0044609
:102DD0000D46012380F83C300C2A5AD8DFE802F077
:102DE000075959591B5959593059595944000068C4
:102DF000FFF7CCFE2268936943F0080393612268D1
:102E0000936923F0040393612268936929690B4352
:102E1000936100203EE00068FFF7A2FF22689369FB
:102E200043F4006393612268936923F480639361A0
:102E300022689369296943EA01239361002029E00C
:102E40000068FFF7D1FE2268D36943F00803D3611D
:102E50002268D36923F00403D3612268D369296906
:102E60000B43D361002015E00068FFF7EFFE2268F6
:102E7000D36943F40063D3612268D36923F4806388
:102E8000D3612268D369296943EA0123D361002011
:102E900000E00120002384F83C3038BD0220FCE72C
:102EA00001F01F01012303FA01FC036A23EA0C036A
:102EB0000362036A02FA01F10B43036270470000E8
:102EC00010B50446084651BB94F83E30DBB2013BD6
:102ED00018BF0123002B5BD1002839D1022384F8CD
:102EE0003E30012201462068FFF7DAFF23682A4AB4
:102EF00093423DD02368284A93423ED0B3F1804F9D
:102F00003BD0A2F59432934237D002F580629342CF
:102F100033D01A6842F001021A60002039E0042917
:102F200008D008290DD094F84130DBB2013B18BF1E
:102F30000123CFE794F83F30DBB2013B18BF0123F8
:102F4000C8E794F84030DBB2013B18BF0123C1E76A
:102F5000042805D0082807D0022384F84130C0E7B0
:102F6000022384F83F30BCE7022384F84030B8E7FE
:102F70005A6C42F400425A64BCE79A6802F00702B5
:102F8000062A07D01A6842F001021A60002000E009
:102F9000012010BD0020FCE7002C014090F83C30DF
:102FA000012B2CD010B4012380F83C30022380F890
:102FB0003D3003685A689C6822F0700C0A6842EA47
:102FC0000C025A6003680F4A93420AD0B3F1804F53
:102FD00007D0A2F59432934203D002F58062934267
:102FE00004D124F080044A6814439C60012380F8D3
:102FF0003D30002380F83C30184610BC704702205A
:10300000704700BF002C014090F83C30012B22D0CB
:10301000012380F83C30CB6823F440738A68134363
:1030200023F480634A68134323F400630A6813435C
:1030300023F480530A69134323F400534A6913436A
:1030400023F48043CA69134302685364002380F861
:103050003C301846704702207047026802F10C03AA
:1030600053E8003F23F490730C3242E8003100290A
:10307000F3D1026802F1140353E8003F23F0010387
:10308000143242E800310029F3D1036B012B05D043
:10309000202380F84230002303637047026802F166
:1030A0000C0353E8003F23F010030C3242E80031D8
:1030B0000029F3D1ECE790F84130DBB2212B01D0AD
:1030C000022070478368B3F5805F17D0036A5A1CEB
:1030D00002621A7803685A60C38C9BB2013B9BB2B0
:1030E000C3844BB90268D36823F08003D3600268BD
:1030F000D36843F04003D360002070470369002B7E
:10310000E4D1036A1B880268C3F308035360036AAF
:1031100002330362E0E7000010B504460268136959
:1031200023F44053C1680B4313618368026913435E
:1031300042691A430168CB6823F4B05323F00C03AF
:103140001343CB600268536923F4407381690B43D6
:1031500053610268134B9A4220D0FFF7F7FC0246F6
:1031600002EB820202EB820263689B00B2FBF3F285
:103170000D48A0FB02314909642303FB11231B0105
:103180003233A0FB03235B0903F0F00202EB0112D0
:1031900003F00F03216813448B6010BDFFF7E6FCBA
:1031A0000246DDE7003801401F85EB512DE9F84369
:1031B00005460F4616469946DDF820802C6824689F
:1031C00037EA04030CBF4FF0010C4FF0000CB4457C
:1031D0002DD1B8F1FF3FF1D0B8F1000F05D0FEF7C7
:1031E000A3FFA0EB09004045E8D92A6802F10C03CF
:1031F00053E8003F23F4D0730C3242E80031002939
:10320000F3D12A6802F1140353E8003F23F00103CD
:10321000143242E800310029F3D1202385F84130EF
:1032200085F84230002385F84030032000E000207C
:10323000BDE8F88360B310B5044690F8413013B38D
:10324000242384F841302268D36823F40053D360E8
:103250002046FFF761FF2268136923F4904313614E
:103260002268536923F02A0353612268D36843F428
:103270000053D36000206064202384F8413084F838
:103280004230606310BD80F84030FEF79FFED7E704
:10329000012070472DE9F04182B01E4690F8413080
:1032A000DBB2202B4BD104460D46904600294AD074
:1032B0000AB9012044E000234364212380F841300F
:1032C000FEF732FF0746A4F82480A4F82680A368FE
:1032D000B3F5805F02D04FF000080FE02369FBB127
:1032E0004FF000080AE038F8023B2268C3F30803F5
:1032F0005360E28C92B2013A92B2E284E38C9BB2C8
:103300008BB100963B46002280212046FFF74EFFFE
:10331000D8B9002DE7D015F8012B23685A60E8E7EB
:10332000A8460025EAE700963B46002240212046B9
:10333000FFF73CFF58B9202384F8413000E0022019
:1033400002B0BDE8F0810120FAE70320F8E703208E
:10335000F6E7704708B50168CA6822F04002CA6003
:10336000202280F84120FFF7F4FF002008BD7047BD
:1033700008B5406A0023C385C384FFF7F8FF08BD82
:10338000704790F84230DBB2222B69D18368B3F5E5
:10339000805F4FD0826AB3F5805F04D0002B56D196
:1033A0000369002B53D103685B681370836A013390
:1033B0008362C38D9BB2013B9BB2C385002B51D16D
:1033C00000B583B00268D36823F02003D36002689D
:1033D000D36823F48073D3600268536923F0010338
:1033E0005361202380F8423000234363036B012B99
:1033F00033D100230363026802F10C0353E8003F5A
:1034000023F010030C3242E800310029F3D10368A5
:103410001A6812F0100F06D0002201921A68019269
:103420005B680193019B818DFFF7AAFF002003B029
:103430005DF804FB0269002AACD1826A03685B680C
:10344000C3F308031380836A02338362B1E703681E
:103450005B6803F07F031370A8E7FEF7E9F8E5E780
:10346000022070470020704730B583B004460268E0
:103470001368D068516913F00F0505D113F0200FC0
:1034800002D010F0200F19D12DB111F0010119D186
:1034900010F4907F16D1216B01297DD013F0800F9D
:1034A00003D010F0800F40F0188113F0400F03D0CC
:1034B00010F0400F40F0158103B030BD2046FFF7FB
:1034C00060FFF9E713F0010F06D010F4807F03D0FE
:1034D000626C42F00102626413F0040F04D019B16F
:1034E000626C42F00202626413F0020F04D019B160
:1034F000626C42F00402626413F0080F07D010F00F
:10350000200F00D119B1626C42F008026264626C53
:10351000002AD1D013F0200F02D010F0200F29D1B3
:1035200023685B6903F04003626C12F0080F00D15E
:1035300063B32046FFF791FD23685B6913F0400FEA
:1035400020D0226802F1140353E8003F23F0400327
:10355000143242E800310029F3D1E36B73B1634ABE
:103560005A63E06BFEF78AFE0028A5D0E06B436B40
:103570009847A1E72046FFF704FFD1E72046FFF771
:10358000F6FE99E72046FFF7F2FE95E72046FFF7A3
:10359000EEFE002363648FE713F0100F3FF47EAF5D
:1035A00010F0100F3FF47AAF0023019313680193DA
:1035B00053680193019B536913F0400F51D0E26BA4
:1035C00013685B689BB2002B3FF476AFA18D9942E4
:1035D0007FF672AFE3859369202B37D0226802F122
:1035E0000C0353E8003F23F480730C3242E80031AF
:1035F0000029F3D1226802F1140353E8003F23F0BD
:103600000103143242E800310029F3D1226802F1AB
:10361000140353E8003F23F04003143242E8003122
:103620000029F3D1202384F8423000232363226849
:1036300002F10C0353E8003F23F010030C3242E880
:1036400000310029F3D1E06BFEF7F4FD0223636340
:10365000A18DE38D9BB2C91A89B22046FFF790FE77
:103660002AE7A18DE38D9BB2C91A89B2E38D9BB283
:10367000002B3FF421AF00293FF41EAF226802F176
:103680000C0353E8003F23F490730C3242E80030FF
:103690000028F3D1226802F1140353E8003F23F01D
:1036A0000103143242E800300028F3D1202384F8CB
:1036B000423000232363226802F10C0353E8003FE9
:1036C00023F010030C3242E800300028F3D102232B
:1036D00063632046FFF754FEEEE62046FFF7EBFC5F
:1036E000EAE62046FFF736FEE6E600BF7133000843
:1036F00081628285C28500234364222380F84230A0
:10370000036923B10268D36843F48073D36002680D
:10371000536943F0010353610268D36843F0200307
:10372000D3600020704708B590F84230DBB2202B00
:1037300008D149B10AB9012008BD00230363FFF78E
:10374000D7FFF9E70220F7E70120F5E7014B1868FA
:10375000704700BF1000002070B50D4E0D4D761B58
:10376000B61006D0002455F8043B01349847A64211
:10377000F9D1094E094D04F09BFF761BB61006D017
:10378000002455F8043B01349847A642F9D170BD96
:10379000288C0008288C0008308C0008288C000831
:1037A000830730B548D0541E002A3FD00346CAB222
:1037B00001E0013C3AD303F8012B9D07F9D1032C1A
:1037C0002DD9CDB245EA05250F2C45EA054536D958
:1037D000A4F1100222F00F0C03F1200EE6444FEA90
:1037E000121C03F1100242E9045542E9025510325D
:1037F0007245F8D10CF1010214F00C0F03EB021228
:1038000004F00F0C13D0ACF1040323F003030433D2
:10381000134442F8045B9342FBD10CF003042CB137
:10382000CAB21C4403F8012B9C42FBD130BD644654
:103830001346002CF4D1F9E703461446BFE71A46B5
:10384000A446E0E7000000002DE9F04F0025824685
:103850009748A1B00068884607921C4608901C95BE
:1038600002F06EF90021834600204246CDE90401B2
:10387000CDF86C80174612F8013B2D2B2FD8DFE8CE
:1038800013F0A0002E002E002E002E002E002E0081
:103890002E002E00AD00AD00AD00AD00AD002E003D
:1038A0002E002E002E002E002E002E002E002E00A8
:1038B0002E002E002E002E002E002E002E002E0098
:1038C0002E00AD002E002E002E002E002E002E0009
:1038D0002E002E002E002E0002042E00F8030022DF
:1038E0000992302B7CD000220B922F2B1C4640F2E9
:1038F00029854FF0000938464E464D4612E001300A
:10390000082D1B90C8BF09EB89090478C6BF03EBDB
:103910004903A3F13009A2F130062F2C234605F10B
:1039200001056EDD06EB8602392C03EB4202E6DD73
:103930005A46089902F032F9002835D11B9B1A46E5
:103940005B441B9312F80B40002D40F0A885302CEF
:1039500040F06085C3F10102981801331B931C7875
:10396000302CF9D0A4F13103082B00F23583A4F1F7
:10397000300E1B9C00230125274600F1010B0A9302
:10398000002006EB86060EEB4606631C1B9364784C
:10399000A4F13001092900F2E9828E4601300029A4
:1039A00040F0AF841B9CF0E70020652C83468446E2
:1039B0000A9501D0452C30D1002D7ED10B9B0343BD
:1039C0007AD14FF0000B079BD94613B1079BC3F880
:1039D00000805846494621B0BDE8F08F1B9249E768
:1039E0007B7803F0DF03582B00F06D8401371B97C1
:1039F0003B78302BFAD0002B00F0CE8001220B92C6
:103A000073E75A46089902F0C9F8002800F0D780F9
:103A10000A954FF0000B5846DC4600230C93002D0E
:103A200000F096800A9A30461346002A08BF2B46BB
:103A30000A93FCF7BBFE02460B46DDF830C0102DA2
:103A40002C46ACEB0B0CA8BF1024092DCDE90423A8
:103A5000CDF82CC014DD174B03EBC40353E912233C
:103A6000FCF71EFF0246484690468946FCF79EFE3C
:103A700002460B4640464946FCF75CFDCDE9040191
:103A80000F2D00F3A5800B9B002B00F00F840B9BE8
:103A900040F38A83162B40F3F4840B9AC5F1250377
:103AA000934280F207850B9B2C1B1C4496E000BFC1
:103AB000F8880008B88900080025DDF86C8008F156
:103AC00001031B9398F801402B2C00F082822D2CCF
:103AD00000F01B824FF0000EA4F13003092B00F21E
:103AE0000F82302C05D11B9B01331B931C78302C8B
:103AF000FAD0A4F13103082B8FD81B9AA4F130011E
:103B0000531C1B93547808922F2C09DC00F029BC1D
:103B10001C4601331B936478A2F130012F2C05DD84
:103B200001EB8102392C04EB4202F1DD089A9B1A69
:103B3000082B40F3168444F61F630C93BEF1000F6C
:103B40003FF46DAF0C9B5B420C93002D7FF46AAF8A
:103B50000B9B034320D1BCF1000F7FF432AF692CE3
:103B600000F01B8400F33983492C00F016844E2C9E
:103B70007FF427AFAA491BA801F0ACF900283FF455
:103B800020AF1B9B1B78282B00F07385A54801F004
:103B9000CDFF8346894602E04FF0000BD946079AD5
:103BA0000AB11B9B1360099B002B3FF412AF09F174
:103BB000004399465846494621B0BDE8F08F1B9B0B
:103BC0000A9503EB0B021B9213F80B408346DFE6CA
:103BD0000B9B2C1B1C44002C40F3048314F00F009F
:103BE0000AD0DDE90423904901EBC001D1E90001CD
:103BF000FCF756FECDE9040134F00F0340F0868255
:103C0000002308932B46394650460A9A009601F045
:103C1000F7FA1390002800F04E830C9BABEB0301E6
:103C20000B9B002BB4BF0A4600220E920022934643
:103C3000904623EAE3731293139C5046616801F0A7
:103C40005DFA0746002800F04081226904F10C016A
:103C5000023292000C30FCF7F1FBDDE904010C4666
:103C600011911EA901911DA902460A9023465046B2
:103C7000009101F069FE1C90002800F016810121DE
:103C8000504601F063FB8046002800F01E811D9B1A
:103C9000002BC0F20D810E9A129D9E18089A1E9C50
:103CA0009B1A2344614A013B9342C4F1360480F2DB
:103CB000AE80D21A1F2A4FF00109A4EB020400F3D0
:103CC0001981002309FA02F90C93089B2544344416
:103CD000A6421D443346A8BF2346AB42A8BF2B468D
:103CE000002B02DDE41AED1AF61A0E9B002B00F3EE
:103CF000BC80002C00F3D0800B9B002B00F3DC80F9
:103D0000002D00F3ED80002E08DD4146324650467E
:103D100001F054FC8046002800F0D7803A46504617
:103D20001C9901F0E1FC8346002800F0CE800026BB
:103D3000C3684146C6600F9301F0B6FCB042C0F2C2
:103D4000678400F0CE834146584601F05FFE0022B2
:103D50004FF0804304460D46FDF71EF800286DD055
:103D60000F9B002B00F0DD8000223546059B304C78
:103D700010932F4BCDE90C232E4E109A2E4B02EAB6
:103D80000609994500F0F880089B93B1B9F1D46F0A
:103D90000FD821A3D3E9002328462146FCF7FCFFD6
:103DA000002840F084810D9B03F1D663A3EB090347
:103DB0000D93119E0A983146DDE90C23CDE90423C9
:103DC00001F038FD02460B46DDE90401FCF768FD11
:103DD00033460A9AFCF7AEFB0E46CDE90401089B78
:103DE00023B9144B3340994500F0FF8050461C998D
:103DF00001F0AAF93946504601F0A6F9414650466D
:103E000001F0A2F95946504601F09EF914E700234B
:103E10004FF001090C9358E70000C0FFFFFFDF419E
:103E200004870008988A0008B889000802FCFFFF90
:103E30000000F03F0000F07F0000E07F20462946B0
:103E40000022AB4BFCF72CFD0F9B024605460C46AF
:103E5000002B62D101F1004314901593059B109340
:103E6000DDE91423CDE90C2386E741461A46504686
:103E700001F048FB804640B301461C9A504601F0D1
:103E800093FA10B30F901C99504601F05DF90F9B07
:103E9000002C1C937FF730AF224650461C9901F04E
:103EA0008DFB1C9000287FF427AF5E460B970FE038
:103EB000129A0E9ED51AF1E639465046129A01F032
:103EC00021FB074600287FF41BAF5E460B971C982A
:103ED00022234FF0000BDFF81C92CAF80030B3E049
:103EE00039462A46504601F069FB074600287FF410
:103EF0000AAFEAE7804AD31A09FA03F30C93E4E61F
:103F00000023CDF86C800C9389E54FF0010E08F189
:103F100002031B9398F80240DEE50B46CDE914231B
:103F20009CE7DDE90412002940F0B080C2F31303DE
:103F30001092002B40F0B0800022204629466F4BA3
:103F4000FCF720FF002840F0AE8220462946684B4F
:103F50000022FCF7A5FC05460C4601F10043189031
:103F60001993DDE91823CDE90C2305E7652C4FF003
:103F7000010C3FF4A2AD1DE5A2F154730593DDE9F8
:103F80000423DDE90C01CDE9040110461946CDE911
:103F90000C2301F04FFC02460B46DDE90401FCF75F
:103FA0007FFCDDE90C23FCF7C5FA554A0B46CDE949
:103FB00004013140914276D9119A524B9A4202D172
:103FC0000A9B013381D04FF0FF334E4ACDE90432D2
:103FD0000CE74FF0000E9AE7652C00F0F780452CB7
:103FE00000F0F4804FF0010CB2E528462146FDF7C1
:103FF0001BF8FCF727FC0B46024621462846FCF737
:1040000097FA0F9C049DC6F3130644EA050C5CEA7C
:10401000060304460D4600F0BE8031A3D3E9002319
:10402000FCF7B0FE48B930A3D3E900232046294667
:10403000FCF7C6FE00283FF4D9AEDDE904345E4645
:10404000A1469B461C980B970146504601F07CF810
:1040500050460B9901F078F84146504601F074F84B
:104060005046139901F070F83146504601F06CF853
:1040700095E5012309937A1C1B927B78002B3FF472
:10408000A0AC17462DE400230993F4E7DDE9041200
:10409000012900F06E81109200221B4B0025CDE912
:1040A0000C23164C68E603F15476059697E62146F4
:1040B0002846FCF7A5FE012838BF0120FCF776FB57
:1040C0000F9B024605460C46002B40F0628101F131
:1040D000004316901793DDE91623CDE90C2362E621
:1040E0009535A094FFFFDF3F35E5AF350000E03F99
:1040F0000000E03F0000F07FE2FBFFFF0000F03F28
:10410000FFFF9F7CFFFFEF7F0000F0BFB3F59A7FBA
:1041100000F3D180102B4FEA231440F3C082DDE975
:1041200004010023AC4A99469046089214F0010F0E
:1041300009F101094FEA640404D0D8E90023FCF72F
:10414000AFFB0123012C08F10808EFD10BB1CDE939
:104150000401089B03EBC909059BD9E90001A3F100
:1041600054730593DDE90423FCF79AFB9B4B9C4AAF
:104170000B409342CDE9040100F29D80A2F580122C
:10418000934240F222824FF0FF339649CDE9043149
:104190000023089336E58EA3D3E90023FCF7F2FD54
:1041A00000283FF423AE48E71633FFF611ADDDE9F2
:1041B00004010C9BABEB030A8B4B03EBCA03D3E963
:1041C0000023FCF797FC83468946E8E400234FF080
:1041D000010C9B460A93FFF7F1BB6E2C3FF4CAAC6F
:1041E000FFF7EFBB3FF40CAD644214F00F020AD0AE
:1041F000DDE904017C4B03EBC203D3E90023FCF7A8
:1042000079FCCDE9040124113FF4FAAC1F2C35DC14
:10421000DDE9040114F0100318BF6A23089300239A
:10422000DFF8C881E20704D5D8E90023FCF738FBA2
:104230000123641008F10808F4D10BB1CDE90401A1
:10424000089B93B1DDE90401C1F30A52C2F16B038B
:10425000002B0ADD1F2B40F34C820020342B0490EE
:1042600040F352824FF05C7305930022DDE90401B4
:104270000023FCF77DFD00283FF4C4AC22234FF05F
:10428000000BCAF80030D94689E41E9B04931D9B9D
:1042900003F233421F9B23F4801343EA0253059336
:1042A000200742BF059B43F000430593DDE904343A
:1042B0009B46A14673E422234FF0000BDFF81C91CC
:1042C000CAF800306BE4099B029401931CAB009385
:1042D0005046474A1DAB1BA900F01AFB10F007051A
:1042E00004463FF459AC062D40F097804FF0000B88
:1042F000079BD9460137002B3FF46BAB1F60FFF7DC
:1043000068BB6B1C01281A461B9C834415D02844AB
:1043100000F1FF3C03E046009C450DD001332A46E6
:10432000082A1D4606EB8600F5D9102BDCBF09EBE9
:1043300089094FEA4909EFE70232082D5EDC15468C
:10434000FFF71EBB5A463846089901F027FC0028A3
:1043500000F08D8000231D4699461E460A93FFF704
:1043600058BB44F61F639942A8BF19460C91FFF74A
:10437000E5BBDDE904341094002C7FF48DAE5E467D
:104380000B9722234FF0000B1C98D946CAF8003037
:104390005AE60B46CDE916239DE616491BA800F008
:1043A00099FD00283FF40DAB1B9B1349013B1BA853
:1043B0001B9300F08FFD10B91B9B01331B934FF033
:1043C000000BDFF81890FFF7EABB00BFAFF30080E7
:1043D0009535A094FFFFCF3F908900080000F07F43
:1043E0000000A07CFFFFEF7FB8890008308700083D
:1043F00008870008F8860008FC860008102AD8BF45
:1044000009EB890915464FF00000D8BF01EB4909B7
:10441000FFF7BBBA0020FFF7A5BA1C9A3AB13521C5
:104420001EA801F023FB50461C9900F08DFE013DB3
:10443000042D3FF635AF01A353F825F08B42000859
:10444000654400085F440008514400088B4200089E
:104450004FF0FF336FF00045CDE9043520E7AF4B57
:1044600005931DE71E9B04931F9B059318E71B9B59
:1044700006461A465B441B93814612F80B40FFF731
:1044800066BA0B98A649DDE9042301EBC001D1E926
:104490000001FCF705FA83468946FFF780BB834697
:1044A0000A95FFF775BA00229E4B0F9DCDE91823A0
:1044B0009D4C56E59A4CC5F10F0504EBC501DDE9AD
:1044C0000423D1E90001FCF7EBF90B9B5D1B04EB26
:1044D000C504D4E90023FCF7E3F983468946FFF7D6
:1044E0005EBB0F9B5E46CC460B97DDF828B00C9F59
:1044F000DDF84490002B6FD0DDE904458B4BC5F30C
:10450000130199422A463CD0002F00F0AB80DDE930
:1045100004231F421C4621D00F9B58464946002BBE
:1045200000F0C28001F086F9089D02460B467DB17D
:10453000C4F30A54C4F16B04002C09DD240504F112
:104540007F53002203F54013FCF7AAF902460B46FD
:1045500058464946FBF7EEFF83468946089B73B1F0
:1045600058464946724B0022FCF79AF903460B4322
:1045700008BF22238346894608BFCAF800301C982A
:1045800062E5089B0499002B00F0BB80634B2B4035
:10459000B3F1D46F00F2B5804FF0FF301B0DC3F1C3
:1045A0006B0300FA03F39942AED1624B9A4200F0DA
:1045B000E0805A4B134003F58013059300230493C6
:1045C000DDE904349B46A146C8E701F15473059325
:1045D00000230893FFF716BBDDE90412C2F31303AF
:1045E0000B43144690D1089B002B40F0B7804B4BF7
:1045F0002340A3F580136FEA13536FEA0353059327
:104600004FF0FF330493DDE904349B46A146A5E750
:104610000F9BDDE904120B4358465E46DDF84490DB
:10462000DDF828B00B9799D1C2F313031446002B81
:1046300094D122F000431B0D1B05B3F1D66F8DD929
:10464000436913B90369012B88DD314601225046C5
:1046500000F0B4FF4146064601F026F800287FF737
:104660007DAFC0E7DDE904341CEA030F3FF476AF09
:1046700052E731491BA81EAA00F046FC05287FF42A
:1046800085AA1F9B43F0FF4343F4E00305931E9B61
:104690000493DDE904349B46A146FFF780BA274B1B
:1046A0004FF00009089354E501F0C4F8089D024654
:1046B0000B46002D44D0C4F30A54C4F16B04002C03
:1046C00009DD240504F17F530F9A03F54013FCF72D
:1046D000E7F802460B4658464946FBF729FF0022F9
:1046E000002383468946FCF743FB00283FF438AF9C
:1046F00047E64FF0FF3202FA03F3049A1A4004929D
:10470000B3E54FF0FF334EE74FF0FF33C2F14B02FA
:1047100003FA02F202EA01030593A6E50000F07F26
:10472000B88900080000E0BF0000E03FFFFF0F0075
:1047300000005039FFFFEF7F1C87000890890008B8
:1047400058464946FBF7F4FE00220023834689467B
:10475000FCF70EFB00283FF412AF12E6074B234094
:10476000B3F1D66F3FF745AFB3F15C7F3FF7F8AEDB
:1047700007E601317FF41DAFFFF7A9BB0000F07F12
:104780002DE9F0410446214F0A46214B2146386865
:10479000FFF75AF802460B460C460546FCF71AFB93
:1047A00040BB21462846FCF74BFB20F0004806465C
:1047B00018494046FCF70AFCC8B940461549FCF7C1
:1047C000E7FBA0B924F0004428464FF0FF32214611
:1047D000114BFCF7FFFA38B928464FF0FF3221465B
:1047E0000D4BFCF7D9FA10B122223B681A60304613
:1047F000BDE8F081002C094804DA01F09DF900F1D0
:104800000046F4E7BDE8F04101F096B91000002041
:1048100048040020FFFF7F7FFFFFEF7F988A00089A
:10482000024B13B1024800F005B8704700000000C9
:1048300041480008002301461A46184601F0FAB91B
:1048400038B5084B084D5B1B9C1007D0043B1D443A
:10485000013C55F804399847002CF9D1BDE838409F
:1048600003F02CBF348C0008308C00082DE9F04197
:104870000469B4EB611F2FDD00F1140E4E1111F02D
:104880001F0C0EEB84050EEB86032BD05EF8262062
:1048900004339D4222FA0CF1CCF1200818D9774656
:1048A0001A6802FA08F20A4347F8042B53F8041B6B
:1048B0009D4221FA0CF1F3D8A41BA300053B9B08F1
:1048C00001330EEB83044EF82310C9B1043417E012
:1048D000744641610029F9D100230361002343613B
:1048E000BDE8F0819D4288BF00F11002F4D953F871
:1048F000041B9D4242F8041FF9D8A41B0EEB84044C
:10490000A4EB0E039B1074450361E7D0BDE8F08172
:104910002DE9F04F0446A948894606688BB0304619
:10492000029207930396059401F00AF93346D9F8E9
:1049300000500344A9780246302913F801BC40F026
:10494000DB816FF00100EB1C401B1D4600EB030AEE
:1049500013F8011B3029F8D0DFF8648218F8013011
:10496000002B00F0F18000273C462B7818F803302C
:104970002E462BB116F8013F18F80330002BF9D161
:1049800030460399019201F009F9019A009000283C
:1049900000F09280002C40F092803378009403F075
:1049A000DF03502B344600F09480C9F80060002FDC
:1049B00040F0AC80631B013B072B394604DD5B10E4
:1049C000072B01F10101FADC0598049200F096FB37
:1049D000049A0190002800F06A82019BA54203F12D
:1049E0001406069680F0DD810027C2F10103B94666
:1049F000049311E0202F00F092803946043714F818
:104A0000013C544618F80330AC4203F00F0303FA9C
:104A100001F349EA030916D914F8013C04F1FF3AFD
:104A20005B45E7D1049B5344AB42E3D3184603995B
:104A30000992089301F0B2F8DDE908320028D9D1D3
:104A40001C46AC42E8D8069B46F8049BF61A019B2C
:104A5000B6101E61484600F02DFC029B76011C68D2
:104A6000301AA04200F3AE80C0F226810027029BDC
:104A7000009A9B689342C0F289810299009A4B6820
:104A800093427EDD9D1AAC4200F3BC80CA68022AC4
:104A900000F0BC81032A00F0B481012A00F0988163
:104AA00050250598019900F04FFB00232846149AE1
:104AB00013600BB0BDE8F08F002C00F00B81A41B3D
:104AC000A30000933378344603F0DF03502B7FF4C8
:104AD0006CAF63782B2B00F0ED802D2B6AD000207B
:104AE000661C18F803104B1E182B61D87378103908
:104AF00018F80330013623BB00B14942009BC9F8C6
:104B000000600B440093002F3FF454AFBAF1000F44
:104B100014BF0025062528460BB0BDE8F08F002104
:104B200046F8049B0427894669E701EB810103EB02
:104B30004103A3F1100116F8013F18F80330002BD0
:104B4000DAD0192BF1DDD7E728460399009201F05E
:104B500025F8009A002873D1A95CAC1818F8013028
:104B6000002B6FD03029254605D115F8013F302B99
:104B7000FBD018F80330B3FA83F74FF0010A7F092E
:104B8000F6E6012557B1029BDB68022B62D0032BAE
:104B900064D0012B00F0858045F010052846149B59
:104BA000019A1A60079B009A1A600BB0BDE8F08F5B
:104BB0002646FAE60120A378A61C92E7F8880008AA
:104BC000F4870008019D061B3146284600F07EFF51
:104BD000074678B10127721E0699531151F8231028
:104BE00002F01F0307FA03F30B4203D0BA4200F3AB
:104BF000E2800227009B3146334401980093FFF77F
:104C000035FE34E76E1E002F40F0C980002E40F0C4
:104C1000CC8001230699721151F8222006F01F065C
:104C200003FA06F629461642019818BF47F0020714
:104C3000FFF71CFE029B641B5B6802250093A1E743
:104C40002C46297801F0DF01502900F0BD80C9F819
:104C500000405BE7159BC3F101031593159B002BE7
:104C60009AD0019BDDF818801E6900204346B700EA
:104C700008EB860103E0994243F8040C40D99C46B6
:104C800053F8042BB2F1FF3FF5D00132022DCCF8DE
:104C9000002000F0C08014F01F0440F0E2802125C5
:104CA0007CE7BA077FF578AF069B1B681F43FB07BD
:104CB000D7D471E700207EE7221ADDE9003105989C
:104CC0009B1A009300F07AFC0346143300270190EE
:104CD0000693CCE6B35CB01818F80310064600291A
:104CE0003FF45DAE16F8013F18F803100029F9D122
:104CF000801B8100009152E64FF0000A02352BE63E
:104D0000019B9B689E4280F28D8033460121019A6F
:104D10005818022D02EB8303106159617BD0864243
:104D2000B9DA002840F3AA80019A08EB80005369A1
:104D300002F1180188424FEA530340F2B280444620
:104D40000A6843EAC27344F8043B51F8043B8842C2
:104D50004FEA5303F4D8019A821A193A92080132A1
:104D600048F8223008EB8202002B40F09E80019927
:104D7000A2EB08039B1042450B6100F08280029B6E
:104D8000009A9B6801329342009288DA0199059853
:104D900000F0DAF90023149AA3251360BBE601277B
:104DA00037E74FF00009069E4DE63146019800F0C6
:104DB0008DFE07462DE72846B11E00F087FE00282D
:104DC0003FF417AF032715E700230127009380E680
:104DD000AC427FF465AE012C08D00198611E00F052
:104DE00075FE00283FF45CAE029B5B6801220799C8
:104DF00062250B60019B06991A610A60149A136080
:104E000089E6159A002A3FF44BAEEFE7159A002A7F
:104E10007FF446AEEAE7029B1B68013BA34234D015
:104E20002225BBE6019B05985968013100F066F91F
:104E30008046002841D0DDF804900C304946D9F86E
:104E400010300C3102339A00FBF7F8FA4946059806
:104E500000F07AF9D8F81030CDF8048008F1140881
:104E600054E7474457F8040C00F024FAC4F1200436
:104E7000A042BFF614AF019B186952E70023019AC4
:104E800013610023019A536179E70123621158F8F5
:104E9000222004F01F04A34013420CBF2225212529
:104EA0007CE64246C8F800306BB104325FE7024648
:104EB000DE21064B064800F003FF02468421034B27
:104EC000034800F0FDFE019A1361DAE758870008F5
:104ED0006C87000810B58646046809E014F8013FA5
:104EE000A3F1410CBCF1190F98BF2033934208D1B4
:104EF00011F8012B002AF1D101340120CEF8004035
:104F000010BD002010BD00BF2DE9F04F096885B02D
:104F10004B1111F01F01029002EB8303039140F04B
:104F20008E801D1F0193002302990198096840F8A3
:104F3000043C4C1C4978002900F09780A846AC46F8
:104F40009A461E46DFF868910EE0202900F28B8019
:104F5000B24506DAC44501D2072B5BDD624551D369
:104F6000082314F8011FA1B119F801000028ECD0A2
:104F70000133082B06F101063ADCDCF800100901C8
:104F800000F00F000843CCF8000014F8011F0029BE
:104F9000EAD1002E69D0E04501D9072B73DD6245C7
:104FA00051D26346111F53F8040B9D4241F8040F80
:104FB000F9D2A5EB0C0323F00303691C04330CF1B5
:104FC000010C614538BF04230021134443F8041B3E
:104FD0009D42FBD2019B53F8043C2BB9AA4248D016
:104FE00055F8043D002BF9D0052005B0BDE8F08F41
:104FF0006245B6D20023ACF1040CCCF8003019465F
:105000000123BDE70023ACF104084CF8043CB24690
:10501000C446A6E7C3F10801890060468B46DCF868
:105020000030C1F1200E416801FA0EF73B430360E6
:1050300021FA0BF340F8043F4045F4D38EE7191DE5
:105040001D4601916FE7039B002BC3D04FF0FF3348
:10505000019C039954F8040CC1F12001CB4003409A
:1050600044F8043CB9E7292909D0042005B0BDE87B
:10507000F08F012305202B6005B0BDE8F08F029969
:1050800001340C6085E76446C3F108039B00DCF83B
:105090000010C3F12007666806FA07F0014321609B
:1050A00026FA03F144F8041FA045F4D877E700BFBF
:1050B000F4870008014B93F828017047480400204A
:1050C000704700BF704700BF704700BF704700BF08
:1050D00082B049B15AB16BB113780B601278101ECF
:1050E00018BF012002B0704701A9002AF3D1104671
:1050F00002B070476FF00100F4E700BF38B5C36C31
:1051000005460C464BB153F8240080B1026843F8C1
:1051100024200023C0E9033338BD2122042100F0FC
:10512000EFFD0346E8640028EDD1002038BD0121E1
:10513000284601FA04F56A1D920000F0E1FD0028FE
:10514000F3D0C0E90145E4E731B1C36C4A6853F8D4
:105150002200086043F82210704700BF2DE9F0419B
:105160004FF0000E0E461C460D69074601F1140073
:1051700001680EF1010E8BB202FB0343090C4FEAEA
:10518000134C02FB01CC9BB203EB0C43754540F87A
:10519000043B4FEA1C44EBDC3CB1B368AB4207DD97
:1051A00006EB850301355C6135613046BDE8F08171
:1051B000716838460131FFF7A1FF8046A8B1326916
:1051C00006F10C01023292000C30FBF737F9FB6C50
:1051D000726853F82210316043F82260464606EBAD
:1051E000850301355C613561DFE70246B521024B7D
:1051F000024800F065FD00BF5887000810890008CC
:105200002DE9F8431E46DFF8A0C0174603F1080257
:105210008CFB023C092E4FEAE27305460C46C3EBB9
:105220006C0339DD4FF0010C00214FEA4C0C634553
:1052300001F10101F9DC2846FFF760FF014668B380
:10524000089B092F43614FF00103036112DC09271A
:105250000A34BE420BDDF61B264414F8013B0A2239
:105260002846303BFFF77AFFA6420146F5D10846B3
:10527000BDE8F88304F10909C8463C4418F8013B2D
:105280000A222846303BFFF769FFA0450146F5D1C9
:10529000A7F108044C44DCE70021CCE70246CE210C
:1052A000024B034800F00CFD398EE33858870008A4
:1052B00010890008020C12040346CAB9102083406A
:1052C00013F07F4F04BF1B02083013F0704F04BF70
:1052D0001B01043013F0404F04BF9B000230002B31
:1052E00005DB13F0804F00F1010008BF202070475C
:1052F0000020E5E70368024613F0070009D0D9074C
:105300001FD498074BBF5B089B0801200220136045
:10531000704799B209B91020C340D9B209B9083011
:105320001B0A190704BF1B090430990704BF9B0817
:105330000230D90703D45B0800F1010003D01360E9
:105340007047002070472020704700BF38B5C36CFD
:1053500004460D464BB15868B0B102685A6000224D
:1053600001234561C0E9032338BD2122042100F057
:10537000C7FC0346E0640028EDD100224FF4A07181
:10538000074B084800F09CFC1C220121204600F03D
:10539000B7FC0028F1D001220223C0E90123DEE797
:1053A00058870008108900082DE9F04F0E6915692B
:1053B0008846AE42144685B005DB2A46234635466C
:1053C0000C4616469846A3686168AF19BB42B8BF41
:1053D0000131FFF793FE0190002800F08780019BC8
:1053E00003F1140909EB870AD14505D24B46002287
:1053F00043F8042B9A45FBD808F1140808EB860BF8
:1054000004F11403D8451A4603EB85055FD22B1B24
:10541000153B23F0030304331534A54238BF04239E
:10542000CDE902A7AC461F46924605E0000C29D103
:10543000C34509F1040948D958F8040B85B2002D79
:10544000F4D056464C46002356F8040B216882B22D
:105450001FFA81FE05FB02EE000C0A0C05FB002280
:10546000734402EB13429BB243EA0243B44544F84F
:10547000043B4FEA1243E7D849F8073058F8040CC8
:10548000000CD5D0D9F80030544619464D460022BC
:105490002688090C00FB06119BB20A4443EA02432A
:1054A00045F8043B54F8046B2968360C8BB200FBBA
:1054B0000633A44503EB12434FEA1342E8D8C34531
:1054C00049F8073009F10409B6D8DDE902A7002F31
:1054D00002DC05E0013F03D05AF8043D002BF9D06F
:1054E000019B18461F6105B0BDE8F08F024640F2EF
:1054F0005D11024B024800F0E3FB00BF5887000833
:105500001089000812F003032DE9F0411446074604
:105510002ED10E46A4101CD0BD6C95B3E3074FF0FE
:10552000000806D4641014D02868A8B10546E30723
:10553000F8D52A4631463846FFF736FFB6B17168CE
:10554000FB6C641053F82120326043F8216006465A
:10555000EAD13046BDE8F0812A4629463846FFF7B1
:1055600023FF28600546C0F80080E0E70646D9E73B
:105570000F4A013B52F823200023FFF7EFFD0646B8
:10558000C8E701213846FFF7B9FD054640B140F2B2
:1055900071230122C0E904230023B8640360BDE73E
:1055A00002464FF4A071034B034800F089FB00BF93
:1055B000808A000858870008108900082DE9F04704
:1055C0000C462669A36806EB6216751C9D42904640
:1055D000074649684FEA621904DD5B009D4201F10C
:1055E0000101FADC3846FFF789FD002851D0B9F1F6
:1055F000000F00F114010FDD0B464FF0000C09F114
:1056000005024FEA820E00EB820243F804CB93427C
:10561000FBD1AEF114031944226904F1140318F00C
:105620001F0803EB820C2CD08E464FF0000AC8F105
:1056300020091A6802FA08F242EA0A024EF8042B1C
:1056400053F8042B9C4522FA09FAF2D8ACEB040378
:10565000153B23F00303043304F11502944538BFCE
:105660000423BAF1000F18BF2E4641F803A0FB6CCB
:105670006268066153F82210216043F82240BDE8B9
:10568000F087043953F8042B9C4541F8042FF9D8CE
:10569000EDE7024640F2D911014B024800F010FB41
:1056A000588700081089000884460B690069C01AF1
:1056B00015D10CF1140C14310CEB830210B401EB76
:1056C000830301E0944508D252F8044D53F8041DB9
:1056D0008C42F7D004D24FF0FF3010BC70477047B7
:1056E000012010BC704700BF2DE9F84F0C69136909
:1056F0008946E41A002C17467DD101F114061432B4
:1057000002EB830206EB830301E09E4276D253F85C
:10571000045D52F8041D8D42F7D067D3D9F8041008
:10572000FFF7ECFC002873D0D9F81050C46000F1EA
:10573000140426464FF0000A3B6909F1140807F1EA
:10574000140E09F1100C08EB85020EEB83095CF8CE
:1057500004BF5EF8041B1FFA8BF353441FFA81FA4F
:10576000090CA3EB0A03C1EB1B4101EB23419BB2E4
:1057700043EA0143F14546F8043B4FEA214AE6D8A3
:10578000A9EB070115391537B94521F0030606F1D4
:10579000040638BF042621F0030138BF0021B044BD
:1057A000424526440C4418D93746444654F8041B55
:1057B0008BB253444FEA234A0AEB11419BB243EAAE
:1057C0000143A24247F8043B4FEA214AEED8541E57
:1057D000A4EB080424F00304344423B954F8043D32
:1057E000013D002BFAD00561BDE8F88F4B4601243E
:1057F000B9461F4692E7F9DB00248FE70021FFF747
:105800007DFC60B101220023C0E90423BDE8F88FCC
:1058100002464FF41071054B054800F051FA02465C
:1058200040F23221014B024800F04AFA5887000842
:10583000108900080F4B0B40A3F15073002B02DDC1
:105840000020194670475B42B3F1A07F4FEA235214
:1058500005DA4FF40023002043FA02F17047143AAE
:105860001E2AD6BF4FF00043012223FA02F2002184
:10587000104670470000F07F2DE9F041076900F104
:10588000140606EB87070C4657F8041CA7F104081A
:105890000846FFF70FFDC0F120030A28236036DD1C
:1058A00046451ED2B0F10B0357F8082C26D0C3F1A1
:1058B000200C994022FA0CF00843A7F1080140F0AF
:1058C0007F558E4245F440153AD202FA03F057F85C
:1058D0000C3C23FA0CF303431C4620462946BDE842
:1058E000F081B0F10B0308D001FA03F0002340F07F
:1058F0007F551C4645F44015EFE71A46144641F023
:105900007F5545F4401520462946BDE8F081C0F199
:105910000B0321FA03F2464542F07F552CBF0022CB
:1059200057F8082C45F4401538BFDA4000F115034C
:1059300001FA03F343EA020420462946BDE8F08158
:1059400002FA03F31C46C8E770B5012182B016467F
:105950001D46FFF7D3FB044600284CD02B46C5F369
:105960000A55C3F313030DB143F48013002E0193C2
:1059700022D068460096FFF7BDFC002837D0019B77
:105980000099C0F1200203FA02F20A43C3400193D6
:105990006261002B14BF02210121A3612161B5B115
:1059A000069BA5F2334505441D60079BC0F13500F9
:1059B0001860204602B070BD01A8FFF79BFC0123D0
:1059C000019A1946626120302361002DE8D104EB71
:1059D0008102A0F232431069069A1360FFF76AFC55
:1059E000C0EB41112046079B196002B070BDDDE994
:1059F00000236261CDE7024640F20A31014B0248C2
:105A000000F05EF958870008108900082DE9F0437E
:105A100083B0884669468146FFF72EFF04460D464F
:105A2000404601A9FFF728FFD9F81030D8F8102018
:105A30000F469A1ADDE90063F31A03EB4213002BB9
:105A40000CDD05EB035906464D4632463B462046E3
:105A50002946FBF74FF803B0BDE8F083C3EB0333EF
:105A600001EB035106460F46EFE700BF01F1FF3C93
:105A7000116902F114034FEA6C1C03EB81010CF174
:105A8000010C8B4200EB8C0C16D210B5A0F1040E69
:105A900053F8044B99424EF8044FF9D88B1A153B32
:105AA00023F0030304331844844504D9002340F849
:105AB000043B8445FBD810BD844505D9002340F83C
:105AC000043B8445FBD87047704700BF03694A1107
:105AD000934200F1140009DA00EB830302E053F86B
