:020000040800F2
:1000000000000120912200088D1C00088F1C0008B0
:10001000911C0008931C0008951C000800000000BB
:10002000000000000000000000000000971C000815
:10003000991C0008000000009B1C00089D1C000883
:10004000D9220008D9220008D9220008D9220008A4
:10005000D9220008D9220008D9220008D922000894
:10006000D9220008D9220008A51C0008D9220008BE
:10007000D9220008D9220008D9220008D922000874
:10008000D9220008D9220008D9220008D922000864
:10009000D9220008D9220008D9220008D922000854
:1000A000D9220008D9220008D9220008D922000844
:1000B000D9220008D9220008D9220008D922000834
:1000C000D9220008D9220008D9220008D922000824
:1000D000D9220008B11C0008D9220008D922000842
:1000E000D9220008D9220008D9220008D922000804
:1000F000D9220008D9220008D9220008D9220008F4
:10010000D9220008D9220008D9220008D9220008E3
:10011000D9220008D9220008C11C0008D9220008F1
:10012000D9220008D9220008D9220008D9220008C3
:1001300000000000000000000000000000000000BF
:1001400000000000000000000000000000000000AF
:10015000000000000000000000000000000000009F
:10016000000000000000000000000000000000008F
:10017000000000000000000000000000000000007F
:10018000000000000000000000000000000000006F
:10019000000000000000000000000000000000005F
:1001A000000000000000000000000000000000004F
:1001B000000000000000000000000000000000003F
:1001C000000000000000000000000000000000002F
:1001D000000000000000000000000000000000001F
:0401E0005FF8E0F1F3
:1001E80010B5054C237833B9044B13B10448AFF369
:1001F80000800123237010BD580400200000000077
:100208003C44000808B5034B1BB103490348AFF34E
:10021800008008BD000000005C0400203C44000889
:1002280081F0004102E000BF83F0004330B54FEA9F
:1002380041044FEA430594EA050F08BF90EA020F0C
:100248001FBF54EA000C55EA020C7FEA645C7FEA9F
:10025800655C00F0E2804FEA5454D4EB5555B8BFC2
:100268006D420CDD2C4480EA020281EA030382EA33
:10027800000083EA010180EA020281EA0303362DC5
:1002880088BF30BD11F0004F4FEA01314FF4801C98
:100298004CEA113102D0404261EB410113F0004FAA
:1002A8004FEA03334CEA133302D0524263EB430361
:1002B80094EA050F00F0A780A4F10104D5F1200EFF
:1002C8000DDB02FA0EFC22FA05F2801841F100015A
:1002D80003FA0EF2801843FA05F359410EE0A5F12E
:1002E80020050EF1200E012A03FA0EFC28BF4CF05F
:1002F800020C43FA05F3C01851EBE37101F0004515
:1003080007D54FF0000EDCF1000C7EEB00006EEB21
:100318000101B1F5801F1BD3B1F5001F0CD34908AB
:100328005FEA30004FEA3C0C04F101044FEA445202
:1003380012F5800F80F09A80BCF1004F08BF5FEA89
:10034800500C50F1000041EB045141EA050130BD69
:100358005FEA4C0C404141EB0101013C28BFB1F57B
:10036800801FE9D291F0000F04BF01460020B1FAC6
:1003780081F308BF2033A3F10B03B3F120020CDA99
:100388000C3208DD02F1140CC2F10C0201FA0CF077
:1003980021FA02F10CE002F11402D8BFC2F1200CDC
:1003A80001FA02F120FA0CFCDCBF41EA0C01904092
:1003B800E41AA2BF01EB0451294330BD6FEA0404DB
:1003C8001F3C1CDA0C340EDC04F11404C4F12002C6
:1003D80020FA04F001FA02F340EA030021FA04F3D8
:1003E80045EA030130BDC4F10C04C4F1200220FA2F
:1003F80002F001FA04F340EA0300294630BD21FA6D
:1004080004F0294630BD94F0000F83F4801306BF32
:1004180081F480110134013D4EE77FEA645C18BF26
:100428007FEA655C29D094EA050F08BF90EA020FBD
:1004380005D054EA000C04BF1946104630BD91EAB5
:10044800030F1EBF0021002030BD5FEA545C05D1B8
:100458004000494128BF41F0004130BD14F58004F7
:100468003CBF01F5801130BD01F0004545F0FE416B
:1004780041F470014FF0000030BD7FEA645C1ABFA0
:10048800194610467FEA655C1CBF0B46024650EAD7
:10049800013406BF52EA033591EA030F41F4002103
:1004A80030BD00BF90F0000F04BF0021704730B589
:1004B8004FF4806404F132044FF000054FF000015E
:1004C80050E700BF90F0000F04BF0021704730B51F
:1004D8004FF4806404F1320410F0004548BF4042F4
:1004E8004FF000013EE700BF42004FEAE2014FEA49
:1004F80031014FEA02701FBF12F07F4393F07F4F24
:1005080081F06051704732F07F4208BF704793F026
:100518007F4F04BF41F40021704730B54FF4607439
:1005280001F0004521F000411CE700BF50EA01023C
:1005380008BF704730B54FF000050AE050EA0102E5
:1005480008BF704730B511F0004502D5404261EB55
:1005580041014FF4806404F132045FEA915C3FF496
:10056800D8AE4FF003025FEADC0C18BF03325FEA33
:10057800DC0C18BF033202EBDC02C2F1200300FAE4
:1005880003FC20FA02F001FA03FE40EA0E0021FA09
:1005980002F11444BDE600BF70B54FF0FF0C4CF4F7
:1005A800E06C1CEA11541DBF1CEA135594EA0C0FA9
:1005B80095EA0C0F00F0DEF82C4481EA030621EAE4
:1005C8004C5123EA4C5350EA013518BF52EA03351F
:1005D80041F4801143F4801338D0A0FB02CE4FF0D1
:1005E8000005E1FB02E506F00042E0FB03E54FF001
:1005F8000006E1FB03569CF0000F18BF4EF0010EF9
:10060800A4F1FF04B6F5007F64F5407404D25FEAF4
:100618004E0E6D4146EB060642EAC62141EA5551A7
:100628004FEAC52040EA5E504FEACE2EB4F1FD0CE9
:1006380088BFBCF5E06F1ED8BEF1004F08BF5FEA67
:10064800500E50F1000041EB045170BD06F0004619
:1006580046EA010140EA020081EA0301B4EB5C04C6
:10066800C2BFD4EB0C0541EA045170BD41F48011BE
:100678004FF0000E013C00F3AB8014F1360FDEBFE3
:10068800002001F0004170BDC4F10004203C35DABF
:100698000C341BDC04F11404C4F1200500FA05F342
:1006A80020FA04F001FA05F240EA020001F00042E3
:1006B80021F0004110EBD37021FA04F642EB060159
:1006C8005EEA430E08BF20EAD37070BDC4F10C0483
:1006D800C4F1200500FA04F320FA05F001FA04F247
:1006E80040EA020001F0004110EBD37041F1000133
:1006F8005EEA430E08BF20EAD37070BDC4F120053E
:1007080000FA05F24EEA020E20FA04F301FA05F2A5
:1007180043EA020321FA04F001F0004121FA04F24D
:1007280020EA020000EBD3705EEA430E08BF20EA1D
:10073800D37070BD94F0000F0FD101F00046400057
:1007480041EB010111F4801F08BF013CF7D041EAD9
:10075800060195F0000F18BF704703F000465200DD
:1007680043EB030313F4801F08BF013DF7D043EAAE
:100778000603704794EA0C0F0CEA135518BF95EA64
:100788000C0F0CD050EA410618BF52EA4306D1D1EB
:1007980081EA030101F000414FF0000070BD50EA0A
:1007A800410606BF1046194652EA430619D094EA94
:1007B8000C0F02D150EA013613D195EA0C0F05D17E
:1007C80052EA03361CBF104619460AD181EA0301D2
:1007D80001F0004141F0FE4141F470014FF000008A
:1007E80070BD41F0FE4141F4780170BD70B54FF025
:1007F800FF0C4CF4E06C1CEA11541DBF1CEA1355A5
:1008080094EA0C0F95EA0C0F00F0A7F8A4EB050486
:1008180081EA030E52EA03354FEA013100F088807D
:100828004FEA03334FF0805545EA131343EA126346
:100838004FEA022245EA111545EA10654FEA0026FB
:100848000EF000419D4208BF964244F1FD0404F5B4
:10085800407402D25B084FEA3202B61A65EB030510
:100868005B084FEA32024FF480104FF4002CB6EBCD
:10087800020E75EB030E22BFB61A754640EA0C004D
:100888005B084FEA3202B6EB020E75EB030E22BF8D
:10089800B61A754640EA5C005B084FEA3202B6EBCE
:1008A800020E75EB030E22BFB61A754640EA9C008D
:1008B8005B084FEA3202B6EB020E75EB030E22BF5D
:1008C800B61A754640EADC0055EA060E18D04FEA1B
:1008D800051545EA16754FEA06164FEAC30343EABB
:1008E80052734FEAC2025FEA1C1CC0D111F4801F88
:1008F8000BD141EA00014FF000004FF0004CB6E781
:1009080011F4801F04BF01430020B4F1FD0C88BF1F
:10091800BCF5E06F3FF6AFAEB5EB030C04BFB6EB2A
:10092800020C5FEA500C50F1000041EB045170BD1D
:100938000EF0004E4EEA113114EB5C04C2BFD4EB4A
:100948000C0541EA045170BD41F480114FF0000ECE
:10095800013C90E645EA060E8DE60CEA135594EA4A
:100968000C0F08BF95EA0C0F3FF43BAF94EA0C0F4D
:100978000AD150EA01347FF434AF95EA0C0F7FF4C2
:1009880025AF104619462CE795EA0C0F06D152EA16
:1009980003353FF4FDAE1046194622E750EA4106FA
:1009A80018BF52EA43067FF4C5AE50EA41047FF40B
:1009B8000DAF52EA43057FF4EBAE12E74FF0FF3C70
:1009C80006E000BF4FF0010C02E000BF4FF0010C41
:1009D8004DF804CD4FEA410C7FEA6C5C4FEA430CBA
:1009E80018BF7FEA6C5C1BD001B050EA410C0CBF09
:1009F80052EA430C91EA030F02BF90EA020F00206B
:100A0800704710F1000F91EA030F58BF994208BFD1
:100A180090422CBFD8176FEAE37040F0010070478E
:100A28004FEA410C7FEA6C5C02D150EA013C07D1E5
:100A38004FEA430C7FEA6C5CD6D152EA033CD3D030
:100A48005DF8040B704700BF8446104662468C462A
:100A58001946634600E000BF01B5FFF7B7FF00285D
:100A680048BF10F1000F01BD4DF808EDFFF7F4FF86
:100A78000CBF012000205DF808FB00BF4DF808ED11
:100A8800FFF7EAFF34BF012000205DF808FB00BF34
:100A98004DF808EDFFF7E0FF94BF012000205DF856
:100AA80008FB00BF4DF808EDFFF7CEFF94BF01200B
:100AB80000205DF808FB00BF4DF808EDFFF7C4FF04
:100AC80034BF012000205DF808FB00BF4A0011D2A6
:100AD80012F5001211D20DD56FF47873B3EB625290
:100AE8000ED44FEAC12343F0004343EA505323FA9C
:100AF80002F070474FF00000704750EA013002D111
:100B08004FF0FF3070474FF00000704700000000C2
:100B180030B4254D00220023C5E90223234CC4E943
:100B280002232348C0E902232249C1E90223C5E977
:100B38000423C4E90423C0E90423C1E90423C5E963
:100B48000623C4E90623C0E90623C1E90623C5E94B
:100B58000823C4E90823C0E90823C1E90823C5E933
:100B68000A23C4E90A23C0E90A23C1E90A2312496E
:100B780000208881C1E90623C1E90823C1E90A23C5
:100B8800C1E90E23C1E90C2305A3D3E90023C1E978
:100B9800042388600860486030BC7047AFF3008069
:100BA8007B14AE47E17A843FD80400200805002072
:100BB80078040020A80400203805002008B5FFF7B5
:100BC80093FC064BC3E90A01054BC3E90A01054B2F
:100BD800C3E90A01044BC3E90A0108BDD80400208F
:100BE8000805002078040020A804002008B53C214E
:100BF8000C4802F01AFF3C210B4802F016FF3C217A
:100C08000A4802F012FF3C21094802F00EFF3C217D
:100C1800084802F00AFF084802F026FDFFF778FFAF
:100C280008BD00BFFC050020440600208C060020FB
:100C3800D40600201C0700206407002000000000E4
:100C48002DE9F04782B082468568C46800220023F7
:100C580028462146FFF712FF002850D1DAE902237F
:100C6800DAE90A01FFF7E0FA04460D46CAE9044545
:100C7800DAE90823FFF7DAFA06460F46CAE90867F1
:100C8800DAE9062320462946FFF7CEFACDE9000126
:100C9800274BD3E9002320462946FFF77DFC8046F1
:100CA8008946244BD3E9002330463946FFF774FCC4
:100CB80002460B4640464946FFF7B8FA06460F4635
:100CC8001D4BD3E90023DDE90001FFF765FC02466F
:100CD8000B4630463946FFF7A9FA06460F4612A3D7
:100CE800D3E90023FFF7E8FE78B900220023304655
:100CF8003946FFF7C3FE58B10026002708E02A4608
:100D080004F10043CAE90223A8E707A7D7E9006767
:100D180030463946FFF7DAFEAAF80000CAE9064568
:100D280002B0BDE8F08700BF00000000E0FFEF4020
:100D38001000002008000020000000200000000033
:100D4800F8B50268384B1B689A4204D0374B1B78B9
:100D5800382B51D0F8BD364B1F68786A00B2FFF7C0
:100D6800B1FB0022334BFFF717FC2BA3D3E9002379
:100D7800FFF73CFD304BC3E90201304B1E68706A37
:100D880000B2FFF79FFB00222D4BFFF705FC24A3C1
:100D9800D3E90023FFF72AFD2A4BC3E902012A4BB6
:100DA8001D68686A00B2FFF78DFB0022244BFFF72D
:100DB800F3FB1BA3D3E90023FFF718FD234BC3E97B
:100DC8000201234B1C68606A00B2FFF77BFB00221C
:100DD8001B4BFFF7E1FB12A3D3E90023FFF706FD46
:100DE8001C4BC3E9020100237B6273626B6263627E
:100DF800194B01221A70A9E7002200230E49C1E904
:100E080002231049C1E902231049C1E9022311490B
:100E1800C1E902239EE700BF0000000000A06B406C
:100E28000000000000A07B40640700209F05002010
:100E38004406002000004940D80400208C06002009
:100E48000000394008050020D4060020780400205E
:100E58001C070020A80400209C05002038B5026863
:100E6800194B9A4207D0194900230B7001221848E0
:100E780003F0E7F938BD154B1A78164B1B789A42E0
:100E8800F1D1134CFF2302221349204602F090FFB0
:100E9800FF2302221149204602F08AFFFF23022283
:100EA8000F49204602F084FFFF2302220D49204605
:100EB80002F07EFF0C4DFF2301222946204602F056
:100EC80077FF00232B70CEE700380140A0050020F3
:100ED800AC07002018000020D804002008050020D6
:100EE80078040020A80400209F0500202DE9F04781
:100EF8008AB000240694079408940994484B9A6988
:100F080042F010029A619A6902F010020092009A67
:100F18009A6942F004029A619A6902F00402019205
:100F2800019A9A6942F040029A619A6902F0400275
:100F38000292029A9A6942F020029A619A6902F032
:100F480020020392039A9A6942F480729A619A691C
:100F580002F480720492049A9A6942F008029A6133
:100F68009B6903F008030593059BDFF8B8A02246A8
:100F780041F23031504601F071FCDFF8AC90224666
:100F88004FF4C071484601F069FC284F22464FF4DF
:100F9800E061384601F062FCDFF8948022463F2188
:100FA800404601F05BFC10230693224B07930894FC
:100FB80006A9384601F032FB41F230330693012688
:100FC800079608940225099506A9504601F026FBC4
:100FD8004FF4C073069307960894099506A94846E6
:100FE80001F01CFB4FF4E0630693079608940995FB
:100FF80006A9384601F012FB3F230693079608948A
:10100800099506A9404601F009FB224621460A2017
:1010180001F0D0F90A2001F005FA0AB0BDE8F0871E
:10102800001002400010014000200140000801406B
:101038000014014000002110102800D0704708B5A6
:10104800014800F073FD08BD7C05002010280ED86B
:10105800DFE800F00909090F0B0B0D0D0D0B0B0F45
:101068000F0909090900044870470448704700201F
:1010780070474FF0804070470000C0409A99193F70
:1010880072B6FEE700B591B02822002106A803F049
:101098000FF900230193029303930493059301220C
:1010A80006924FF4803307930A9202220D920E9310
:1010B8004FF4E0130F9306A801F0FAFB80B90F2351
:1010C800019302210291002303934FF4806204925A
:1010D800059301A801F01EFE20B911B05DF804FBCC
:1010E800FFF7CEFFFFF7CCFF2DE9F84301F018F921
:1010F800FFF7C8FFFFF7FAFE00F04AFD00F0E6FD33
:1011080000F018FE00F048FE00F078FE00F0A8FE9F
:1011180000F0D8FE01F008F801F020F800F00EFC0D
:10112800B84C204602F014FEB74802F011FE00F059
:10113800ABFB142001F018F900F0A0FC00F0C8FC8B
:101148000122B249204603F07CF8FFF74FFD6420E6
:1011580001F00AF94FF00008C146A8E0AC4B0122A3
:101168001A70002D7FD0002C7DD0082C03D9082DB3
:1011780001D8052D5CD8052C03D8082D01D8052DDC
:101188005ED8063CE4B2022C07D8082D05D8052DF8
:1011980003D9042F01D9082F5AD9022C01D8052DBB
:1011A8005CD9022C02D8082D00F2EC80984B1B78F1
:1011B800002B58D1974B1B78002B54D1032F40F2AA
:1011C800E7800C2F4FD900F077FA9348FFF7F6FC29
:1011D80049E08F4B00221A70C3E7904B00221A7027
:1011E800BFE78E4B01221A70BBE78D4B2C221A7079
:1011F800884B00221A70B4E7864B01221A70B0E7B8
:101208004FF00109ADE700F0F7FAAAE700F006FB96
:10121800A7E7834B38221A704FF00008A1E7804BEC
:1012280039221A704FF001089BE74FF0000998E740
:1012380000F06CF92046FFF709FFFFF7BFFC12E04A
:1012480000F030F92046FFF701FFFFF7B7FC0AE08E
:1012580000F068FA0020FFF7B1FC04E000F0C0F9E4
:101268006D48FFF7ABFC6A4B1B78012B00F09680AA
:10127800684B1B78012B00F0B380684B1B78012B5F
:1012880000F0D980674B1B78052B00F0D880042B21
:1012980000F0D880B9F1000F40F0D780B8F1000F06
:1012A80040F0D380604B1B78012B00F0DB805F4B54
:1012B8001D785C789E78DF78DB7F5A4A13700C3B88
:1012C8002D2B3FF64EAF01A252F823F00F12000863
:1012D800151200086B1100086B1100086B1100084B
:1012E8006B1100086B1100086B1100086B110008E6
:1012F8006B1100086B1100086B11000865110008DC
:10130800DB1100086B1100086B1100086B11000855
:101318006B1100086B1100086B110008E31100083D
:10132800EB1100086B1100086B1100086B11000825
:101338006B1100086B1100086B1100086B11000895
:101348006B1100086B1100086B110008F3110008FD
:10135800011200086B1100086B1100086B110008DE
:101368006B1100086B1100086B110008331200089C
:10137800091200086B1100086B1100081B12000805
:101388002712000800F0F6F82348FFF717FC6AE771
:1013980000F05CF92048FFF711FC64E7032F0FD930
:1013A8000C2F10D83B1FDBB2082B03D8032E01D912
:1013B8000C2E0BD9032E0CD8194B24221A7057E780
:1013C80000F03EFA54E700F005FA51E700F04AFA57
:1013D8004EE70C2E7FF64CAF114B25221A7047E7CB
:1013E800032F09D90C2F0AD8032E21D90C2E7FF6EA
:1013F80044AF00F0B5FB40E700F0C4FB3DE700F068
:10140800BBFB3AE7AC070020F4070020A00500204A
:101418009E0500209D0500209A99193F7805002017
:101428009F050020790500209C0500207C050020F0
:1014380000F09CFB21E7154B21221A7022E700F0EF
:10144800A5F927E700F0B4F924E70C2E03D90F4BD0
:1014580031221A7026E7042E3FF624AF0B4B3022B8
:101468001A701FE7B8F1000F7FF421AF0848FFF7A3
:10147800E7FB0848FFF7E4FB0748FFF7E1FB0748ED
:10148800FFF7DEFB064B00221A7010E79F050020CD
:10149800D80400200805002078040020A8040020B3
:1014A8009C05002010B5184C01224FF4807120468D
:1014B80001F0D4F900228021204601F0CFF9A4F5EB
:1014C800805401224FF48071204601F0C7F90022B0
:1014D8004FF40071204601F0C1F904F58064002240
:1014E8000421204601F0BAF901220821204601F022
:1014F800B5F900221021204601F0B0F9012220217F
:10150800204601F0ABF910BD0020014010B5184C81
:1015180000224FF48071204601F0A0F901228021B9
:10152800204601F09BF9A4F5805400224FF4807105
:10153800204601F093F901224FF40071204601F092
:101548008DF904F5806401220421204601F086F912
:1015580000220821204601F081F9012210212046AD
:1015680001F07CF900222021204601F077F910BD16
:101578000020014038B5184D01224FF480712846EB
:1015880001F06CF9154C00220421204601F066F99F
:1015980000228021284601F061F901220821204615
:1015A80001F05CF9A5F5805500224FF480712846BA
:1015B80001F054F901221021204601F04FF90122CF
:1015C8004FF40071284601F049F9002220212046F5
:1015D80001F044F938BD00BF00200140001401406B
:1015E80038B5184D00224FF48071284601F036F9BD
:1015F800154C01220421204601F030F901228021F6
:10160800284601F02BF900220821204601F026F98E
:10161800A5F5805501224FF48071284601F01EF986
:1016280000221021204601F019F900224FF4007120
:10163800284601F013F901222021204601F00EF975
:1016480038BD00BF002001400014014038B5184DD6
:1016580001224FF48071284601F000F9154C002250
:101668000421204601F0FAF801228021284601F0E1
:10167800F5F800220821204601F0F0F8A5F580557C
:1016880001224FF48071284601F0E8F80022102169
:10169800204601F0E3F801224FF40071284601F0DA
:1016A800DDF800222021204601F0D8F838BD00BF1F
:1016B800002001400014014038B5184D00224FF4B5
:1016C8008071284601F0CAF8154C012204212046F1
:1016D80001F0C4F800228021284601F0BFF8012259
:1016E8000821204601F0BAF8A5F5805500224FF4EC
:1016F8008071284601F0B2F801221021204601F03D
:10170800ADF800224FF40071284601F0A7F8012235
:101718002021204601F0A2F838BD00BF002001407A
:101728000014014010B5184C01224FF48071204676
:1017380001F094F801228021204601F08FF8A4F5E9
:10174800805401224FF48071204601F087F801226D
:101758004FF40071204601F081F804F580640122FD
:101768000421204601F07AF801220821204601F0E0
:1017780075F801221021204601F070F8012220217D
:10178800204601F06BF810BD0020014008B500228A
:101798004FF48071044801F061F801224FF4805140
:1017A800024801F05BF808BD000801400010014044
:1017B80008B501224FF48071044801F04FF8012266
:1017C8004FF48051024801F049F808BD0008014073
:1017D8000010014008B500224FF48061044801F070
:1017E8003DF801220221034801F038F808BD00BF86
:1017F800000801400014014008B501224FF40071AF
:10180800044801F02BF801221146034801F026F89C
:1018180008BD00BF000801400014014008B50122BE
:101828004FF40071044801F019F80022012103481F
:1018380001F014F808BD00BF000801400014014081
:1018480008B501224FF48061044801F007F800222E
:101858000221034801F002F808BD00BF000801405A
:101868000014014008B501224FF48061044800F0DB
:10187800F5FF01220221034800F0F0FF08BD00BF78
:10188800000801400014014070B5294D00224FF4B2
:101898008071284600F0E2FF264C002204212046F1
:1018A80000F0DCFF00228021284600F0D7FF00224C
:1018B8000821204600F0D2FF1F4E00224FF480710D
:1018C800304600F0CBFF00221021204600F0C6FF72
:1018D80000224FF40071304600F0C0FF00222021A2
:1018E800204600F0BBFFA5F5C05500224FF48071DB
:1018F800284600F0B3FF00224FF48051304600F034
:10190800ADFF00224FF48061284600F0A7FF0022B7
:101918000221204600F0A2FF00224FF40071284661
:1019280000F09CFF00220121204600F097FF70BDC7
:1019380000200140001401400010014010B5094882
:1019480001F07AFB084C00221021204600F086FFA7
:1019580001222021204600F081FF0A2000F004FD2A
:1019680010BD00BFA40500200010014000B587B0DD
:101978008DF80F001023009301230DF117020DF1CC
:101988000F01044801F08FFC9DF8170007B05DF8BF
:1019980004FB00BFA405002070B504460D460A4E9E
:1019A80000222021304600F059FF2046FFF7DEFFD5
:1019B80004462846FFF7DAFF01222021304600F0CE
:1019C8004DFF204670BD00BF0010014038B50446E9
:1019D800094D00222021284600F040FF2046FFF74D
:1019E800C5FFFF20FFF7C2FF044601222021284639
:1019F80000F034FF204638BD00100140F8B5044619
:101A08000D4616460B4F00222021384600F026FFCF
:101A18002046FFF7ABFF0446102332462946064806
:101A280001F065FB01222021384600F017FF20460F
:101A3800F8BD00BF00100140A4050020F8B5044619
:101A48000D4616460B4F00222021384600F006FFAF
:101A58002046FFF78BFF04461023324629460648E6
:101A680001F043FD01222021384600F0F7FE204610
:101A7800F8BD00BF00100140A405002000B585B0E6
:101A8800124B93E8030002908DF80C10052202A96E
:101A98003020FFF7B3FF052269461020FFF7CEFF7D
:101AA8000023042B09D803F110026A4412F8102C01
:101AB800A52A02D10133DBB2F3E7052B03D10020BD
:101AC80005B05DF804FB0120FAE700BF54440008A4
:101AD80010B5144C00221021204600F0BFFE05224C
:101AE80011492A20FFF78AFF01212120FFF754FF1F
:101AF80001212220FFF750FF56212520FFF74CFF38
:101B080020213120FFF748FF0F212620FFF744FF4F
:101B18000F212020FFF740FF01221021204600F06E
:101B28009DFE10BD001001405C44000838B5054614
:101B38000720FFF74BFF044601462720FFF72CFF3D
:101B480014F0400F01D1012038BD20222946612020
:101B5800FFF774FFFF21E220FFF71EFF0020F3E7E5
:101B6800014B41221A7070479F050020014B40220B
:101B78001A7070479F050020014B45221A70704764
:101B88009F050020014B44221A7070479F050020D2
:101B980008B50E480E4B03604FF482734360002370
:101BA8008360C360036143614FF40072826118224D
:101BB800C2610362436283620A23C36201F03CFA92
:101BC80000B908BDFFF75CFAFBE700BFA4050020D9
:101BD8000030014010B586B00023029303930493AC
:101BE80005930268164B9A4201D006B010BD03F562
:101BF80060439A6942F480529A619A6902F4805269
:101C08000092009A9A6942F004029A619B6903F073
:101C180004030193019BA02302930223039303234C
:101C28000593084C02A9204600F0F8FC40230293D3
:101C380000230393049302A9204600F0EFFCD4E7A5
:101C4800003001400008014000B583B00C4B9A6990
:101C580042F001029A619A6902F001020092009A28
:101C6800DA6942F08052DA61DB6903F0805301934C
:101C7800019B052000F08CFB03B05DF804FB00BF5E
:101C880000100240FEE7FEE7FEE7FEE7FEE77047CA
:101C98007047704708B500F055FB08BD08B510201F
:101CA80000F0E2FD08BD000008B5024802F06AF93C
:101CB80008BD00BFAC07002008B5024801F014FDBC
:101CC80008BD00BF640700207047000000B58DB054
:101CD8002422002103A802F0EBFA002301930293C7
:101CE8001248134A0260436083604FF6FF72C26075
:101CF80003614361836103230393012305930993DC
:101D080003A901F027FE50B900230193029301A90A
:101D1800064801F0F1FE28B90DB05DF804FBFFF7A5
:101D2800AFF9F1E7FFF7ACF9F6E700BFFC050020D3
:101D3800002C014000B58DB02422002103A802F038
:101D4800B7FA00230193029312484FF080420260D1
:101D58000122426083604FF6FF71C16003618361B5
:101D6800032303930592099203A901F0F3FD50B9E7
:101D780000230193029301A9064801F0BDFE28B98A
:101D88000DB05DF804FBFFF77BF9F1E7FFF778F991
:101D9800F6E700BF4406002000B58DB024220021DC
:101DA80003A802F085FA0023019302931148124A0E
:101DB8000260436083604FF6FF72C2600361836113
:101DC8000323039301230593099303A901F0C2FD9B
:101DD80050B900230193029301A9064801F08CFE33
:101DE80028B90DB05DF804FBFFF74AF9F1E7FFF7F2
:101DF80047F9F6E78C0600200004004000B58DB0D6
:101E08002422002103A802F053FA0023019302932D
:101E18001148124A0260436083604FF6FF72C26045
:101E2800036183610323039301230593099303A9A2
:101E380001F090FD50B900230193029301A90648CF
:101E480001F05AFE28B90DB05DF804FBFFF718F948
:101E5800F1E7FFF715F9F6E7D4060020000800407F
:101E680000B58DB02422002103A802F021FA002336
:101E7800019302931148124A0260436083604FF64F
:101E8800FF72C260036183610323039301230593F7
:101E9800099303A901F05EFD50B900230193029351
:101EA80001A9064801F028FE28B90DB05DF804FB29
:101EB800FFF7E6F8F1E7FFF7E3F8F6E71C0700207D
:101EC800000C004000B583B00023009301930F4835
:101ED8000F4A026047224260836042F20F72C2607A
:101EE800836101F00BFD50B900230093019369460B
:101EF800064801F001FE28B903B05DF804FBFFF7BE
:101F0800BFF8F1E7FFF7BCF8F6E700BF6407002069
:101F18000010004000B591B000230C930D930E9370
:101F28000F930368664A934210D0B3F1804F2FD0C5
:101F3800644A934263D0644A934200F08480634ABF
:101F4800934200F0A28011B05DF804FB604B9A69DF
:101F580042F400629A619A6902F400620192019A5D
:101F68009A6942F040029A619B6903F04003029328
:101F7800029B4FF420630C930CA9564800F04EFBCB
:101F8800554A536843F0E06343F0C0035360DAE70F
:101F980003F50433DA6942F00102DA61DA6902F022
:101FA80001020392039A9A6942F004029A619A69BB
:101FB80002F004020492049A9A6942F008029A61B3
:101FC8009B6903F008030593059B4FF400430C93AA
:101FD8000CA9424800F022FB08230C9300230D9320
:101FE8000E930CA93E4800F019FB3B4A536823F4B2
:101FF800407343F0E06343F480735360A3E7344BCA
:10200800DA6942F00202DA61DA6902F00202069243
:10201800069A9A6942F008029A619B6903F00803DC
:102028000793079B30230C930DEB03012C4800F01A
:10203800F5FA294A536823F4406343F0E06343F414
:10204800006353607FE7224BDA6942F00402DA61E9
:10205800DA6902F004020892089A9A6942F02002AA
:102068009A619B6903F020030993099B4FF440533D
:102078000C930CA91B4800F0D1FA174A536843F097
:10208800E06343F4805353605DE7114BDA6942F033
:102098000802DA61DA6902F008020A920A9A9A6971
:1020A80042F004029A619B6903F004030B930B9BB3
:1020B80003230C930CA9094800F0B0FA43E700BFCA
:1020C800002C01400004004000080040000C0040C3
:1020D80000100240001801400000014000080140C3
:1020E800000C01400014014002680E4B9A4200D0D7
:1020F800704700B583B003F50033DA6942F0100287
:10210800DA61DB6903F010030193019B0022114699
:10211800362000F04FF9362000F084F903B05DF85E
:1021280004FB00BF0010004008B50A480A4B0360D2
:102138004FF4E133436000238360C36003610C22E2
:1021480042618361C36101F003FE00B908BDFEF777
:1021580097FFFBE7AC0700200038014008B50A48A4
:102168000A4B03604FF4E133436000238360C3608C
:1021780003610C2242618361C36101F0E9FD00B98A
:1021880008BDFEF77DFFFBE7F40700200044004090
:1021980030B589B000230493059306930793036829
:1021A800334A934204D0334A934238D009B030BD01
:1021B800314B9A6942F480429A619A6902F48042EA
:1021C8000092009A9A6942F008029A619B6903F0AA
:1021D80008030193019B40230493022305930323DF
:1021E8000793264D04A9284600F018FA8023049383
:1021F80000240594069404A9284600F00FFA204A02
:10220800536843F0E06343F00403536022462146D9
:10221800252000F0CFF8252000F004F9C6E7164B7A
:10222800DA6942F40032DA61DA6902F400320292C1
:10223800029A9A6942F004029A619B6903F00403C6
:102248000393039B04230493022305930323079317
:102258000C4C04A9204600F0E1F90823049300235C
:102268000593069304A9204600F0D8F99EE700BF1D
:10227800003801400044004000100240000C0140BA
:102288000000014000080140FFF71EFD0B480C4903
:102298000C4A002302E0D458C4500433C4188C42BA
:1022A800F9D3094A094C002301E013600432A24221
:1022B800FBD301F0D9FFFEF717FF7047000000209D
:1022C80054040020A04400085804002044080020BA
:1022D800FEE7000010B504460E4B18784FF47A73E9
:1022E800B3FBF0F30C4A1068B0FBF3F000F0A8F869
:1022F80068B90F2C01D901200AE0002221464FF0CD
:10230800FF3000F057F8054B1C60002000E001206A
:1023180010BD00BF200000201C0000202400002069
:1023280008B5074A136843F010031360032000F050
:102338002FF80320FFF7CEFFFFF786FC002008BD2B
:1023480000200240034A1168034B1B780B441360BA
:10235800704700BF3C08002020000020014B18688F
:10236800704700BF3C08002038B50446FFF7F6FF69
:102378000546B4F1FF3F02D0044B1B781C44FFF71D
:10238800EDFF401BA042FAD338BD00BF200000205B
:10239800074AD36823F4E0631B041B0C000200F413
:1023A800E060034343F0BF6343F40033D3607047F6
:1023B80000ED00E000B5194BDB68C3F30223C3F15D
:1023C800070CBCF1040F28BF4FF0040C03F1040EF6
:1023D800BEF1060F18D9033B4FF0FF3E0EFA0CFC76
:1023E80021EA0C0199400EFA03F322EA0303194388
:1023F80000280BDB0901C9B200F1604000F561401B
:1024080080F800135DF804FB0023E5E700F00F00F7
:102418000901C9B2024B1954F4E700BF00ED00E00E
:1024280014ED00E0002807DB00F01F02400901233B
:102438009340024A42F82030704700BF00E100E0B4
:102448000138B0F1807F0BD24FF0E0235861054A84
:10245800F02182F823100020986107221A61704742
:102468000120704700ED00E090F82130DBB2022B2C
:1024780006D004238363002380F8203001207047AE
:102488000268136823F00E0313600268136823F0D0
:1024980001031360036CC16B012202FA03F34B6062
:1024A80080F82120002380F820301846704700006B
:1024B80008B590F82130DBB2022B03D004238363E4
:1024C800012008BD0268136823F00E031360026838
:1024D800136823F00103136003684C4A93424ED9F2
:1024E800783A934224D01432934230D01432934233
:1024F8002FD0143293422FD0143293422FD014325B
:1025080093422FD0143293422FD002F56272934235
:102518002ED0143293422DD0143293422CD0143240
:10252800934202D04FF4803203E04FF4805200E02F
:102538000122374B5A60012380F82130002380F8AC
:102548002030436B002B5ED098470020B9E710225B
:10255800EFE74FF48072ECE74FF48052E9E74FF46D
:102568008032E6E74FF48012E3E74FF08072E0E74D
:102578000122DEE71022DCE74FF48072D9E7254A12
:10258800934224D01432934225D01432934224D05B
:102598001432934224D01432934224D014329342FA
:1025A80024D01432934224D002F56272934223D08D
:1025B8001432934222D01432934221D014329342DF
:1025C80002D04FF4803203E04FF4805200E0012241
:1025D800114B5A60AFE71022FAE74FF48072F7E721
:1025E8004FF48052F4E74FF48032F1E74FF4801251
:1025F800EEE74FF08072EBE70122E9E71022E7E708
:102608004FF48072E4E700205BE700BF80000240DF
:1026180000040240080002400000024070B582B089
:102628000024A446B0E0874DAA4210D007D9864DB1
:10263800AA420CD005F58035AA4208D013E0A5F5CA
:102648008015AA4203D005F57025AA4207D18A68E9
:10265800002A62D0012A5BD04361082403E0A5F573
:102668008015AA42F3D0BEF1FF0F58D80646BEF136
:10267800FF0F56D84FEA8C0233680F25954023EA9E
:10268800050304FA02F2134333604B6813F0805FCA
:1026980078D06E4B9A6942F001029A619B6903F007
:1026A80001030193019B4FEA9C02951C684B53F868
:1026B80025600CF003039D000F23AB4026EA0306B8
:1026C800644B984233D003F58063984200F09880B9
:1026D80003F58063984200F0958003F58063984283
:1026E80000F0928003F58063984200F08F8003F534
:1026F8008063984219D006231AE0CC68B3E7CC6807
:102708000434B0E7CC680834ADE7CC680C34AAE7E9
:1027180003610824A7E70024A5E70424A3E7061D0E
:10272800A5E7ACF108029200A6E7052300E0002324
:10273800AB4033430232464D45F822304B6813F420
:10274800801F65D0444A936843EA0E0393604B6840
:1027580013F4001F62D0404AD36843EA0E03D360E3
:102768004B6813F4003F5FD03B4A536843EA0E03BB
:1027780053604B6813F4803F5CD0374A136843EAD0
:102788000E0313600CF1010C0A6832FA0CF357D0EF
:10279800012303FA0CF302EA030E33EA0202F1D131
:1027A8004A68122A3FF63FAF122A3FF65CAF01A5EE
:1027B80055F822F057260008032700080D270008BF
:1027C8001F2700086F2600086F2600086F260008DC
:1027D8006F2600086F2600086F2600086F2600087D
:1027E8006F2600086F2600086F2600086F2600086D
:1027F8006F2600086F26000807270008132700081F
:10280800012395E7022393E7032391E704238FE746
:10281800114A936823EA0E03936098E70E4AD36837
:1028280023EA0E03D3609BE70B4A536823EA0E039F
:1028380053609EE7084A136823EA0E031360A1E772
:1028480002B070BD000022100000311000100240DC
:102858000000014000080140000401400AB1016184
:10286800704709040161704708B5054B5B6903426D
:1028780000D108BD024B5861FEF7DEFBF9E700BF47
:102888000004014082B0084B1B68084AA2FB0323DE
:102898005B0A00FB03F3019300BF019B5A1E0192E0
:1028A800002BF9D102B070471C000020D34D6210F4
:1028B800002800F0F18170B582B00446036813F077
:1028C800010F2CD0994B5B6803F00C03042B1DD02F
:1028D800964B5B6803F00C03082B12D06368B3F5C2
:1028E800803F41D0002B55D103F1804303F50433D9
:1028F8001A6822F480321A601A6822F480221A6058
:1029080037E08A4B5B6813F4803FE7D0874B1B683E
:1029180013F4003F03D06368002B00F0BF812368E5
:1029280013F0020F75D0814B5B6813F00C0F5FD06A
:102938007E4B5B6803F00C03082B54D02369002BF3
:1029480000F08A807A4B01221A60FFF707FD0546DE
:10295800764B1B6813F0020F75D1FFF7FFFC401B85
:102968000228F5D903209EE1704A136843F48033A6
:102978001360636843B3FFF7F1FC05466B4B1B68B4
:1029880013F4003FCBD1FFF7E9FC401B6428F5D9CD
:10299800032088E1B3F5A02F09D0644B1A6822F40C
:1029A80080321A601A6822F480221A60E1E703F183
:1029B8008043A3F53C331A6842F480221A601A68EF
:1029C80042F480321A60D4E7FFF7C8FC0546574B3B
:1029D8001B6813F4003FA2D0FFF7C0FC401B64281B
:1029E800F5D903205FE1514B5B6813F4803FA5D113
:1029F8004E4B1B6813F0020F03D02369012B40F0E4
:102A08004F814A4A136823F0F803616943EAC10316
:102A18001360236813F0080F33D0A369002B5CD030
:102A2800434B0122C3F88024FFF798FC05463F4B2F
:102A38005B6A13F0020F21D1FFF790FC401B0228BC
:102A4800F5D903202FE1394A136823F0F8036169A7
:102A580043EAC1031360DCE7354B00221A60FFF735
:102A68007DFC0546314B1B6813F0020FD1D0FFF7F0
:102A780075FC401B0228F5D9032014E10120FFF75B
:102A880001FF236813F0040F00F09680274BDB69E1
:102A980013F0805F34D1254BDA6942F08052DA6155
:102AA800DB6903F080530193019B0125214B1B68CF
:102AB80013F4807F26D0E368012B3DD0002B53D13F
:102AC80003F1804303F504331A6A22F001021A6203
:102AD8001A6A22F004021A6233E0154B0022C3F886
:102AE8008024FFF73BFC0546104B5B6A13F0020F8E
:102AF800C7D0FFF733FC401B0228F5D90320D2E0EA
:102B08000025D3E70B4A136843F480731360FFF77B
:102B180025FC0646074B1B6813F4807FCBD1FFF7D3
:102B28001DFC801B6428F5D90320BCE0001002407E
:102B380000004242007000405F4A136A43F00103FC
:102B48001362E36833B3FFF709FC06465A4B1B6A66
:102B580013F0020F2FD1FFF701FC801B41F28833DD
:102B68009842F3D903209EE0052B09D0524B1A6AEC
:102B780022F001021A621A6A22F004021A62E0E7DD
:102B88004D4B1A6A42F004021A621A6A42F00102B4
:102B98001A62D6E7FFF7E2FB0646474B1B6A13F0BB
:102BA800020F08D0FFF7DAFB801B41F28833984206
:102BB800F3D9032077E0E5B9E369002B72D03E4AE8
:102BC800526802F00C02082A56D0022B17D03B4B51
:102BD80000221A66FFF7C2FB0446374B1B6813F046
:102BE800007F47D0FFF7BAFB001B0228F5D9032066
:102BF80059E0314AD36923F08053D361DCE72F4B86
:102C080000221A66FFF7AAFB05462B4B1B6813F038
:102C1800007F06D0FFF7A2FB401B0228F5D903204E
:102C280041E0236AB3F5803F1AD023494B6823F467
:102C38007413226A606A024313434B601F4B0122DC
:102C48001A66FFF78BFB04461B4B1B6813F0007FCB
:102C58000ED1FFF783FB001B0228F5D9032022E0E1
:102C6800154A536823F40033A1680B435360DCE72B
:102C7800002018E0002016E0012B16D00E4B5B68F0
:102C880003F48031226A914211D103F47013626A0D
:102C980093420ED1002006E001207047012002E097
:102CA800012000E0002002B070BD0120FBE70120F8
:102CB800F9E70120F7E700BF001002400000424298
:102CC8000F4B5B6803F00C02082A01D00D487047CF
:102CD800C3F383420C49885C13F4803F0BD0084B44
:102CE8005B68C3F34043094AD35C064A02FB00F021
:102CF800B0FBF3F07047064B03FB00F0704700BFD2
:102D08000010024000127A007C4400088C4400083D
:102D180000093D00002800F0A08070B50D4604466B
:102D2800524B1B6803F007038B420BD24F4A1368C0
:102D380023F007030B431360136803F007038B4268
:102D480040F08D80236813F0020F17D013F0040FA2
:102D580004D0474A536843F4E0635360236813F090
:102D6800080F04D0424A536843F460535360404A02
:102D7800536823F0F003A1680B435360236813F0F2
:102D8800010F31D06368012B20D0022B25D0384A9F
:102D9800126812F0020F64D035494A6822F0030223
:102DA80013434B60FFF7DAFA0646314B5B6803F0D2
:102DB8000C036268B3EB820F16D0FFF7CFFA801BC3
:102DC80041F288339842F0D9032045E0284A126836
:102DD80012F4003FE0D101203EE0254A126812F0CB
:102DE800007FD9D1012037E0204B1B6803F007038F
:102DF800AB420AD91D4A136823F007032B4313601B
:102E0800136803F00703AB422DD1236813F0040FB6
:102E180006D0174A536823F4E063E1680B43536014
:102E2800236813F0080F07D0114A536823F460533E
:102E3800216943EAC1035360FFF742FF0C4B5B680B
:102E4800C3F303130B4AD35CD8400B4B18600B4BEE
:102E58001868FFF73FFA002070BD01207047012075
:102E6800FAE70120F8E70120F6E700BF002002405A
:102E780000100240644400081C00002024000020C8
:102E8800014B1868704700BF1C00002008B5FFF709
:102E9800F7FF044B5B68C3F30223034AD35CD840B3
:102EA80008BD00BF001002407444000808B5FFF7D1
:102EB800E7FF044B5B68C3F3C223034AD35CD840E3
:102EC80008BD00BF00100240744400082DE9F04717
:102ED80082B00546884617461E46FFF73FFA0A9B0A
:102EE8001B1A03EB0609FFF739FA82462B4B1B68BE
:102EF800C3F3CB3309FB03F301932B689C6838EACF
:102F080004030CBF4FF0010C4FF0000CBC4540D03F
:102F1800B6F1FF3FF1D0FFF721FAA0EB0A004845D0
:102F28000AD2B9F1000F07D0019A02B14A46019BB3
:102F3800013B01939146E0E72A68536823F0E003D8
:102F480053606B68B3F5827F0BD0AB6AB3F5005F53
:102F580014D0012385F85130002385F85030032020
:102F680018E0AB68B3F5004F02D0B3F5806FECD131
:102F78002A68136823F040031360E6E72A68136899
:102F880023F4005313602A68136843F40053136052
:102F9800DFE7002002B0BDE8F08700BF1C0000207A
:102FA80010B582B004460B46009200228021FFF73C
:102FB8008DFF08B902B010BD636D43F0200363654F
:102FC8000320F7E710B582B004460B464168B1F517
:102FD800827F10D06168B1F5827F03D1A168B1F515
:102FE800806F15D00092002280212046FFF76EFFE7
:102FF800E0B902B010BD8168B1F5004F02D0B1F55B
:10300800806FE7D12068016821F040010160E1E7A5
:103018000092002201212046FFF758FF0028E8D03F
:10302800636D43F0200363650320E2E7636D43F0BB
:10303800200363650320DCE7002856D010B504465A
:10304800436A33B94368B3F5827F05D00023C3616F
:1030580002E00023036143610023A36294F8513026
:10306800002B3CD0022384F851302268136823F0E7
:1030780040031360636803F48273A26802F4044295
:103088001343E26802F400621343226902F0020269
:103098001343626902F001021343A26902F4007249
:1030A8001343E26902F038021343226A02F08002F5
:1030B8001343A26A02F40052216813430B60638B26
:1030C800226803F0040353602268D36923F4006381
:1030D800D36100206065012384F8513010BD84F865
:1030E80050302046FEF776FDBCE7012070472DE9F9
:1030F800F04383B01D4690F85030012B00F0D1808A
:10310800044688469146012380F85030FFF726F997
:10311800074694F85160F6B2012E40F0BA80B8F133
:10312800000F00F0B780B9F1000F00F0B38003235F
:1031380084F8513000236365C4F83080A4F83490D3
:10314800A4F83690A363A387E38763642364A36822
:10315800B3F5004F1ED023681A6812F0400F03D150
:103168001A6842F040021A60E368B3F5006F1CD099
:10317800636813B1B9F1010F55D1226B2368127836
:103188001A73236B01332363E38E9BB2013B9BB21B
:10319800E38648E02268136823F04003136022683E
:1031A800136843F480431360D5E7636813B1B9F13A
:1031B800010F15D1226B23681288DA60236B023362
:1031C8002363E38E9BB2013B9BB2E38608E0FFF7E3
:1031D800C5F8C01BA84202D3B5F1FF3F15D1A5B170
:1031E800E38E9BB2002B3CD023689A6812F0020F42
:1031F800EDD0226B1288DA60236B02332363E38EEF
:103208009BB2013B9BB2E386EAE7012384F8513085
:1032180003263FE0FFF7A2F8C01BA84202D3B5F18E
:10322800FF3F19D1C5B1E38E9BB2D3B123689A6829
:1032380012F0020FEED0226B12781A73236B01334F
:103248002363B4F836C01FFA8CFC0CF1FF3C1FFA5C
:103258008CFCA4F836C0E6E7012384F85130032635
:1032680018E03A4629462046FFF79AFE08B120237F
:103278006365A36833B901932368DA6801929B6890
:103288000193019B636D2BB9012384F8513000260B
:1032980000E00226002384F85030304603B0BDE831
:1032A800F0830226F9E72DE9F04383B01F460A9D13
:1032B80090F85030012B00F016810446884691465C
:1032C800012380F85030FFF749F8064694F851304A
:1032D800DBB26268012B0AD0B2F5827F40F0F08041
:1032E800A268002A40F0F380042B40F0F280B8F185
:1032F800000F00F0F080B9F1000F00F0EE80002F11
:1033080000F0ED8094F85130DBB2042B02D0052395
:1033180084F8513000236365C4F83890E787A7879D
:10332800C4F83080E786A7862364636423681A6834
:1033380012F0400F03D11A6842F040021A60E368A5
:10334800B3F5006F11D063680BB1012F0BD1226B5D
:10335800236812781A73236B01332363E38E9BB2BD
:10336800013B9BB2E38601276EE063680BB1012F36
:103378000BD1226B23681288DA60236B0233236334
:10338800E38E9BB2013B9BB2E38601271BE02368D7
:103398009A6812F0010F0ED0E28F92B25AB1DA6831
:1033A800A36B1A80A36B0233A363E38F9BB2013B29
:1033B8009BB2E3870127FEF7D1FF801BA84202D307
:1033C800B5F1FF3F1ED1E38E9BB21BB9E38F9BB2D1
:1033D800002B5CD023689A6812F0020FD7D0E28ED7
:1033E80092B2002AD3D0002FD1D0226B1288DA6093
:1033F800236B02332363E38E9BB2013B9BB2E386CC
:103408000027C4E7012384F85130032059E02368DA
:103418009A6812F0010F0ED0E28F92B25AB1DA68B0
:10342800A36B1A70A36B0133A363E38F9BB2013BB9
:103438009BB2E3870127FEF791FF831BAB4202D3C0
:10344800B5F1FF3F1ED1EDB1E38E9BB213B9E38F07
:103458009BB2E3B123689A6812F0020FD7D0E28ECC
:1034680092B2002AD3D0002FD1D0226B12781A73CF
:10347800236B01332363E38E9BB2013B9BB2E3864C
:103488000027C4E7012384F85130032019E03246AD
:1034980029462046FFF784FD70B9A36833B9019324
:1034A8002368DA6801929B680193019B636DC3B935
:1034B800012384F8513004E020236365012000E0F3
:1034C8000220002384F8503003B0BDE8F0830220C6
:1034D800F7E70220F5E70120F3E70120F1E70120F3
:1034E800EFE70120EDE70220EEE72DE9F04383B096
:1034F800044690F85160F6B2012E40F0AB80884641
:1035080091461D464368B3F5827F32D094F8503017
:10351800012B00F0A780012384F85030FEF71EFF2E
:103528000746B8F1000F00F09680B9F1000F00F0DF
:103538009280042384F8513000236365C4F83880EE
:10354800A4F83C90A4F83E902363A386E386236402
:103558006364A368B3F5004F18D023681A6812F0A3
:10356800400F03D11A6842F040021A60E3680BB3B7
:1035780043E08368002BC9D1042380F851300095BB
:1035880013460A46FFF78FFE064667E0226813686F
:1035980023F0400313602268136823F48043136008
:1035A800DBE7FEF7DBFEC01BA84202D3B5F1FF3F05
:1035B80015D1A5B1E38F9BB2002B3CD023689A6844
:1035C80012F0010FEDD0A26B1B7B1370A36B0133BC
:1035D800A363E38F9BB2013B9BB2E387EAE7012336
:1035E80084F85130032636E0FEF7B8FEC01BA84227
:1035F80002D3B5F1FF3F19D1C5B1E38F9BB2D3B167
:1036080023689A6812F0010FEED0DA68A36B1A806B
:10361800A36B0233A363B4F83EC01FFA8CFC0CF111
:10362800FF3C1FFA8CFCA4F83EC0E6E7012384F8AF
:10363800513003260FE03A4629462046FFF7C2FCE0
:1036480008B120236365636D2BB9012384F85130D9
:10365800002600E00226002384F85030304603B0EC
:10366800BDE8F0830226F9E790F83D30DBB2012B84
:103678002FD1022380F83D300268D36843F001035C
:10368800D3600368154A934218D002F5006293424A
:1036980014D0B3F1804F11D0A2F5983293420DD0D7
:1036A80002F58062934209D002F58062934205D008
:1036B8001A6842F001021A60002070479A6802F006
:1036C8000702062A07D01A6842F001021A60002091
:1036D8007047012070470020704700BF002C014050
:1036E800704770477047704710B5044603681A69F9
:1036F80012F0020F11D0DA6812F0020F0DD06FF03D
:1037080002021A610123037703689B6913F0030F10
:1037180070D0FFF7E6FF0023237723681A6912F0B9
:10372800040F12D0DA6812F0040F0ED06FF0040202
:103738001A610223237723689B6913F4407F5FD0C3
:103748002046FFF7CEFF0023237723681A6912F07B
:10375800080F12D0DA6812F0080F0ED06FF00802C6
:103768001A61042323772368DB6913F0030F4ED013
:103778002046FFF7B6FF0023237723681A6912F063
:10378800100F12D0DA6812F0100F0ED06FF010027E
:103798001A61082323772368DB6913F4407F3DD03F
:1037A8002046FFF79EFF0023237723681A6912F04B
:1037B800010F03D0DA6812F0010F36D123681A69B5
:1037C80012F0800F03D0DA6812F0800F34D123682A
:1037D8001A6912F0400F03D0DA6812F0400F32D1A4
:1037E80023681A6912F0200F03D0DA6812F0200F4C
:1037F80030D110BDFFF774FF2046FFF773FF8AE74B
:103808002046FFF76DFF2046FFF76CFF9BE7204639
:10381800FFF766FF2046FFF765FFACE72046FFF796
:103828005FFF2046FFF75EFFBDE76FF001021A61F8
:103838002046FDF785FAC1E76FF080021A6120463D
:1038480000F099F9C3E76FF040021A612046FFF7CC
:103858004AFFC5E76FF020021A61204600F08AF996
:10386800C7E700000368244A904212D002F50062BC
:1038780090420ED0B0F1804F0BD0A2F59832904212
:1038880007D002F58062904203D002F58062904230
:1038980003D123F070034A681343174A904212D0A9
:1038A80002F5006290420ED0B0F1804F0BD0A2F525
:1038B8009832904207D002F58062904203D002F518
:1038C8008062904203D123F44073CA68134323F003
:1038D80080034A69134303608B68C3620B68836281
:1038E800054B984203D003F50063984201D10B6958
:1038F8000363012343617047002C014040B310B5B6
:10390800044690F83D30F3B1022384F83D30214657
:1039180051F8040BFFF7A6FF012384F8463084F81A
:103928003E3084F83F3084F8403084F8413084F8E1
:10393800423084F8433084F8443084F8453084F8C1
:103948003D30002010BD80F83C30FEF7CDFBDBE7B2
:1039580001207047002857D070B50D46044690F8EE
:103968003D30002B4BD0022384F83D302268936809
:1039780023F4804323F007039360214651F8040B96
:10398800FFF770FF21688A688B690E6A2868104300
:1039980023F4407C2CF0030CAA68AB6942EA0323A9
:1039A80043EA0C0323F47C4323F0FC03EA69D5F8CB
:1039B8000CC04CEA022C4CEA030C2A6A13032A694D
:1039C80043EA021343EA0C0326F022066A686D698B
:1039D80042EA05123243886021688B6123681A62C3
:1039E800012384F8463084F83E3084F83F3084F868
:1039F800423084F8433084F83D30002070BD80F8B0
:103A08003C30FEF787FAAEE70120704701F01F014E
:103A1800012303FA01FC036A23EA0C030362036A25
:103A280002FA01F10B430362704738B5044690F877
:103A38003E00C0B294F83F3094F84220D2B294F8D5
:103A480043C00D46B1B9012849D1012A48D1022302
:103A580084F83E3084F842307DB3042D39D00122F9
:103A680000212068FFF7D2FF012204212068FFF718
:103A7800CDFF27E0DBB25FFA8CFC042912D00128C5
:103A880033D1012B2CD1012A31D1BCF1010F30D116
:103A9800022384F83E3084F83F3084F8423084F8BA
:103AA8004330D9E7012B1CD1BCF1010F1BD10223F4
:103AB80084F83F3084F84330CEE7012200212068A3
:103AC800FFF7A4FF2268136843F001031360002086
:103AD80006E0012204212068FFF798FFF2E70120A1
:103AE80038BD0120FCE71846FAE70120F8E7184638
:103AF800F6E71046F4E7000090F83C30012B34D08C
:103B080010B4012380F83C30022380F83D3003686C
:103B18005A689C6822F0700C0A6842EA0C025A60E3
:103B28000368134A934212D002F5006293420ED002
:103B3800B3F1804F0BD0A2F59832934207D002F52B
:103B48008062934203D002F58062934204D124F04C
:103B580080044A6814439C60012380F83D300023A8
:103B680080F83C30184610BC70470220704700BFF0
:103B7800002C014070477047026802F10C0353E8BB
:103B8800003F23F490730C3242E800310029F3D14E
:103B9800026802F1140353E8003F23F001031432D2
:103BA80042E800310029F3D1036B012B05D0202313
:103BB80080F84230002303637047026802F10C0367
:103BC80053E8003F23F010030C3242E8003100298B
:103BD800F3D1ECE790F84130DBB2212B01D0022081
:103BE80070478368B3F5805F17D0036A5A1C026276
:103BF8001A7803685A60C38C9BB2013B9BB2C3849A
:103C08004BB90268D36823F08003D3600268D36895
:103C180043F04003D360002070470369002BE4D1D0
:103C2800036A1B880268C3F308035360036A0233FC
:103C38000362E0E710B504460268136923F44053B1
:103C4800C1680B43136183680269134342691A43CD
:103C58000168CB6823F4B05323F00C031343CB6003
:103C68000268536923F4407381690B435361026806
:103C7800134B9A4220D0FFF709F9024602EB820261
:103C880002EB820263689B00B2FBF3F20D48A0FBD3
:103C980002314909642303FB11231B013233A0FBC2
:103CA80003235B0903F0F00202EB011203F00F0398
:103CB800216813448B6010BDFFF7F8F80246DDE772
:103CC800003801401F85EB512DE9F84305460F46A2
:103CD80016469946DDF820802C68246837EA0403E4
:103CE8000CBF4FF0010C4FF0000CB4452DD1B8F1CA
:103CF800FF3FF1D0B8F1000F05D0FEF72FFBA0EB86
:103D080009004045E8D92A6802F10C0353E8003F4E
:103D180023F4D0730C3242E800310029F3D12A6829
:103D280002F1140353E8003F23F00103143242E880
:103D380000310029F3D1202385F8413085F842303D
:103D4800002385F84030032000E00020BDE8F88318
:103D580060B310B5044690F8413013B3242384F8B7
:103D680041302268D36823F40053D3602046FFF71C
:103D780061FF2268136923F4904313612268536931
:103D880023F02A0353612268D36843F40053D360B5
:103D980000206064202384F8413084F84230606356
:103DA80010BD80F84030FEF7F3F9D7E701207047DF
:103DB8002DE9F04182B01E4690F84130DBB2202B4D
:103DC8004BD104460D46904600294AD00AB9012035
:103DD80044E000234364212380F84130FEF7BEFA13
:103DE8000746A4F82480A4F82680A368B3F5805F6A
:103DF80002D04FF000080FE02369FBB14FF0000834
:103E08000AE038F8023B2268C3F308035360E28CE7
:103E180092B2013A92B2E284E38C9BB28BB10096E3
:103E28003B46002280212046FFF74EFFD8B9002DDF
:103E3800E7D015F8012B23685A60E8E7A846002563
:103E4800EAE700963B46002240212046FFF73CFF68
:103E580058B9202384F8413000E0022002B0BDE8C0
:103E6800F0810120FAE70320F8E70320F6E770471E
:103E780008B50168CA6822F04002CA60202280F8AA
:103E88004120FFF7F4FF002008BD704708B5406ADD
:103E98000023C385C384FFF7F8FF08BD704790F877
:103EA8004230DBB2222B69D18368B3F5805F4FD0F3
:103EB800826AB3F5805F04D0002B56D10369002BCA
:103EC80053D103685B681370836A01338362C38DBF
:103ED8009BB2013B9BB2C385002B51D100B583B087
:103EE8000268D36823F02003D3600268D36823F400
:103EF8008073D3600268536923F001035361202360
:103F080080F8423000234363036B012B33D1002335
:103F18000363026802F10C0353E8003F23F0100327
:103F28000C3242E800310029F3D103681A6812F014
:103F3800100F06D0002201921A6801925B68019363
:103F4800019B818DFFF7AAFF002003B05DF804FBF9
:103F58000269002AACD1826A03685B68C3F308036C
:103F68001380836A02338362B1E703685B6803F0F6
:103F78007F031370A8E7FCF771FFE5E7022070479D
:103F88000020704730B583B0044602681368D068D3
:103F9800516913F00F0505D113F0200F02D010F06E
:103FA800200F19D12DB111F0010119D110F4907F12
:103FB80016D1216B01297DD013F0800F03D010F0AA
:103FC800800F40F0188113F0400F03D010F0400F1D
:103FD80040F0158103B030BD2046FFF760FFF9E7D8
:103FE80013F0010F06D010F4807F03D0626C42F00A
:103FF8000102626413F0040F04D019B1626C42F03C
:104008000202626413F0020F04D019B1626C42F02C
:104018000402626413F0080F07D010F0200F00D1DB
:1040280019B1626C42F008026264626C002AD1D055
:1040380013F0200F02D010F0200F29D123685B69FC
:1040480003F04003626C12F0080F00D163B32046FE
:10405800FFF792FD23685B6913F0400F20D02268B8
:1040680002F1140353E8003F23F04003143242E8FE
:1040780000310029F3D1E36B73B1634A5A63E06BF3
:10408800FEF716FA0028A5D0E06B436B9847A1E726
:104098002046FFF704FFD1E72046FFF7F6FE99E731
:1040A8002046FFF7F2FE95E72046FFF7EEFE0023D5
:1040B80063648FE713F0100F3FF47EAF10F0100F1A
:1040C8003FF47AAF00230193136801935368019377
:1040D800019B536913F0400F51D0E26B13685B6882
:1040E8009BB2002B3FF476AFA18D99427FF672AF59
:1040F800E3859369202B37D0226802F10C0353E83B
:10410800003F23F480730C3242E800310029F3D1D8
:10411800226802F1140353E8003F23F0010314322C
:1041280042E800310029F3D1226802F1140353E870
:10413800003F23F04003143242E800310029F3D154
:10414800202384F8423000232363226802F10C0301
:1041580053E8003F23F010030C3242E800310029F5
:10416800F3D1E06BFEF780F902236363A18DE38D41
:104178009BB2C91A89B22046FFF790FE2AE7A18DA3
:10418800E38D9BB2C91A89B2E38D9BB2002B3FF431
:1041980021AF00293FF41EAF226802F10C0353E857
:1041A800003F23F490730C3242E800300028F3D12A
:1041B800226802F1140353E8003F23F0010314328C
:1041C80042E800300028F3D1202384F8423000234D
:1041D8002363226802F10C0353E8003F23F0100325
:1041E8000C3242E800300028F3D1022363632046F2
:1041F800FFF754FEEEE62046FFF7ECFCEAE6204621
:10420800FFF736FEE6E600BF953E0008816282852C
:10421800C28500234364222380F84230036923B116
:104228000268D36843F48073D3600268536943F02B
:10423800010353610268D36843F02003D360002070
:10424800704708B590F84230DBB2202B08D149B14D
:104258000AB9012008BD00230363FFF7D7FFF9E778
:104268000220F7E70120F5E770B50D4E0D4D761BDE
:10427800B61006D0002455F8043B01349847A642EE
:10428800F9D1094E094D00F0D5F8761BB61006D0C5
:10429800002455F8043B01349847A642F9D170BD73
:1042A80094440008944400089C440008944400087E
:1042B800830730B548D0541E002A3FD00346CAB2FF
:1042C80001E0013C3AD303F8012B9D07F9D1032CF7
:1042D8002DD9CDB245EA05250F2C45EA054536D935
:1042E800A4F1100222F00F0C03F1200EE6444FEA6D
:1042F800121C03F1100242E9045542E9025510323A
:104308007245F8D10CF1010214F00C0F03EB021204
:1043180004F00F0C13D0ACF1040323F003030433AF
:10432800134442F8045B9342FBD10CF003042CB114
:10433800CAB21C4403F8012B9C42FBD130BD644631
:104348001346002CF4D1F9E703461446BFE71A4692
:10435800A446E0E7024B13B1024800F005B87047E5
:10436800000000007D430008002301461A46184655
:1043780000F01AB838B5084B084D5B1B9C1007D0E5
:10438800043B1D44013C55F804399847002CF9D1E9
:10439800BDE8384000F054B8A04400089C44000828
:1043A800704700BF704700BF2DE9F047DFF87CA0D9
:1043B8000646DAF8000098460F469146FFF7F0FFE8
:1043C8001B4B1B68D3F8484124B365681F2D26DCB6
:1043D8005EB96B1C0235DAF80000636044F825709A
:1043E800FFF7E0FF0020BDE8F087012304EB85011B
:1043F800C1F88890D4F88821AB401A43022EC4F83B
:104408008821C1F80881E4D1D4F88C211343C4F879
:104418008C31DEE703F5A674C3F84841D5E7DAF82E
:104428000000FFF7BFFF4FF0FF30DCE7500400202B
:1044380090440008F8B500BFF8BC08BC9E46704719
:0C444800F8B500BFF8BC08BC9E467047E9
:10445400A5A5A5A5A5000000023AB1B10100000080
:104464000000000000000000010203040607080920
:104474000000000001020304020304050607080902
:104484000A0B0C0D0E0F1010010200002800002072
:084494005D4300080D02000861
:04449C00E90100082A
:1044A00000000000000000400000000000001C4070
:1044B0000000000000805140B20000000024F40021
:1044C00001000000100000000000000014030020A4
:1044D0007C030020E4030020000000000000000036
:1044E00000000000000000000000000000000000CC
:1044F00000000000000000000000000000000000BC
:1045000000000000000000000000000000000000AB
:10451000000000000000000000000000000000009B
:10452000000000000000000000000000000000008B
:10453000000000000000000000000000000000007B
:10454000000000000000000000000000000000006B
:10455000000000000000000000000000000000005B
:10456000000000000000000000000000000000004B
:1045700001000000000000000E33CDAB34126DE6E8
:10458000ECDE05000B000000000000000000000051
:10459000000000000000000000000000000000001B
:1045A000000000000000000000000000000000000B
:1045B00000000000000000000000000000000000FB
:1045C00000000000000000000000000000000000EB
:0448F000400800205C
:04000005080022913C
:00000001FF
